:020000040800F2
:10000000F827002049020008F54A0008493E000888
:10001000C545000847170008E95D0008000000001A
:10002000000000000000000000000000555400081F
:100030008718000800000000BD4F00085754000852
:1000400063020008630200086302000863020008FC
:1000500063020008630200086302000863020008EC
:1000600063020008630200086302000863020008DC
:10007000630200084D1700086302000863020008CD
:100080005D170008630200086302000863020008AD
:1000900063020008630200086302000863020008AC
:1000A000630200086302000863020008630200089C
:1000B0002955000863020008630200086302000873
:1000C000630200086302000863020008630200087C
:1000D0006302000863020008795D000863020008FB
:1000E000630200086302000863020008630200085C
:1000F000630200086302000863020008630200084C
:10010000630200086302000863020008630200083B
:1001100091560008630200086302000863020008A9
:10012000630200086D1700086302000863020008FC
:10013000630200086302000863020008630200080B
:1001400063020008630200086302000863020008FB
:10015000630200086302000863020008895D00086A
:1001600063020008630200086302000863020008DB
:100170006302000863020008630200080000000038
:10018000630200086302000800F002F800F04CF877
:100190000AA090E8000C82448344AAF10107DA45E2
:1001A00001D100F041F8AFF2090EBAE80F0013F0E8
:1001B000010F18BFFB1A43F00103184758820000D3
:1001C00078820000103A24BF78C878C1FAD8520764
:1001D00024BF30C830C144BF04680C6070470000C1
:1001E0000023002400250026103A28BF78C1FBD840
:1001F000520728BF30C148BF0B607047662906F020
:10020000B182642900F0CE80002070471FB506F04F
:10021000A4FA00F05BFD04000020002106F010FAB3
:10022000E0601FBD10B510BD00F050FE1146FFF795
:10023000EDFF06F08BF800F06EFE03B4FFF7F2FF5F
:1002400003BC00F0B1FE00000948804709480047A0
:10025000FEE7FEE7FEE7FEE7FEE7FEE7FEE7FEE776
:10026000FEE7FEE704480549054A064B70470000D3
:100270001555000889010008F81B0020F827002008
:10028000F81F0020F81F002053EA020C00F06980DC
:100290002DE9F04B4FF00006002B1FBFB3FA83F59A
:1002A00003FA05F424FA05F65E4012BF1643B2FACB
:1002B00082F502FA05F4C5F120051EBF22FA05FCFD
:1002C00044EA0C04203556EA044C4FEA144418BFA3
:1002D000641C4FF000084FF00009904271EB030CD2
:1002E00039D3002919BFB1FA81F701FA07F6B0FA3C
:1002F00080F700FA07F6C7F120071EBF20FA07FCB7
:1003000046EA0C062037B6FBF4FCA7EB0507103FC6
:1003100007F01F0BCBF120060CFA0BFB2CFA06F6AC
:1003200044BFB3460026202FA4BF5E464FF0000B0B
:100330005BEA060C08BF4FF0010B19EB0B09ABFB96
:10034000027C48EB0608C01B06FB02CC0BFB03CC6F
:1003500071EB0C01C1E70B46024641464846BDE839
:10036000F08B13B54FF000004FF00001AFF30080A9
:10037000BDE81C40704700000FB41CB5084B06AA2E
:100380007B4469460090059800F055FC0446002027
:10039000694600F063FC20461CBC5DF814FB0000BD
:1003A000D90800002DE9F04106460024106875299F
:1003B000314616A510D0AFF30080002802DA404283
:1003C00013A507E031688A0701D512A502E04907A5
:1003D00004D511A5012401E0AFF3008000210A2219
:1003E00006F1240709E0B0FBF2FCB0FBF2F302FBDC
:1003F0001C00303078541846491C0028F3D123469D
:100400002A463046BDE8F04100F0A8B900000000DF
:100410002D0000002B000000200000002DE9F05FFF
:10042000894604464FF0000ADFF874B1FB44C0F877
:1004300020A02046E1688847002874D0252806D0EF
:10044000D4E901219047206A401C2062F1E7002690
:100450005F462046E16888472028054607DB312DA6
:1004600005D2781910F8200C08B10643F1E7B0075F
:1004700001D526F00406C4F81CA00027C4F818A073
:100480002A2D09D0284605F039FF38B304EB870838
:10049000303DC8F8185019E059F8041B204604EB09
:1004A00087029161E1688847012F054618D1E0690C
:1004B000002820DA26F020061DE0D8F8180000EB0E
:1004C000800005EB40003038C8F818002046E1688D
:1004D0008847054605F012FF0028EED1012F0AD00B
:1004E0002E2D08D12046E16888477F1C0546022F43
:1004F00046F02006C4DBA069002803DA404246F03B
:100500000106A061F00701D026F010066C2D0BD07B
:10051000682D09D04C2D39D06A2D35D0742D35D0A9
:100520007A2D33D016E038E0E1682F462046884720
:10053000B842054609D16C2F26D04FF48060E1689F
:10054000064320468847054604E06C2F1AD04FF436
:10055000807006430DB3A5F14100192802D820355B
:1005600046F400664A462946204626604E46FFF776
:1005700045FE80B101280BD0F61D26F0070000F1E2
:10058000080956E74020E4E78020D8E70020D6E7B6
:1005900006F104094DE7284652E7206ABDE8F09FBE
:1005A0003C7F000040EA010310B59B070FD1042AED
:1005B0000DD310C808C9121F9C42F8D020BA19BA2E
:1005C000884201D9012010BD4FF0FF3010BD1AB193
:1005D000D30703D0521C07E0002010BD10F8013BE8
:1005E00011F8014B1B1B07D110F8013B11F8014B0F
:1005F0001B1B01D1921EF1D1184610BD10B5431C32
:1006000002E010F8011B71B18107FAD14FF00132FD
:1006100002C88C1A8C4314EAC211F9D0C01A0A0617
:1006200003D0C01E10BDC01A10BD0A0401D0801E28
:1006300010BD0902FCD0401E10BD032A40F23080DC
:1006400010F0030C00F0158011F8013BBCF1020F13
:10065000624498BF11F801CB00F8013B38BF11F894
:10066000013BA2F1040298BF00F801CB38BF00F8AB
:10067000013B11F0030300F0F682083AC0F0088055
:1006800051F8043B083A51F804CBA0E80810F5E70C
:10069000121D5CBF51F8043B40F8043BAFF30080EF
:1006A000D20724BF11F8013B11F801CB48BF11F864
:1006B000012B24BF00F8013B00F801CB48BF00F834
:1006C000012B70474FF000020429C0F0128010F097
:1006D000030C00F01B80CCF1040CBCF1020F18BF1E
:1006E00000F8012BA8BF20F8022BA1EB0C0100F0B1
:1006F0000DB85FEAC17C24BF00F8012B00F8012B84
:1007000048BF00F8012B70474FF0000200B51346B8
:1007100094469646203922BFA0E80C50A0E80C5021
:10072000B1F12001BFF4F7AF090728BFA0E80C50D2
:1007300048BF0CC05DF804EB890028BF40F8042BCB
:1007400008BF704748BF20F8022B11F0804F18BF38
:1007500000F8012B70477047704770472DE9F0474C
:100760000D4699469246044600F124080168880621
:1007700004D5E06921F01001216000E00120A842C9
:1007800001DD471B00E00027A1697A1902EB09008F
:10079000081AA0612078C00602D42046AFF300807A
:1007A000002608E0D4E901211AF806009047206AE3
:1007B000401C761C20624E45F4DB2078C0060AD52A
:1007C0002046AFF3008006E0D4E9012130209047B5
:1007D000206A401C2062381EA7F10107F4DC07E004
:1007E000D4E9012118F805009047206A401C2062D6
:1007F000281EA5F10105F3DC2046AFF30080207828
:10080000000602D50220BDE8F0870120FBE7704713
:100810002DE9FF4F0C461E464FF0FF378BB0D2E953
:100820000001DDF860800A908A46C1F30A5505B9D7
:100830003D46002108464FF00000BAF1000F00F4D9
:10084000400005DA00EB80004FF4400101EA50005F
:100850004FEA9059B9F1010F00DDB9460A9850EA04
:100860004A000ED044F61050A5F2FF3545432F1430
:10087000B8F1000F1ED07542291E1EDDC9F100021D
:100880001CE0B8F1010F4FF0000001D0302103E06F
:10089000F24305E02154401CB042FBDB304600220D
:1008A000002121540B99C1F80880C1E900200FB044
:1008B000BDE8F08FBD1B6D1CDEE74A4600DA6942D9
:1008C00006A800F08DFA06AB93E8070003AB83E8B7
:1008D000070050460A9900F06EFB8DE80700A0F56E
:1008E00000501F3800900398002D0ADD42F21F01CE
:1008F0004A460844002303A90390684600F0D7FD48
:1009000009E0A0F500504A461F38002303A90390D0
:10091000684600F0E1FD8DE807000004000C03D0FC
:100920004FF0FF30410800E01046B8F1000F03D04F
:100930000022009215461EE0751E05D400F0CAF98B
:10094000303262556D1EF9D5B3460122084302D0FC
:1009500000227F1C04E02078302801D100227F1E75
:10096000002A099784D01DE0112D07DA00F0B2F9B2
:10097000303262556D1C50EA0102F5D1084302D0B5
:100980000098C8B10EE00021681E05E0235C625C9F
:1009900063542254401E491C8142F7DBAB46A81B1E
:1009A000401E0990002004F80B000B98099AC0F82B
:1009B0000880C0E9002B7AE711264FF0000857E7BE
:1009C0002DE9F04F88460446D21D22F0070191B070
:1009D000D1E90001CDE90A0105F05CFC02460B9863
:1009E000C00F01D02D2007E02068810701D52B2002
:1009F00002E0202101EAC000032A099001D0072A61
:100A000005DB03464146204600F0AAF90BE12078B9
:100A1000800601D5E06900E00620B8F1650F814647
:100A200006D0B8F1660F18D0B8F1670F70D131E079
:100A30000020B9F1110F009001DB112301E009F151
:100A400001030AAA01A90CA8FFF7E2FEDDE90C7078
:100A5000002609F10105834647E001204B4600903E
:100A60004FF000470AAA01A90CA8FFF7D1FEDDE963
:100A70000DB00C995D46002610B909F101000D1862
:100A8000B9EB050003D4C0F1FF3609F10105A5EB70
:100A900009002BE0B9F1010F01DA4FF00109002044
:100AA000B9F1110F0090484601DD112300E0034623
:100AB0000AAA01A90CA8FFF7ABFEDDE90C704D46B0
:100AC00000268346207800070AD4AB4500DA5D464D
:100AD00001A8012D04DD411911F8011C302907D0AE
:100AE0004F4502DA17F1040F04DA012082460FE0C5
:100AF0006D1EEEE7002F02DCED1B3E4403E0781C88
:100B0000A84200DD7D1CB81B00F1010A4FF0004730
:100B10002078000703D4AA4501DB4FF0FF3A0021FB
:100B2000B7F1004F0DF143088DF8431024D0022097
:100B30002B23002F01DA7F422D230A21021EA0F170
:100B4000010000DC5FB197FBF1FC97FBF1F201FBC8
:100B50001C7C17460CF1300C08F801CDEEE7A8F12B
:100B6000010003702188090501D5452100E06521B8
:100B7000A0F1010800F8011C09980FA9A1EB0807D2
:100B8000FF1D00B10120411901EBEA70A169384451
:100B9000081A401EA0612078C00602D42046AFF398
:100BA0000080099828B1D4E901219047206A401CAF
:100BB00020622078C00622D52046AFF300801EE0D8
:100BC000002E04DBB34502DD01A8805D00E030208B
:100BD000D4E901219047206A401C2062761CAAF1CA
:100BE00001005FEA000A0AD100F070F8C0680168ED
:100BF000405CD4E901219047206A401C2062281EF5
:100C0000A5F10105DCDC07E0D4E9012118F8010BAE
:100C10009047206A401C2062381EA7F10107F3DCD0
:100C20002046AFF30080032011B041E601694A1C61
:100C300002610878704700B58FB0CDE9013100211D
:100C4000059105497944CDE9031011466846FFF73F
:100C5000E5FB0FB000BD0000E5FFFFFF0A6802F8EA
:100C6000010B0A60704710B5203AC0F00B80B1E864
:100C70001850203AA0E81850B1E81850A0E81850D1
:100C8000BFF4F5AF5FEA027C24BFB1E81850A0E8DA
:100C9000185044BF18C918C0BDE810405FEA827CF4
:100CA00024BF51F8043B40F8043B08BF7047D2070B
:100CB00028BF31F8023B48BF11F8012B28BF20F8AC
:100CC000023B48BF00F8012B704700000048704706
:100CD000B41B002030B5B0F10A024FEA900E71F15A
:100CE00000034EEA817EB0EB0E0061EB91014FEA0A
:100CF000101E4EEA017E10EB0E0041EB11114FEA7F
:100D0000102E4EEA016E10EB0E0041EB11214FEA5E
:100D1000104E4EEA014E10EB0E0041EB114140180F
:100D200041F100014FEAD00040EA41704FEAD101A1
:100D300010EB80054FEA810444EA907444EB01040F
:100D40006D1944EB0404521BA3414FF0000348BF4C
:100D50000A3200D530BD401C41F1000130BD000019
:100D60002DE9F0411F46044603260168072A01F4D5
:100D7000006004DB08B116A505E016A503E008B184
:100D800015A500E015A521F010002060A069C01E87
:100D9000A0610FB1401EA0612046AFF300804FB1AB
:100DA000D4E9012138469047206A401C2062C01CCB
:100DB000206206E0206AFAE7D4E9012115F8010B68
:100DC0009047761EF8D22046AFF30080BDE8F08150
:100DD0004E414E006E616E00494E4600696E6600DF
:100DE0002DE9F047814616468AB0354878440DC84B
:100DF0008DE80D0032487844801C03AC0DC884E8AF
:100E00000D0041F69B300844372190FBF1F290FB36
:100E1000F1F5A5F1800501FB12041B3C02D56442EB
:100E2000012000E00020DFF898A080460027FA4467
:100E3000AAF1BE0A0EE0E0070AD03246684607EB88
:100E4000470101230AEB810100F046FB8DE8070012
:100E500064107F1C002CEED1194F7F44AE3F19E087
:100E6000E80715D007EB04100DF1180A90E80E0002
:100E70008AE80E00C068F04201D198190890324605
:100E8000012306A903A800F027FB03AB83E80700B2
:100E90006D10641C002DE3D14FF00103324669460A
:100EA000B8F1000F03A802D000F001FB01E000F050
:100EB00013FBC9E90001C9F808200AB0BDE8F087B2
:100EC0000C76000000487047941B00207546FFF721
:100ED000F9FFAE4605006946534620F007008546F7
:100EE00018B020B5FFF7BEF9BDE820404FF000066E
:100EF0004FF000074FF000084FF0000B21F0070102
:100F0000AC46ACE8C009ACE8C009ACE8C009ACE844
:100F1000C0098D46704710B50446AFF300802046E7
:100F2000BDE81040FFF789B94FF0013C50F8042BA1
:100F300051F8043B9A4221D1A2EB0C03934313EAEC
:100F4000CC1317D150F8042B51F8043B9A4215D119
:100F5000A2EB0C03934313EACC130BD150F8042BF0
:100F600051F8043B9A4209D1A2EB0C03934313EAD4
:100F7000CC13DBD04FF00000704700BFD01A01BA8D
:100F8000B1FA81F101F0180122FA01F0CB40C1F170
:100F90002001DBB2C0B2C01A2CFA01F3D11A91437E
:100FA00011EAC311E6D1704701491820ABBEFEE734
:100FB0002600020070475FEA400C08BF91F0000F66
:100FC0004FEA8C234FEAC12243EA51514FEA1C50A9
:100FD00018BF00F5F0404FEA300018BF41F0004163
:100FE0005FEA6C5C00F02980BCF1FF3F08BF40F075
:100FF00080407047130C06BF12044FF0100C4FF0E6
:10100000000C130E04BF12020CF1080C130F04BFE6
:1010100012010CF1040C930F04BF92000CF1020CAE
:10102000D30F04BF52000CF1010C11464FF0000227
:10103000A0F11F00A0EB0C00704711F0004F08BF9B
:10104000704731F000413FF4D5AF0B0C06BF0904E7
:101050004FF0100C4FF0000C0B0E04BF09020CF106
:10106000080C0B0F04BF09010CF1040C8B0F04BF1B
:1010700089000CF1020CCB0F04BF49000CF1010CEC
:10108000CCF12003A0EB0C0022FA03F302FA0CF2DD
:1010900041EA030100F10100704720F07F4C80EA33
:1010A000030023F07F47ACEB070303F57C5300F00C
:1010B000004003F1FF032DE980494FEA154B09B4C5
:1010C0004FEA144325EA0B4E24EA03480FF20426A4
:1010D00006EB132749083E785FEA320203FB0667F6
:1010E000C7F5000707FB06F64FEA54374FEAD64626
:1010F00006F1020607FB066CCCF1005C4FEA1C47C8
:101100002CEA074C07FB06F40CFB06F504EB15462E
:101110004FEA961634BF00204FF000404FEAD13717
:1011200006FB07FC4FEA1C4C0CFB0BF7D21B03FB26
:101130000CF761EB07010CFB0EF7B0EB074072EB0D
:1011400017420CFB08F734BFA2EB0742B2EB074291
:1011500061EB17414FEA0C444FEA910706FB07FC8D
:101160004FEA1C4C0CFB0BF7B0EBC74072EB57324D
:1011700003FB0CF734BFA2EBC742B2EBC74261EBF3
:1011800057310CFB0EF7B0EBC70072EB57720CFB3C
:1011900008F734BFA2EBC702B2EBC70261EB57718D
:1011A000039F4FEA816141EA921104EBCC044FEABC
:1011B000D1374FEA826206FB07FC42EA90124FEAFF
:1011C00080604FEA1C4C0CFB0BF7D21B03FB0CF7A7
:1011D00061EB07010CFB0EF7B0EB074072EB174217
:1011E0000CFB08F734BFA2EB0742B2EB074261EBFE
:1011F00017414FEA8C554FEA910704EB9C2406FBFC
:1012000007FC4FEA1C4C0CFB0BF7B0EBC74072EB32
:10121000573203FB0CF734BFA2EBC742B2EBC74215
:1012200061EB57310CFB0EF7B0EBC70072EB577256
:101230000CFB08F734BFA2EBC702B2EBC70261EBAD
:10124000577115EB4C254FEA816141EA92114FEA43
:1012500082624FEAD13742EA901206FB07FC44F162
:1012600000044FEA80604FEA1C4C0CFB0BF7D21BCA
:1012700003FB0CF761EB07010CFB0EF7B0EB07402B
:1012800072EB17420CFB08F734BFA2EB0742B2EB3C
:10129000074261EB174115EB1C154FEA813141EA1A
:1012A00092414FEA823242EA90424FEA80304FEA5E
:1012B0000C7644F1000448EA03434EEA0B484FF031
:1012C000000EB2EB080C71EB030724BF62463946EF
:1012D0004EEB0E0E4FF0000B0018524149414BEB04
:1012E0000B0BB2EB080C71EB03077BF1000B24BF77
:1012F000624639464EEB0E0E4FF0000B001852417D
:1013000049414BEB0B0BB2EB080C71EB03077BF184
:10131000000B24BF624639464EEB0E0E51EA02071F
:1013200018BF46F0010616EB0E7655F1000254F197
:10133000000103D5BDE88901BDE80088BDE8890149
:10134000BDE80048B619524141EB0101A3F1010388
:10135000704780807F7E7D7C7B7A79787776767522
:101360007473727171706F6E6E6D6C6C6B6A6A699A
:101370006868676666656464636362616160605F34
:101380005F5E5E5D5D5C5C5B5B5A5A5959585857AD
:101390005756565555555454535352525251515015
:1013A00050504F4F4F4E4E4D4D4D4C4C4C4B4B4B68
:1013B0004A4A4A49494948484847474747464646AE
:1013C00045454544444444434343434242424241E9
:1013D0004141002B9C4630D477002BD01CB54FEAFE
:1013E000370703B44FF010004FF01001BAF1000FAF
:1013F00006D0BCF1000FDCBF40F0080040F008014F
:101400004FF000000FBCBDE810400BF1010BBBF129
:10141000010F08BF5FEA170722BF12F1010211F1A5
:1014200001014FF0004143F1000300F0004043EAA6
:1014300000007047F9D35708D0E746EA064613F193
:10144000400F4FEA16461FDD13F1200FDFBF164392
:101450000A46002120335B42BED0C3F1200746EA92
:10146000064602FA07F74FEA164646EA0706C3F1B0
:10147000200722FA03F201FA07F721FA03F14FF0ED
:10148000000342EA0702A7E746EA020646EA0646E2
:101490004FEA164646EA0106BCBF46EA0646360C47
:1014A0004FF000034FF000024FF0000194E72DE9E8
:1014B000804C9A46934670B491E8380007C831EAE8
:1014C000400C48BF34EA430C03D5FFF7E6FDFFF7B5
:1014D00080FFF0BCBDE8008C2DE9804C9A46934615
:1014E00070B491E8380007C810F0804F08BF13F0BF
:1014F000804F03D100F005F8FFF76BFFF0BCBDE8AB
:10150000008C20F07F4780EA030023F07F4C07EB3C
:101510000C03A3F57C5300F00040A3F1FE0392F00E
:10152000000F00F0B38095F0000F00F077802DE9F8
:1015300001494FEA11404FEA144621EA004800FBF6
:1015400006FC24EA064708FB06F607FB08F800FB42
:1015500007F718EB06484CEB164C4FEA124B18EB0A
:1015600007484FEA15464CEB174022EA0B4E0BFB9F
:1015700006FC25EA06470EFB06F607FB0EFE0BFBF4
:1015800007F71EEB064E4CEB164C4FF000061EEB19
:10159000074E4CEB174B18EB0B0840F1000018EB13
:1015A0000E0B58EB000840F100008F1A4FF00001BD
:1015B0003CBFC943661B14BFB5EB040C00213CBF04
:1015C000C943F61B4FEA17444EEA8E0E27EA04453C
:1015D0004FEA1C4704FB07622CEA074C05FB07F7A0
:1015E0000CFB05F604FB0CFC16EB074642EB17421E
:1015F00016EB0C4642EB1C421BEB060658EB0202B4
:10160000414146EA9E0601D5BDE80189B61952411D
:1016100041EB0101A3F10103BDE801894FEA144543
:101620004FEA114724EA054621EA074C05FB07F477
:1016300006FB07F70CFB06F105FB0CFC11EB074161
:1016400044EB17444FEA124711EB0C4144EB1C44A6
:1016500022EA074C05FB07F206FB07F70CFB06F630
:1016600005FB0CFC16EB074642EB174216EB0C464B
:1016700042EB1C456A1854F1000148BF7047B61987
:10168000524141EB0101A3F10103704795F0000FB6
:1016900037D04FEA11424FEA144721EA024624EAC2
:1016A000074C02FB07F106FB07F70CFB06F402FBF5
:1016B0000CFC14EB074441EB17414FEA154714EBC0
:1016C0000C4441EB1C4125EA074C02FB07F506FBE5
:1016D00007F70CFB06F602FB0CFC16EB074645EB86
:1016E000174516EB0C4645EB1C42121951F100014F
:1016F00048BF7047B619524141EB0101A3F1010304
:1017000070474FEA14454FEA114724EA054621EA9B
:10171000074C05FB07F106FB07F70CFB06F24FF041
:10172000000605FB0CFC12EB074241EB174112EBE4
:101730000C4251EB1C4148BF7047921841EB01012C
:10174000A3F10103704700BFFEE7000010B5024897
:1017500000F056F910BD00009C02002010B50248B0
:1017600000F04EF910BD0000FC02002010B5024848
:1017700000F046F910BD00005C0300200146087827
:1017800010381823B0FBF3F20848805CC865032AC0
:1017900005D908686FF30900001D886503E0086833
:1017A0006FF309008865886D704700004C8300085E
:1017B000014600208A6A8B69CBB932B1012A0DD06B
:1017C000022A03D0032A10D10EE000BFCB6A03F037
:1017D0008073B3F1807F00D1012007E0CB6AB3F1C1
:1017E000C07F00D1012001E000E000BF34E08B6940
:1017F000B3F5005F1AD132B1012A07D0022A03D013
:10180000032A11D10AE000BF01200EE0CB6A03F0E9
:101810008073B3F1807F00D1012006E0CB6AB3F181
:10182000C07F00D1012000E000BF15E032B1012AE5
:1018300005D0022A04D0032A0CD103E000BF00BF68
:10184000012008E0CB6A03F08073B3F1807F00D100
:10185000012000E000BF00BF704730B50468246875
:1018600024F4802405682C60046863608468402C3C
:1018700004D10468A2600468E16003E00468A16028
:101880000468E26030BD70472DE9FF4107460C4611
:1018900015461E46002000900190029003908DF89E
:1018A0000040F3208DF80100AB208DF802008DF888
:1018B00003508DF804606B208DF805004FF47A73A7
:1018C00006226946384602F05FFABDE8FF812DE93D
:1018D000FF4707460D4616461C46DDE90C890020E9
:1018E00000900190029003908DF80050F6208DF842
:1018F00001008DF8026020128DF80300E0B28DF82F
:1019000004008DF805808DF806906B208DF8070097
:101910004FF47A7308226946384602F035FA824657
:10192000BDE8FF8772B600BFFEE770B50446A56D3F
:1019300000F062FB064694F83500022808D08020AB
:10194000606500BF002084F8340000BF012070BD36
:101950002068006820F0160021680860206840694F
:1019600020F0800021684861206C08B9A06C28B183
:101970002068006820F0080021680860206800687E
:1019800020F001002168086010E000F035FB801BAA
:1019900005280BD920206065032084F8350000BF9E
:1019A000002084F8340000BF0320D0E720680068DE
:1019B00000F001000028E8D194F85C103F20884036
:1019C000A860012084F8350000BF002084F83400AE
:1019D00000BF00BFBBE7014691F83500022803D0E5
:1019E0008020486501207047052081F8350008688F
:1019F000006820F001000A6810600020F3E7000092
:101A0000F8B50446002000908C4800684FF4165149
:101A1000B0FBF1F7A56D2E6894F85C1008208840A3
:101A2000304098B12068006800F0040070B1206870
:101A3000006820F004002168086094F85C10082019
:101A40008840A860606D40F00100606594F85C100B
:101A500001208840304068B12068406900F0800073
:101A600040B194F85C1001208840A860606D40F09F
:101A70000200606594F85C1004208840304068B132
:101A80002068006800F0020040B194F85C10042067
:101A90008840A860606D40F00400606594F85C10B8
:101AA00010208840304078B32068006800F00800BB
:101AB00050B394F85C1010208840A860206800683B
:101AC00000F4802080B12068006800F4002028B96C
:101AD000206CC8B12046216C884715E0A06C98B1F5
:101AE0002046A16C88470FE02068006800F48070F1
:101AF00028B92068006820F0080021680860206C80
:101B000010B12046216C884794F85C102020884052
:101B10003040002865D02068006800F010000028E0
:101B20005FD094F85C1020208840A86094F83500BD
:101B3000052828D12068006820F016002168086078
:101B40002068406920F0800021684861206C08B955
:101B5000A06C28B12068006820F0080021680860A7
:101B600094F85C103F208840A860012084F835007C
:101B700000BF002084F8340000BF206D10B1204663
:101B8000216D8847F8BD2068006800F4802080B18E
:101B90002068006800F4002028B9606C10B120466D
:101BA000616C88471DE0E06BD8B12046E16B884747
:101BB00017E02068006800F4807068B92068006849
:101BC00020F0100021680860012084F8350000BF73
:101BD000002084F8340000BFE06B10B12046E16BB8
:101BE0008847606D38B3606D00F00100F0B10520EA
:101BF00084F835002068006820F001002168086042
:101C000000BF0098401C0090B84200D905E0206851
:101C1000006800F001000028F3D100BF012084F823
:101C2000350000BF002084F8340000BFE06C10B124
:101C30002046E16C884700BFA4E700002000002098
:101C40002DE9F0410446002500F0D6F9074614B905
:101C50000120BDE8F081606A00B100BF022084F875
:101C6000350000BF002084F8340000BF2068006801
:101C700020F00100216808600AE000F0BDF9C01BF7
:101C8000052805D920206065032084F83500E0E7A9
:101C90002068006800F001000028EED12068056887
:101CA00021480540D4E901010843E168084321695E
:101CB000084361690843A1690843E1690843216A4F
:101CC00008430543606A042803D1D4E90B010843A3
:101CD0000543206805602068456925F00705606AAE
:101CE0000543606A04280DD1A06A0543E06A48B143
:101CF0002046FFF75DFD28B140206065012084F893
:101D00003500A6E7206845612046FFF737FD064607
:101D100094F85C103F208840B0600020606501208E
:101D200084F83500002094E73F8010F02DE9F0475B
:101D300004460D4616461F464FF00008D4F858904A
:101D400000BF94F83400012802D10220BDE8F087DA
:101D5000012084F8340000BF94F83500012825D113
:101D6000022084F83500002060653B463246294653
:101D70002046FFF772FD94F85C103F208840C9F8B8
:101D800008002068006840F0160021680860206C98
:101D900028B12068006840F00800216808602068C9
:101DA000006840F001002168086006E000BF0020E4
:101DB00084F8340000BF4FF002084046C6E7000038
:101DC00070B5044600F018F906462546681C10B1A7
:101DD00004480078054400BF00F00EF9801BA842BB
:101DE000FAD370BD1C000020F8B502460B46002552
:101DF000002400200021D6E0012606FA01F51E6825
:101E000006EA0504AC4274D11E7906F00306012EE1
:101E100004D01E7906F00306022E13D190684F00FD
:101E20000326BE40B0434F00DE68BE4030439060A2
:101E3000506801268E40B0431E79C6F300168E40CE
:101E4000304350601E7906F00306032E09D0D06897
:101E50004F000326BE40B0434F009E68BE40304353
:101E6000D0601E7906F00306022E13D1CF0802F1CE
:101E7000200656F827004E07F70E0F26BE40B04347
:101E80004F07FF0E1E69BE403043CF0802F1200607
:101E900046F8270010684F000326BE40B0431E7965
:101EA00006F003064F00BE40304310605E6806F443
:101EB0004036002E76D000BF002600963C4E366895
:101EC00046F480463A4F3E603E46366806F4804609
:101ED000009600BF00BF374E8F0856F827008E07C8
:101EE000370F0F26BE40B043334EB24202D1002618
:101EF00024E057E0314EB24201D101261EE0304EBF
:101F0000B24201D1022619E02E4EB24201D103267F
:101F100014E02D4EB24201D104260FE02B4EB24206
:101F200001D105260AE02A4EB24201D1062605E07B
:101F3000284EB24201D1072600E008268F073F0F46
:101F4000BE4030431B4E8F0846F82700224E3068B3
:101F5000A0435E6806F4801606B120431E4E306032
:101F6000361D3068A0435E6806F4001606B12043B3
:101F7000194E361D3060184E361F3068A0435E681B
:101F800006F4003606B12043134E361F3060361F6C
:101F90003068A0435E6806F4803606B120430E4EDA
:101FA000083E3060491C1029FFF426AFF8BD000040
:101FB000443802400838014000000240000402405A
:101FC00000080240000C02400010024000140240D1
:101FD00000180240001C0240083C01400246136900
:101FE0000B400BB1012000E0002070470AB1816175
:101FF00001E00B04836170470148006870470000EE
:102000001400002070B504460CB9012070BD94F88E
:102010003D0028B9002084F83C00204600F092F9E9
:10202000242084F83D002068006820F00100216829
:1020300008602068006840F400402168086020685B
:10204000006820F400402168086000F061FB05464C
:102050005C496068884206D85B48854201D201200D
:1020600007E0002005E05948854201D2012000E048
:102070000020012800D1C9E75548B5FBF0F62068DB
:10208000406820F03F003043216848604D49606857
:10209000884201D8701C07E04FF4967070434FF4EB
:1020A0007A71B0FBF1F0401C2168096A21F03F0110
:1020B00008432168086243496068884214D8681E52
:1020C00061684900B0FBF1F0401CC0F30B0004282C
:1020D00001D204203DE0681E61684900B0FBF1F0C8
:1020E000401CC0F30B0034E0A06838B9681E61687A
:1020F00001EB4101B0FBF1F0401C0AE0681E616891
:1021000001EBC10202EB0111B0FBF1F0401C40F405
:102110008040C0F30B0008B901201AE0A06848B95C
:10212000681E616801EB4101B0FBF1F0401CC0F397
:102130000B000CE0681E616801EBC10202EB0111AB
:10214000B0FBF1F0401CC0F30B0040F4804040F4C1
:1021500000402168C9694CF6FF7291430843216829
:10216000C861D4E9070108432168096821F0C0016A
:10217000084321680860D4E903100843216889688E
:1021800048F2FF329143084321688860D4E9050191
:1021900008432168C96821F0FF0108432168C8602D
:1021A0002068006840F00100216808600020206479
:1021B000202084F83D000020206384F83E0000BF0A
:1021C00024E70000A086010080841E0000093D0075
:1021D00040420F002DE9F8430446894616461F4643
:1021E000DDF82080FFF708FF054694F83D00202821
:1021F0007ED11923012251492046009501F0D9FED4
:1022000010B10220BDE8F88300BF94F83C0001281B
:1022100001D10220F6E7012084F83C0000BF2068CD
:10222000006800F0010028B92068006840F0010053
:10223000216808602068006820F400602168086058
:10224000212084F83D00102084F83E000020206406
:1022500066626785608D20853948E0622B4642467C
:102260004946204601F012FE08B10120CAE700BF2E
:1022700000200090206840690090206880690090EC
:1022800000BF00BF44E02A464146204601F06DFFF2
:1022900050B1206C042805D12068006840F400701B
:1022A000216808600120ADE7606A00782168086154
:1022B000606A401C6062608D401E6085208D401EFB
:1022C000208520684069C0F3800070B1208D60B126
:1022D000606A007821680861606A401C6062608DF5
:1022E000401E6085208D401E20852A46414600E024
:1022F00022E0204601F02AFE50B1206C042805D1CE
:102300002068006840F4007021680860012079E7C7
:10231000208D0028B7D12068006840F40070216843
:102320000860202084F83D00002084F83E0000BFB3
:1023300084F83C0000BF65E7022063E7020010005C
:102340000000FFFF10B586B00446142101A8FEF777
:10235000DBF91B492068884230D100BF0020009083
:102360001848006840F002001649086008460068F6
:1023700000F00200009000BF00BF4FF440600190E9
:102380001220029000200390032004900420059066
:1023900001A90D48FFF728FD00BF00200090094863
:1023A0001030006840F4800006491031086008468B
:1023B000006800F48000009000BF00BF06B010BDB0
:1023C00000580040303802400004024003480068D2
:1023D0000349097808440149086070471400002047
:1023E0001C00002010B50D48006840F400700B4937
:1023F00008600846006840F480600860084600688D
:1024000040F480700860032000F0A6F80F2000F070
:1024100007F800F02BF8002010BD0000003C02403F
:1024200070B504460E4800784FF47A71B1FBF0F0B5
:102430000C490968B1FBF0F5284600F0FBFD08B136
:10244000012070BD102C07D200222146501E00F042
:1024500045F80548046001E00120F2E70020F0E7BC
:102460001C000020200000201800002008B500BF3C
:10247000002000900E48006840F480400C4908603D
:102480000846006800F48040009000BF00BF00BF15
:1024900000200090081F006840F08050091F08606D
:1024A0000846006800F08050009000BF00BF08BDE3
:1024B000443802400146084600280DDB00BF00BF3B
:1024C00000F01F0301229A4043099B0003F1E0231F
:1024D000C3F8002100BF00BF00BF70472DE9F05FC7
:1024E00080460D461646002703F0ECFE07463946A7
:1024F0002A46334601F00700C0F1070ABAF1040F7B
:1025000002D94FF0040A01E0C0F1070AD14600F1F8
:10251000040ABAF1070F02D24FF0000A01E0A0F15D
:10252000030AD4464FF0010A0AFA09FAAAF1010A8D
:102530000AEA020A0AFA0CFA4FF0010B0BFA0CFB3A
:10254000ABF1010B0BEA030B4AEA0B0421464046B0
:1025500003F0C0FEBDE8F09F00BF00F00702064B8D
:1025600019684FF6FF031940044B0B4343EA02215D
:10257000014B196000BF70470CED00E00000FA0548
:1025800070B504460D460CB9012070BD584800686E
:1025900000F00700A84209D255490D7008460068AE
:1025A00000F00700A84201D00120EEE7207800F0FB
:1025B000020002281DD1207800F00400042805D173
:1025C0004C48006840F4E0504A490860207800F028
:1025D0000800082805D14748006840F46040454994
:1025E00008604448006820F0F000A16808434149B1
:1025F0000860207800F00100A8B36068012807D1C6
:102600003C4808380068C0F34040B8B90120BCE736
:102610006068022802D06068032807D1354808386E
:102620000068C0F3406048B90120AEE7314808387F
:102630000068C0F3400008B90120A6E72D480068F3
:1026400020F00300616808432A490860FFF7D4FCC2
:10265000064609E0FFF7D0FC801B41F28831884232
:1026600002D9032091E707E02248006800F00C003F
:102670006168B0EB810FEDD11D48006800F00700E4
:10268000A84209D91A490D700846006800F00700F1
:10269000A84201D0012078E7207800F00400042847
:1026A00007D11448006820F4E050E168084311495C
:1026B0000860207800F00800082808D10D4800685C
:1026C00020F46040216940EAC1000A49086000F036
:1026D0003FF808490968C1F30311074A515CC84033
:1026E0000649086006480068FFF79AFE00204CE79C
:1026F000003C0240083802405483000820000020BB
:1027000018000020014800687047000020000020E9
:1027100000B5FFF7F7FF04490968C1F38221034AB6
:10272000515CC84000BD00000838024064830008C6
:1027300000B5FFF7E7FF04490968C1F34231034AD6
:10274000515CC84000BD00000838024064830008A6
:102750002DE9F047002400250026A1462548006801
:1027600000F00C0020B1042805D008283AD105E07B
:10277000DFF8849039E0DFF8849036E01D48001FD0
:10278000006800F03F041B48001F006800F4800050
:1027900078B11A481749091F0968C1F38811A0FBCD
:1027A00001700146224600233846FDF76DFD0546BF
:1027B0000EE011480F49091F0968C1F38811A0FBF9
:1027C00001700146224600233846FDF75DFD0546AF
:1027D0000848001F0068C0F30140401C4600B5FBDC
:1027E000F6F902E0DFF8109000BF00BF4846BDE8F0
:1027F000F0870000083802400024F40000127A003C
:10280000F8B504460CB90120F8BD207800F00100AD
:10281000002874D0F948006800F00C0004280DD09E
:10282000F648006800F00C00082813D1F348001F98
:10283000006800F48000B0F5800F0BD1EF48083835
:102840000068C0F34040002859D06068002856D185
:102850000120D9E700BF6068B0F5803F08D1E748A4
:102860000838006840F48030E449083908601EE008
:102870006068B0F5A02F0DD1E0480838006840F43A
:102880008020DE49083908600846006840F480303E
:1028900008600CE0D9480838006820F48030D74937
:1028A000083908600846006820F48020086000BFEE
:1028B000606890B1FFF7A0FB054606E0FFF79CFBC0
:1028C000401B642801D903209EE7CC4808380068E3
:1028D000C0F340400028F1D011E0FFF78DFB054622
:1028E00006E0FFF789FB401B642801D903208BE732
:1028F000C24808380068C0F340400028F1D1207871
:1029000000F0020002285FD1BC48006800F00C0013
:1029100058B1BA48006800F00C0008281CD1B7482C
:10292000001F006800F48000B0B9B448083800689F
:10293000C0F3400020B1E068012801D0012063E726
:10294000AE480838006820F0F800216940EAC1006C
:10295000AA490839086037E0E06800B30120A849B7
:102960000860FFF749FB054606E0FFF745FB401B03
:10297000022801D9032047E7A04808380068C0F3BF
:1029800040000028F1D09D480838006820F0F80089
:10299000216940EAC10099490839086014E0002023
:1029A00097490860FFF728FB054606E0FFF724FB80
:1029B000401B022801D9032026E790480838006808
:1029C000C0F340000028F1D1207800F0080008286A
:1029D0002CD16069A8B101208A490860FFF70CFB7F
:1029E000054606E0FFF708FB401B022801D903203B
:1029F0000AE782486C300068C0F340000028F1D03C
:102A000014E000207F490860FFF7F6FA054606E06B
:102A1000FFF7F2FA401B022801D90320F4E67748B9
:102A20006C300068C0F340000028F1D1207800F03D
:102A30000400042870D1002770483830006800F086
:102A4000805090B900BF002000906C48383000687A
:102A500040F080506949383108600846006800F04D
:102A60008050009000BF00BF01276748006800F455
:102A70008070B0B96448006840F4807062490860B2
:102A8000FFF7BAFA054606E0FFF7B6FA401B022840
:102A900001D90320B8E65C48006800F48070002883
:102AA000F2D000BFA068012808D1544868300068FF
:102AB00040F001005149683108601DE0A068052818
:102AC0000DD14E486830006840F004004B49683131
:102AD00008600846006840F0010008600CE04748C4
:102AE0006830006820F001004449683108600846F9
:102AF000006820F00400086000BFA068A8B1FFF7DC
:102B00007BFA054609E0FFF777FA401B41F288316E
:102B1000884202D9032077E626E03848683000680A
:102B2000C0F340000028EED013E0FFF765FA054639
:102B300008E0FFF761FA401B41F28831884201D971
:102B4000032061E62D4868300068C0F3400000288B
:102B5000EFD1012F07D129483830006820F080508C
:102B600026493831086000BFA069002845D02348B5
:102B7000006800F00C0008285DD0A069022845D14B
:102B800000201F490866FFF737FA054606E0FFF701
:102B900033FA401B022801D9032035E617480838CC
:102BA0000068C0F340600028F1D1D4E90701084370
:102BB000616A40EA81110122A06AC2EB500041EA39
:102BC00000412C20005D41EA00600C49091F0860AB
:102BD00001200B490866FFF70FFA054606E0FFF7EC
:102BE0000BFA401B022801D903200DE603480838E0
:102BF0000068C0F340600028F1D049E00838024086
:102C000000004742800E47420070004000202149EA
:102C10000866FFF7F1F9054606E0FFF7EDF9401BFE
:102C2000022801D90320EFE51B480068C0F340608B
:102C30000028F2D12CE0A069012800D1E4E5164873
:102C4000001D0668A069012820D006F48001E06913
:102C500081421BD106F03F01206A814216D147F61E
:102C6000C0703040616AB0EB811F0FD106F4403173
:102C70000122A06AC2EB5000B1EB004F06D106F072
:102C800070612C20005DB1EB006F01D00120BBE52D
:102C90000020B9E5000047420038024010B5044664
:102CA0000CB9012010BD606A38B96068B0F5827F48
:102CB00000D105E00021E16102E0002121616161B4
:102CC0000021A16294F8510028B9002084F8500036
:102CD000204600F047F8022084F851002068006880
:102CE00020F0400021680860A08800F482702189EB
:102CF00001F404410843A18901F400610843217CE7
:102D000001F002010843217D01F001010843218BFC
:102D100001F400710843217F01F0380108432021AC
:102D2000095D01F080010843218D01F40051084341
:102D3000216808600421A06901EA104094F8241079
:102D400001F010010843216848602068C06920F440
:102D500000602168C86100206065012084F851008E
:102D600000209FE710B586B00446142101A8FDF7A6
:102D7000CBFC1B49206888422FD100BF0020009067
:102D80001848006840F480501649086008460068FA
:102D900000F48050009000BF00BF00BF00200090F2
:102DA00010481438006840F001000E4914390860DA
:102DB0000846006800F00100009000BF00BFE0205E
:102DC000019002200290002003900320049005202F
:102DD000059001A90448FFF707F806B010BD0000F0
:102DE0000030014044380240000002402DE9FE4F0F
:102DF00004460F4690461D460C9E01200190FFF7A9
:102E0000FBF8814694F851B060680290AA46BBF185
:102E1000010F0BD00298B0F5827F04D1A06810B9E1
:102E2000BBF1040F02D00220BDE8FE8F1FB1B8F144
:102E3000000F00D00DB90120F6E700BF94F8500054
:102E4000012801D10220EFE7012084F8500000BFE3
:102E500094F85100042802D0052084F85100002085
:102E60006065C4F83880E587A5872763E586A58671
:102E7000206460642068006800F04000402805D0AD
:102E80002068006840F0400021680860E068B0F504
:102E9000006F52D1606810B1BAF1010F09D1206BF7
:102EA00000882168C860206B801C2063E08E401E73
:102EB000E0863BE02068806800F00200022810D124
:102EC000E08E70B1019801280BD1206B0088216839
:102ED000C860206B801C2063E08E401EE0860020CE
:102EE00001902068806800F0010068B1E08F58B15F
:102EF0002068C068A16B0880A06B801CA063E08F75
:102F0000401EE08701200190FFF776F8A0EB090052
:102F1000B0420BD3701C48B1012084F8510000BFAF
:102F2000002084F8500000BF03207DE7E08E0028D9
:102F3000C0D1E08F0028BDD152E0606810B1BAF175
:102F4000010F09D1206B007821680873206B401CA9
:102F50002063E08E401EE0863CE02068806800F040
:102F60000200022810D1E08E70B1019801280BD127
:102F7000206B007821680873206B401C2063E08E72
:102F8000401EE086002001902068806800F001006B
:102F900068B1E08F58B12068C068A16B0870A06B61
:102FA000401CA063E08F401EE08701200190FFF7E6
:102FB00023F8A0EB0900B04201D3701C00B94EB950
:102FC000012084F8510000BF002084F8500000BFA9
:102FD000032029E7E08E0028BFD1E08F0028BCD174
:102FE0004A463146204602F085F940B1202060650E
:102FF00000BF002084F8500000BF012014E7A06843
:1030000050B900BF002000902068C0680090206880
:103010008068009000BF00BF012084F8510000BF0D
:10302000002084F8500000BF606D08B10120FBE66D
:103030000020F9E670B504462546681EB0F1807F91
:1030400001D301200FE0681E4FF0E02148610F21FD
:103050004FF0FF3003F03EF900204FF0E02188618F
:1030600007200861002070BD7047704730B50246E8
:103070000B4600BF92F83C00012801D1022030BD70
:10308000012082F83C0000BF022082F83D00106859
:1030900044681068816824F070041868044310685C
:1030A0004460184D1068A8421BD01068B0F1804FE2
:1030B00017D0154D1068A84213D0144D1068A842BF
:1030C0000FD0134D1068A8420BD0124D1068A842C3
:1030D00007D0114D1068A84203D0104D1068A842C7
:1030E00005D121F0800158680143106881600120FA
:1030F00082F83D0000BF002082F83C0000BF00BF06
:10310000BDE700000000014000040040000800404E
:10311000000C004000040140004001400018004045
:1031200010B504460CB9012010BD94F83D0028B933
:10313000002084F83C00204600F026F8022084F8A5
:103140003D00211D206802F0F7F9012084F84600B7
:1031500000BF84F83E0001213F2001554020015569
:103160004120015500BF00BF012084F842004320E8
:103170000155442001554520015500BF012084F828
:103180003D000020D0E7000038B504462068B0F1CB
:10319000804F17D100BF002000900B48006840F01E
:1031A0000100094908600846006800F0010000902D
:1031B00000BF00BF002211461C20FFF78FF91C2022
:1031C000FFF778F938BD000040380240014691F819
:1031D0003D00012801D001207047022081F83D0008
:1031E0000868C06840F001000B68D8601A4B086896
:1031F00098421BD00868B0F1804F17D0174B086871
:10320000984213D0164B086898420FD0154B0868A7
:1032100098420BD0144B0868984207D0134B0868AB
:10322000984203D0124B086898420CD10868806815
:1032300000F00702062A0CD00868006840F0010080
:103240000B68186005E00868006840F001000B6832
:1032500018600020C0E700000000014000040040AA
:1032600000080040000C0040000401400040014004
:10327000001800402DE9F04104460D46002700BF2C
:1032800094F83C00012802D10220BDE8F081012021
:1032900084F83C0000BF022084F83D002068866866
:1032A00026F0770626F47F46206886602868502836
:1032B00033D00CDC202850D004DC00284BD0102860
:1032C00051D149E0302849D040284CD139E060281C
:1032D0002DD0702807D0B0F5805F03D0B0F5005F27
:1032E00041D10DE041E0D5E902136A68206802F09F
:1032F00093F92068866846F077062068866034E097
:10330000D5E902136A68206802F086F920688068AF
:1033100040F480402168886027E0EA686968206896
:1033200002F08EF95021206802F081F91DE0EA6870
:103330006968206802F097F96021206802F077F947
:1033400013E0EA686968206802F07AF94021206891
:1033500002F06DF909E000BF00BF00BF29682068D6
:1033600002F065F901E0012700BF00BF012084F8E9
:103370003D0000BF002084F83C0000BF384684E7D1
:10338000704770B504462068C5682068066906F075
:103390000200022819D105F00200022815D1401FB1
:1033A00021680861012020772068806900F003000F
:1033B00018B12046FFF7E4FF05E0204600F097F83B
:1033C000204600F095F80020207706F0040004283D
:1033D00019D105F00400042815D1C0432168086103
:1033E000022020772068806900F4407018B12046E0
:1033F000FFF7C6FF05E0204600F079F8204600F010
:1034000077F80020207706F00800082819D105F089
:103410000800082815D1C0432168086104202077DE
:103420002068C06900F0030018B12046FFF7A8FF2C
:1034300005E0204600F05BF8204600F059F8002037
:10344000207706F01000102819D105F01000102880
:1034500015D1C04321680861082020772068C06921
:1034600000F4407018B12046FFF78AFF05E02046BF
:1034700000F03DF8204600F03BF80020207706F0F1
:10348000010048B105F0010030B16FF00100216882
:103490000861204600F02EF806F08000802809D14F
:1034A00005F08000802805D1C043216808612046CE
:1034B000FFF7DAFD06F04000402809D105F0400092
:1034C000402805D1C04321680861204600F05EF81D
:1034D00006F02000202809D105F02000202805D181
:1034E000C043216808612046FFF7BFFD70BD7047EB
:1034F0007047000070B504461C492068096888427E
:1035000033D11B48007898B11A480088401C80B21B
:103510001849088040F2EE21884209DB0120164953
:103520000870002015490870114908701149088079
:103530001348007868B1134801F014FD1148FDF7F5
:103540005DF8054629460F48FDF7BCF800200C49F8
:1035500008700D480078401CC0B20B4908700A285A
:1035600003DB02F019FC01F0A1FE70BD7C0100201C
:103570002A00002026000020580000205B000020C8
:1035800029000020FD180020240000207047F8B515
:1035900004460D46164694F8420020282DD105B168
:1035A0000EB90120F8BD012020630020606332467F
:1035B0002946204602F0FEFA0746206B012819D161
:1035C00000BF0020009020680068009020684068DC
:1035D000009000BF00BF00BF00BF21680C3151E860
:1035E000001F41F0100021680C3141E80002002A60
:1035F000F3D100E001273846D4E70220D2E70000EB
:1036000070B504460D463249206888421CD12046D8
:1036100000F084F82A462F492F48FDF70EF80120C4
:103620002E49087040212B48FDF74CF840222949CB
:103630002B48FFF7ACFF2B480068006820F008001B
:1036400028490968086042E02749206888421CD15F
:10365000204600F063F82A4624492548FCF7EDFF90
:1036600001202449087040212048FDF72BF8402212
:103670001E492148FFF78BFF20480068006820F0B2
:1036800008001E490968086021E01D492068884239
:103690001DD1204600F042F82A461A491A48FCF784
:1036A000CCFF1A490D7001201949087040211548B6
:1036B000FDF708F8402213491648FFF768FF16483F
:1036C0000068006820F0080013490968086070BDB0
:1036D000004400403D1800207D18002028000020F4
:1036E0000C020020FC020020004C0040BD1800200D
:1036F000FD18002029000020C40100209C020020A9
:10370000001401403D1900207D1900202D000020EB
:103710002C000020540200205C03002070B50446F9
:10372000002520684069C0F3C01594F841002128A5
:1037300017D1B5B100BF00BF2168143151E8001F97
:1037400021F080002168143141E80002002AF3D101
:1037500000BFA06B10B1A06BFEF7E7F8204602F0A7
:1037600082F820684069C0F3801594F8420022284E
:1037700017D1B5B100BF00BF2168143151E8001F57
:1037800021F040002168143141E80002002AF3D101
:1037900000BFE06B10B1E06BFEF7C7F8204602F007
:1037A0001CF8002070BD70472DE9F84F04462068D2
:1037B00005682068C668206847694FF00009CA4656
:1037C00005F00F09B9F1000F0AD105F0200038B15A
:1037D00006F0200020B1204602F058F8BDE8F88F2E
:1037E000B9F1000F7CD007F0010018B906F4907011
:1037F000002875D005F0010030B106F4807018B1D2
:10380000606C40F00100606405F0040030B107F026
:10381000010018B1606C40F00200606405F0020025
:1038200030B107F0010018B1606C40F00400606432
:1038300005F0080048B106F0200010B907F00100BB
:1038400018B1606C40F008006064606C002846D0DD
:1038500005F0200028B106F0200010B1204602F04B
:1038600015F820684069C0F3801A606C00F0080009
:1038700010B9BAF1000F2DD0204601F0AEFF20683C
:10388000406900F04000402820D100BF00BF2168FF
:10389000143151E8001F21F040002168143141E843
:1038A0000002002AF3D100BFE06B50B17F48E16B0A
:1038B0000865E06BFEF78FF888B1E06B016D884713
:1038C0000DE02046FFF76FFF09E009E02046FFF713
:1038D0006AFF04E02046FFF766FF002060647DE792
:1038E000206B012878D105F01000002874D006F074
:1038F00010000028FAD000BF002000902068006867
:10390000009020684068009000BF00BF20684069B8
:1039100000F04000402870D1E06B006840681FFA5A
:1039200080F8B8F1000F58D0A08D404555DDA4F8BF
:103930002E80E06BC069B0F5807F43D000BF00BF30
:1039400021680C3151E8001F21F4807021680C318E
:1039500041E80002002AF3D100BF00BF00BF216888
:10396000143151E8001F21F001002168143141E8B1
:103970000002002AF3D100BF00BF00BF216814314C
:1039800051E8001F21F040002168143141E8000295
:10399000002AF3D100BF202084F8420000202063D9
:1039A00000BF00BF21680C3151E8001F21F010005A
:1039B00021680C3141E80002002AF3D100BFE06B1E
:1039C000FDF7B3FF02206063A08DE28D801A81B203
:1039D0002046FFF715FE0EE052E0A08D40450AD1CB
:1039E000E06BC069B0F5807F05D102206063A18DD6
:1039F0002046FFF705FEF1E6FFE7A08DE18D401AB6
:103A00001FFA80F8E08DD0B3B8F1000F37D000BFB7
:103A100000BF21680C3151E8001F21F4907021682B
:103A20000C3141E80002002AF3D100BF00BF00BF03
:103A30002168143151E8001F21F001002168143180
:103A400041E80002002AF3D100BF202084F84200A0
:103A50000020206300BF00BF21680C3151E8001F27
:103A600021F0100021680C3141E80002002AF3D156
:103A700000BF0220606341462046FFF7C1FDADE66E
:103A800005F0800030B106F0800018B1204602F049
:103A9000FDF8A3E605F0400030B106F0400018B193
:103AA000204601F0D0FE99E600BF97E6A156000837
:103AB00010B504460CB9012010BDA06900B100E0AA
:103AC00000BF94F8410028B9002084F84000204647
:103AD00000F02AF8242084F841002068C06820F40F
:103AE00000502168C860204601F04EFF2068006940
:103AF00020F49040216808612068406920F02A0085
:103B0000216848612068C06840F400502168C8609E
:103B100000206064202084F8410084F842000020E6
:103B2000606300BFC8E7000010B586B004461421EA
:103B300001A8FCF7E9FD88492068884254D100BFFC
:103B4000002000908548006840F400208349086008
:103B50000846006800F40020009000BF00BF00BFCE
:103B6000002000907D481038006840F001007B493B
:103B7000103908600846006800F00100009000BF9E
:103B800000BF032001900220029000200390032038
:103B900004900820059001A97148FEF725F97148A5
:103BA000714908604005486000216F488160C1602C
:103BB0004FF480610161002141618161C161016255
:103BC0004162FEF73DF808B1FDF7ACFE00BF664864
:103BD000E063846300BF002202213420FEF77EFCF4
:103BE0003420FEF767FCB4E060492068884256D173
:103BF00000BF002000905948006840F40030574949
:103C000008600846006800F40030009000BF00BF64
:103C100000BF0020009051481038006840F00100BB
:103C20004E49103908600846006800F00100009015
:103C300000BF00BF0C2001900220029000200390E2
:103C4000032004900720059001A94548FEF7CCF811
:103C500044484830464908604FF000604860002101
:103C600043488160C1604FF480610161002141617E
:103C70008161C16101624162FDF7E2FF08B1FDF7B8
:103C800051FE00BF3A48E063846300BF0022022176
:103C90002620FEF723FC2620FEF70CFC59E03549D0
:103CA0002068884255D100BF002000902B48001D9D
:103CB000006840F020002949091D08600846006896
:103CC00000F02000009000BF00BF00BF0020009067
:103CD00022481038006840F004002049103908607C
:103CE0000846006800F00400009000BF00BFC0203C
:103CF00001900220029000200390032004900820ED
:103D0000059001A91C48FEF76FF81C481C49086083
:103D10008005486000211A488160C1604FF48061CD
:103D20000161002141618161C16101624162FDF770
:103D300087FF08B1FDF7F6FD00BF1148E06384631B
:103D400000BF002201214720FEF7C8FB4720FEF7F5
:103D5000B1FB06B010BD0000004C004040380240EE
:103D600000000240406002409C02002000440040ED
:103D7000FC020020001401400008024028640240B8
:103D80005C030020704770472DE9F84F04460E464B
:103D9000174699464FF0000A94F84100202850D168
:103DA00006B117B90120BDE8F88F0020606421201A
:103DB00084F84100FEF720F98246A784E784A068D2
:103DC000B0F5805F04D1206910B90025B04602E04B
:103DD00035464FF000081EE0534600228021204661
:103DE000CDF8009001F082FF20B1202084F841003E
:103DF0000320D8E745B9B8F80000C0F308002168EF
:103E0000486008F1020803E02878216848606D1CCA
:103E1000E08C401EE084E08C0028DDD15346002277
:103E200040212046CDF8009001F060FF20B1202015
:103E300084F841000320B6E7202084F841000020E8
:103E4000B1E70220AFE7704700BFFEE70146086810
:103E50004069C0F38020B0B16FF480600A6850619F
:103E600000200863202081F83D00002081F83E00FA
:103E7000086C40F00400086400BF002081F83C009A
:103E800000BF012070470020FCE700002DE9F84347
:103E900004460D4617469846E66A082E04D0012EC1
:103EA00002D016F5803F06D12068006840F480708B
:103EB0002168086008E0206B122805D1206800689E
:103EC00040F48070216808603B4600224FF00111E9
:103ED0002046CDF8008000F06CF860B120680068E2
:103EE00000F48070B0F5807F02D14FF40070206440
:103EF0000320BDE8F8832069B0F5804F04D105F0B8
:103F0000FE002168086112E005F44070F02141EAEA
:103F1000E0102168086143463A460B49204600F00C
:103F2000A7F808B10120E4E7E8B221680861434638
:103F30003A460549891F204600F09AF808B1012049
:103F4000D7E70020D5E700000800010070B504465F
:103F50000D46164625E02046FFF778FF08B1012000
:103F600070BD681CE8B1FEF747F8801BA84200D876
:103F7000BDB920684069C0F3800090B9002020637B
:103F8000202084F83D00002084F83E00206C40F0A2
:103F90002000206400BF002084F83C0000BF012006
:103FA000DEE720684069C0F380000028D3D00020FD
:103FB000D6E72DE9F04104460D4617461E46DDF8CA
:103FC000188038E0701CA8B3FEF716F8A0EB0800C4
:103FD000B04200D876BBC5F3074001280AD120685B
:103FE0004069A9B20840A9B2884201D101200BE082
:103FF000002009E020688069A9B20840A9B288427F
:1040000001D1012000E00020B84214D1002020633B
:10401000202084F83D00002084F83E00206C40F011
:104020002000206400BF002084F83C0000BF012075
:10403000BDE8F081FFE7C5F3074001280AD12068F9
:104040004069A9B20840A9B2884201D101200BE021
:10405000002009E020688069A9B20840A9B288421E
:1040600001D1012000E00020B842ABD00020DFE702
:104070002DE9F04104460D4616461F4658E02068DB
:104080004069C0F38020E8B12068006840F4007007
:10409000216808606FF48060216848610020206317
:1040A000202084F83D00002084F83E00206C40F081
:1040B0000400206400BF002084F83C0000BF012001
:1040C000BDE8F081701C90B3FDF796FFC01BB042B5
:1040D00000D866BBC5F3074001280AD120684069B3
:1040E000A9B20840A9B2884201D101200BE000200A
:1040F00009E020688069A9B20840A9B2884201D1CC
:10410000012000E0002090B900202063202084F8E6
:104110003D00002084F83E00206C40F02000206428
:1041200000BF002084F83C0000BF0120C8E7FFE783
:10413000C5F3074001280AD120684069A9B20840A8
:10414000A9B2884201D101200BE0002009E02068DB
:104150008069A9B20840A9B2884201D1012000E0DB
:10416000002000288BD00020AAE770B504460D4639
:10417000164625E02046FFF769FE08B1012070BD14
:10418000681CE8B1FDF738FF801BA84200D8BDB914
:1041900020684069C0F3C01090B90020206320203F
:1041A00084F83D00002084F83E00206C40F02000A0
:1041B000206400BF002084F83C0000BF0120DEE73F
:1041C00020684069C0F3C0100028D3D00020D6E793
:1041D00010B5002401210948FDF700FF00B90124B2
:1041E00002210648FDF7FAFE00B902240421034823
:1041F000FDF7F4FE00B90324204610BD0010024074
:1042000010B5FFF7E5FF1A4908700846007819490C
:104210000978484016490978084017490870144839
:1042200000781449097848401149097888431349AE
:1042300008700F4800780F4908700F48007818B1CF
:104240000D48007800F0A0FA0B48007803280DD143
:104250000B48808882B20A48008881B2002001F0B1
:1042600077FF084A911E002001F06EFE10BD00008D
:10427000A5000020A7000020A4000020A600002028
:10428000B0000020C600002008B500BF002000904C
:104290001A48006840F40010184908600846006891
:1042A00000F40010009000BF00BF00BF002000908D
:1042B0000846006840F4800008600846006800F482
:1042C0008000009000BF00BF002211460D20FEF7C5
:1042D00005F90D20FEF7EEF8002211461020FEF73A
:1042E000FDF81020FEF7E6F8002211463920FEF70F
:1042F000F5F83920FEF7DEF808BD0000303802403E
:1043000000B587B0142102A8FCF7FEF900BF002019
:1043100001904348006840F0100041490860084699
:10432000006800F01000019000BF00BF00BF002037
:1043300001900846006840F00400086008460068E4
:1043400000F00400019000BF00BF00BF00200190FA
:104350000846006840F0800008600846006800F0E9
:104360008000019000BF00BF00BF00200190084600
:10437000006840F0010008600846006800F0010095
:10438000019000BF00BF00BF0020019008460068F8
:1043900040F0020008600846006800F0020001904A
:1043A00000BF00BF002210211E48FDF71FFE0022A3
:1043B0004FF400711C48FDF719FE07200290002001
:1043C00003900120049002A91848FDF70DFD10206C
:1043D00002900120039000200490059002A911484A
:1043E000FDF702FD4FF400700290012003900020C1
:1043F0000490059002A90C48FDF7F6FC4FF4C0604C
:1044000002900220039000200490032005900720D2
:10441000069002A90348FDF7E7FC07B000BD0000C5
:104420003038024000000240000802400010024004
:1044300010B50B480B4908600B484860002109483B
:104440008160C1604FF4804101610021416181615F
:10445000C1610162FDF7D6FD08B1FDF763FA10BD39
:1044600000580040D0000020A086010010B50E4882
:104470000E4908604FF48270486000210B4881604B
:10448000C160016141614FF4007181610021C1612E
:104490000162416281620A21C162FEF7FFFB08B13D
:1044A000FDF740FA10BD000000300140240100205B
:1044B00000B587B00020039004900590069001900D
:1044C00002904FF080401449086029204860002184
:1044D0001148816040F2E731C16000210161802113
:1044E0008161FEF71DFE08B1FDF71CFA4FF4805004
:1044F000039003A90848FEF7BDFE08B1FDF712FAC4
:1045000000200190029001A90348FEF7AFFD08B119
:10451000FDF708FA07B000BD7C01002010B50B487C
:104520000B4908604FF4E130486000210848816081
:10453000C16001610C21416100218161C161FFF70E
:10454000B7FA08B1FDF7EEF910BD0000004C0040CD
:10455000C401002010B50B480B4908604FF4E1304E
:104560004860002108488160C16001610C214161FF
:1045700000218161C161FFF79BFA08B1FDF7D2F913
:1045800010BD0000004400400C02002010B50B4894
:104590000B4908604FF4E130486000210848816011
:1045A000C16001610C21416100218161C161FFF79E
:1045B0007FFA08B1FDF7B6F910BD00000014014004
:1045C0005402002000BFFEE7F0B505AC70CC0160DE
:1045D0000271836044610561C6600027C76187611D
:1045E0009FED020A80ED080AF0BD0000CDCCCC3D65
:1045F0000EB53F48002100910B460A46CDE9011057
:104600003CA14048FFF7E0FF3F48404900223D4BB6
:10461000CDE9002102903EA13548FFF7D5FF404883
:104620004049334A374BCDE90021029000223EA198
:104630003648FFF7C9FF0020344ACDE90020314B4E
:1046400002463DA102903748FFF7BEFF00203E49D9
:10465000CDE90001264B01223CA102902A48FFF738
:10466000B3FF3C482849C861B7EE000A084680ED10
:10467000080A00203849244A1D4BCDE90021029048
:10468000012236A13048FFF79FFF3248001D2E4916
:10469000C8619FED340A084680ED080A00200A46EA
:1046A000CDE90020124B01222FA102902A48FFF7EA
:1046B0008BFF284808302849C8619FED2D0A08461D
:1046C00080ED080A002000900190104B012229A1E2
:1046D00002901348FFF778FF29481149C861B7EEE7
:1046E000000A084680ED080A0148264908600EBD08
:1046F000981A002020205B4D656E7520526F6F74F4
:104700005D000000741A0020041B0020E01A002045
:1047100020312E5049442054756E696E67000000A8
:10472000701B0020BC1A002020322E5379732043C6
:104730006F6E74726F6C000020332E43616C69627F
:104740007261746500000000281B002020585F4B38
:1047500070000000680000204C1B002020585F4BB8
:10476000690000000AD7233C20585F4B640000001A
:10477000CDCCCC3D2052756E204D6F64650000009D
:104780005B000020C800002010B5044604B910BD2D
:104790003B48007800283AD1012C04D0022C0CD0E0
:1047A000032C33D128E037480068006920B1354830
:1047B000006800693349086028E0324800680079E1
:1047C00048B930480068C06828B12E480068C06801
:1047D0002C4908600FE02B4800680079012802D1BD
:1047E0002749087007E027480068806918B1254903
:1047F00009688869804709E022480068806820B11C
:104800002048006880681F49086000BF35E0012C1F
:1048100004D0022C2CD0032C2ED114E019480068AF
:10482000C06978B117480068C06990ED000A154862
:104830000068D0ED080A30EE200A12480068C0690E
:1048400080ED000A18E00F480068C06978B10D4893
:104850000068C06990ED000A0A480068D0ED080AB7
:1048600030EE600A07480068C06980ED000A03E086
:1048700000200349087000BF00BF00BF87E70000A9
:10488000CC000020C800002000B52DED028B89B0BF
:104890000020434B43A20146009000F0B2F9464885
:1048A000007838B100203E4B44A21421009000F063
:1048B000A8F906E000203A4B43A21421009000F032
:1048C000A0F90120009043480068354B242102687C
:1048D000002000F096F93F4800680079012834D1A3
:1048E0003C480068C06978B33348007890B13948D3
:1048F0000068C06990ED000A10EE101A084601F039
:10490000BBFE41EC180B53EC182B33A101A8FBF7AD
:1049100033FD11E02F480068C06990ED000A10EEE9
:10492000101A084601F0A8FE41EC180B53EC182BA6
:104930002CA101A8FBF720FD0020194B01AA322170
:10494000009000F05EF924E0FFE72248006800795B
:10495000F8B9204800682649884204D01D480068FC
:10496000244988420ED12448436824A1026801A842
:10497000FBF702FD00200A4B01AA3221009000F053
:1049800040F906E00020064B1FA23221009000F003
:1049900038F900F0C1FA09B0BDEC028B00BD00008F
:1049A000008200082D2D2D204D454E552053595382
:1049B00054454D202D2D2D00CC0000203E20456477
:1049C0006974696E673A00002053656C6563743AD8
:1049D00000000000C800002056414C3A205B252E04
:1049E00032665D0056414C3A20252E3266000000AA
:1049F000981A0020E01A0020A8000020583A2564E8
:104A000020593A25640000005B5375622D666F6C77
:104A10006465722E2E2E5D0010B52DED028B82B0D6
:104A20000446B0EE408AB5EEC08AF1EE10FA11D21B
:104A3000B1EE480AB0EE408A00200090BCEEC80AF1
:104A4000019010EE100A83B2012211462046FCF7B5
:104A50003EFF0CE000200090BCEEC80A019010EE72
:104A6000100A83B2002201212046FCF730FF02B079
:104A7000BDEC028B10BD000010B50948FEF7A6FB87
:104A800000BF40F2CF7006490968C8620146044879
:104A9000C16000BF002002490968486210BD0000E3
:104AA0007C01002010B540220C490D48FEF76FFD37
:104AB0000C480068006820F008000A49096808608E
:104AC000402209490948FEF762FD0948006800686C
:104AD00020F0080006490968086010BDBD180020D4
:104AE000C40100209C0200203D1900205402002037
:104AF0005C03002000BFFEE710B5AE2000F002F915
:104B0000202000F0FFF8102000F0FCF8B02000F0AA
:104B1000F9F8C82000F0F6F8002000F0F3F81020B3
:104B200000F0F0F8402000F0EDF8812000F0EAF805
:104B3000DF2000F0E7F8A12000F0E4F8A62000F064
:104B4000E1F8A82000F0DEF83F2000F0DBF8A42018
:104B500000F0D8F8D32000F0D5F8002000F0D2F80B
:104B6000D52000F0CFF8F02000F0CCF8D92000F0EC
:104B7000C9F8222000F0C6F8DA2000F0C3F81220AD
:104B800000F0C0F8DB2000F0BDF8202000F0BAF8FB
:104B90008D2000F0B7F8142000F0B4F800F006F80B
:104BA00000F0BAF9AF2000F0ADF810BD10B54FF429
:104BB00080610248FBF786FD10BD0000BC030020A9
:104BC0002DE9FC430746884615461C46DDF824902F
:104BD0002078CDE900092078C61DF01706EB50704B
:104BE000C010617810FB01F1A5F12000D4F804C0D9
:104BF00000FB01C263784146384600F002F9BDE887
:104C0000FC832DE9FF4F85B0804617461C46DDF832
:104C1000489000262178C81DC11700EB5171C910BA
:104C2000627811FB02F1091DC9B2049152E0002023
:104C30000390B81901F010FB054605B94DE04FF09F
:104C4000000B20E0616804980BFB001AB8192A4693
:104C50005146FBF7A7FC90B92078CDE900096378AD
:104C60000AF104024046069900F0CBF8607840440F
:104C700000F0FF08701986B20120039006E00BF1E6
:104C8000010000F0FF0B207A5845DBDC00BF0398E1
:104C900000BB012D0FD1CDF80090BA5DE36840460E
:104CA0000699FFF78DFFE0684078404400F0FF0868
:104CB000701986B20EE0CDF800902022E3684046DD
:104CC0000699FFF77DFFE0684078404400F0FF0858
:104CD000701986B2B85D0028A9D100BF09B0BDE83F
:104CE000F08F000038B504460D464FF0FF302B46DC
:104CF0002246782100900248FDF76CFA38BD00008A
:104D0000D000002010B50446024844700221FFF78D
:104D1000E9FF10BD000000202DE9FC4380460C4651
:104D200016461F462046E11704EB5171C1F3C7092F
:104D30002046E11704EB5171C910A4EBC101CDB2BB
:104D40000720CDE9000706FA05F0C2B22B4641461E
:104D5000484600F0A3F875B1681EC0B2C5F108015D
:104D600046FA01F209F10101CDE90007C8B20023BA
:104D7000414600F093F8BDE8FC832DE9FC478146ED
:104D80000C4616461F46DDF828802046E11704EB46
:104D90005171C1F3C70A2046E11704EB5171C910E4
:104DA000A4EBC101CDB2E81908281BDD0720CDE92D
:104DB000000806FA05F0C2B22B464946504600F0FC
:104DC0006DF878190938C0B2C5F1080146FA01F248
:104DD0000AF10101CDE90008C8B20023494600F0FC
:104DE0005DF80CE0E819401EC0B2CDE9000806FAF3
:104DF00005F0C2B22B464946504600F04FF8BDE8D8
:104E0000FC872DE9FC4F81468A4693461D460B9C44
:104E10002046E11704EB5171C1F3C707E11704EB1A
:104E20005171C910A4EBC101C9B201914FF0000842
:104E300016E000260EE006FB05831BF803200AEBB4
:104E4000C603D9B209EB0803D8B20C9BFFF764FF85
:104E5000701CC6B2BE42EEDB08F1010000F0FF0894
:104E6000A845E6DB0198B8B105FB07F8002610E07D
:104E70000C9808EB060300901BF803200AEBC7030D
:104E8000D9B209EB0603D8B2019BFFF776FF701C7D
:104E9000C6B2AE42ECDB00BFBDE8FC8FF0B5DDE989
:104EA0000545082801DA802900DBF0BD0DB1D643A5
:104EB000F2B2661CFF2707FA06F61643C3F1080C88
:104EC00047FA0CF73E43124F3E70124E06EBC016E7
:104ED000765C3F783E400F4F07EBC0177E54661C50
:104EE000FF27B74022EA0706C3F1080CFF2747FA5D
:104EF0000CF7BE43064F3E70064E06EBC016765CBE
:104F00003F783E43034F07EBC0177E5400BFCCE70A
:104F100002000020BC03002010B540200F4908709B
:104F2000002418E004F1B001C8B2FFF7EBFE002046
:104F3000FFF7E8FE1020FFF7E5FE094800EBC4117B
:104F400080220648401CFBF778FB81210348FFF7CD
:104F5000C9FE601CC4B2082CE4DB10BDBC070020F5
:104F6000BC0300200178312920DB017839291DDCC0
:104F7000017830390E4A117001210E4A11700C4926
:104F8000097801290BD00A490978042907D0084972
:104F90000978052903D006490978082903D1022197
:104FA000054A117002E00321034A117070470000A6
:104FB0002B0000202A0000205B000020704700002A
:104FC00010B52448D0ED042AB0EE622AD0ED032AB1
:104FD000F0EE621AD0ED022AB0EE621AD0ED012A8C
:104FE000F0EE620AD0ED002AB0EE620A1A4801F033
:104FF000A7FA1A48D0ED042AB0EE622AD0ED032AAF
:10500000F0EE621AD0ED022AB0EE621AD0ED012A5B
:10501000F0EE620AD0ED002AB0EE620A104801F00C
:105020008FFA1048D0ED042AB0EE622AD0ED032AA0
:10503000F0EE621AD0ED022AB0EE621AD0ED012A2B
:10504000F0EE620AD0ED002AB0EE620A064801F0E6
:1050500077FA10BD68000020C01900207C000020F5
:10506000FC19002090000020381A002010B52648B6
:10507000006826490968401A002805DD22480068B2
:1050800022490968401A04E0204800681E4909685E
:10509000401A042817DC1E480088401C1C49088060
:1050A00008460088502811DB1A48007838B90122D8
:1050B00051021948FCF79AFF012016490870002098
:1050C0001349088002E00020114908800E48D0ED05
:1050D000000AF8EEE00AB0EE600A104801F07AFA31
:1050E0000A48D0ED000AF8EEE00AB0EE600A0B487C
:1050F00001F0D6F90A4880ED000A90ED000A09484F
:10510000FFF78AFC10BD0000B8000020A8000020B6
:10511000640000205A00002000080240C01900204E
:105120005C0000200C0200201CB53048006810B163
:105130002E48406860B9002000901E2302460121DD
:1051400001902B48FCF7C3FB00202A4908801CBDB6
:105150002948006825490968401A002805DD2648C5
:10516000006822490968401A04E020480068224982
:105170000968401A042817DC1E480088401C1D4995
:10518000088008460088962811DB1C48007838B94A
:10519000012251021A48FCF729FF01201749087023
:1051A00000201449088002E00020124908801248BB
:1051B000D0ED000AF8EEE00AB0EE600A114801F006
:1051C00009FA0A48D0ED000AF8EEE00AB0EE600AEB
:1051D0000C4801F065F90C4880ED000A90ED000ADA
:1051E0000348FFF719FC00BFB1E70000A80000204A
:1051F0000C02002064000020B80000205A000020AB
:1052000000080240C01900205C00002010B50E48C4
:10521000D0ED000AF8EEE00AB0EE600A0B4801F0AB
:10522000D9F90B48D0ED000AF8EEE00AB0EE600ABA
:10523000064801F035F9074880ED000A90ED000AB4
:105240000548FFF7E9FB10BDB8000020FC1900205D
:10525000A80000205C0000200C02002010B50E48C1
:10526000D0ED000AF8EEE00AB0EE600A0B4801F05B
:10527000B1F90B48D0ED000AF8EEE00AB0EE600A92
:10528000064801F00DF9074880ED000A90ED000A8C
:105290000548FFF7C1FB10BDB8000020381A0020F8
:1052A000A80000205C0000200C02002010B50F4870
:1052B000007800B910BD0E48007830B1012807D041
:1052C000022808D003280CD108E0FFF7CFFE09E040
:1052D000FFF72AFF06E0FFF799FF03E0FFF7BEFFA5
:1052E00000E000BF00BF00BFE4E70000580000205E
:1052F0005B0000207CB504460E461546334601226D
:1053000002212046009500F039F828B1606D40F088
:105310002000606503207CBD164800681821B0FBA2
:10532000F1F01549B0FBF1F04FF47A714843019068
:105330006068B0F5827F0DD133460022802120467F
:10534000009500F01BF898B1606D40F0200060659A
:105350000320E0E700BF019800B908E00198401E73
:10536000019020688068C0F3C0100028F3D100BF0E
:105370000020D0E72000002040420F002DE9F84F28
:1053800004460D4690461E46DDF82890FCF734FE94
:10539000A0EB0900371AFCF72FFE82462C48006864
:1053A000C0F3CB307843009046E0701C002843D017
:1053B000FCF722FEA0EB0A00B84200D2A7BB20688F
:1053C000406820F0E000216848606068B0F5827FA6
:1053D0000DD1A068B0F5004F03D0A068B0F5806F84
:1053E00005D12068006820F0400021680860A06AAC
:1053F000B0F5005F0DD100BF2068006820F40050B8
:10540000216808602068006840F400502168086046
:1054100000BF012084F8510000BF002084F8500034
:1054200000BF0320BDE8F88FFFE7009808B9002708
:1054300002E00098401E0090206880682840A84242
:1054400001D1012000E000204045AED10020E9E775
:1054500020000020704710B5FCF7B8FF10BD000019
:1054600000B593B0302107A8FBF74EF9142102A82C
:10547000FBF74AF900BF002001902448006840F083
:105480008050224908600846006800F08050019072
:1054900000BF00BF00BF002001901D48006840F41D
:1054A00080401B4908600846006800F48040019075
:1054B00000BF00BF012007900004089002200D905B
:1054C00041050E9104210F91A82110910221119103
:1054D0000421129107A8FDF793F908B1FCF722FA0D
:1054E0000F20029002200390002004904FF4A0505F
:1054F00005904FF480500690052102A8FDF740F872
:1055000008B1FCF70FFA13B000BD000040380240AC
:10551000007000400348006840F4700001490860D2
:105520007047000088ED00E010B50248FDF729FF44
:1055300010BD00007C01002010B502682B4B984282
:105540000ED0B0F1804F0BD0294B984208D0294B98
:10555000984205D0284B984202D0284B984203D15C
:1055600022F070024B681A43204B984220D0B0F1D1
:10557000804F1DD01E4B98421AD01E4B984217D018
:105580001D4B984214D01D4B984211D01C4B984291
:105590000ED01C4B98420BD01B4B984208D01B4B93
:1055A000984205D01A4B984202D01A4B984203D128
:1055B00022F44072CB681A4322F080034C6943EA1C
:1055C00004028B68C3620B688362084B984202D066
:1055D0000A4B984201D10B690363036843F004034B
:1055E000036001234361026010BD00000000014020
:1055F0000004004000080040000C0040000401408E
:1056000000400140004401400048014000180040B3
:10561000001C00400020004030B50C46816821F499
:105620007F4142EA032525432943816030BD0A4674
:10563000816821F0700142F00703194381607047CF
:1056400030B50B461446026A056A25F0010505626D
:10565000816921F0F00141EA041122F00A021A43A3
:105660008161026230BD30B50B461446026A056A9C
:1056700025F010050562816921F4704141EA043189
:1056800022F0A00242EA03128161026230BD0000F2
:1056900010B50248FEF788F810BD0000C4010020D4
:1056A00070B50446A56B0020E8852846FEF77BF818
:1056B00070BD70B506460025B46B20684069C0F324
:1056C000C01594F84100212805D125B10020E084BF
:1056D000204600F0C8F820684069C0F3801594F8AF
:1056E0004200222805D125B10020E085204600F0A7
:1056F00074F8606C40F0100060642046FEF753F8C8
:1057000070BD70B50546AC6B2868006800F4807009
:10571000002842D1E08500BF00BF21680C3151E86C
:10572000001F21F4807021680C3141E80002002A3A
:10573000F3D100BF00BF00BF2168143151E8001F42
:1057400021F001002168143141E80002002AF3D160
:1057500000BF00BF00BF2168143151E8001F21F0D5
:1057600040002168143141E80002002AF3D100BF53
:10577000202084F84200206B01280ED100BF00BF1A
:1057800021680C3151E8001F21F0100021680C3114
:1057900041E80002002AF3D100BF00206063206BC3
:1057A000012804D1A18D2046FDF72AFF02E0204602
:1057B000FEF7E8FA70BD70B50546AC6B012060637A
:1057C000206B012805D1A08D41082046FDF718FF68
:1057D00002E02046FEF7D7FA70BD00BF00BF0268A6
:1057E0000C3252E8002F22F4907102680C3242E829
:1057F0000013002BF3D100BF00BF00BF02681432BA
:1058000052E8002F22F001010268143242E800132E
:10581000002BF3D100BF016B01290ED100BF00BFE7
:1058200002680C3252E8002F22F0100102680C329C
:1058300042E80013002BF3D100BF202180F8421072
:1058400000210163704710B504462068C06820F04D
:1058500040002168C860202084F841002046FEF7FF
:10586000F2FA002010BD00BF00BF02680C3252E8FF
:10587000002F22F0C00102680C3242E80013002B16
:10588000F3D100BF202180F841107047F8B50446DD
:105890000025002694F84200222873D1A068B0F5B4
:1058A000805F0BD1206948B9A66A20684068C0F3C0
:1058B00008003080A06A801CA06214E0A56AA0687D
:1058C000B0F5805F03D0A06828B9206918B92068B6
:1058D0004068287004E02068406800F07F0028706D
:1058E000A06A401CA062E08D401E80B2E0850028C6
:1058F00046D12068C06820F020002168C860206878
:10590000C06820F480702168C8602068406920F079
:10591000010021684861202084F842000020606373
:10592000206B012826D10020206300BF00BF216822
:105930000C3151E8001F21F0100021680C3141E8C2
:105940000002002AF3D100BF2068006800F01000B8
:1059500010280AD100BF0020009020680068009045
:1059600020684068009000BF00BFA18D2046FDF771
:1059700047FE02E02046FEF705FA0020F8BD01E0F0
:105980000020FBE70220F9E72DE9F84F04462068E4
:10599000006920F44050E1680843216808612169EA
:1059A000A068084361690843E169084300902068E2
:1059B000C06849F20C618843009908432168C860B7
:1059C0002068406920F44070A1690843216848615B
:1059D00076492068884203D075492068884203D1FF
:1059E000FCF7A6FE814602E0FCF792FE8146E069E4
:1059F000B0F5004F6CD102206168A0FB0150034656
:105A00001920A9FB007001462A463846FAF73CFCEB
:105A10006421B0FBF1F04FEA001A02206168A0FB9C
:105A200001510B461920A9FB00712A463846FAF7A6
:105A30002BFC834602206168A0FB0150034619201D
:105A4000A9FB00712A463846FAF71EFC6421B0FB18
:105A5000F1F000EBC00101EB0010ABEB8000322154
:105A600001EBC0006421B0FBF1F000F0F8000AEB9C
:105A7000400A02206168A0FB015003461920A9FBDF
:105A8000007001462A463846FAF7FEFB834602209C
:105A90006168A0FB015003461920A9FB00712A464A
:105AA0003846FAF7F1FB6421B0FBF1F000EBC001DE
:105AB00001EB0010ABEB8000322101EBC000642150
:105AC000B0FBF1F000F007005044216888606AE004
:105AD00004206168A0FB015003461920A9FB007057
