:020000040800F2
:10000000E026002029020008C1350008312D000833
:10001000E13400082F060008D14900080000000064
:100020000000000000000000000000003D4000084B
:100030006F07000800000000A53B00083F400008D3
:10004000430200084302000843020008430200087C
:10005000430200084302000843020008430200086C
:10006000430200084302000843020008430200085C
:100070004302000835060008430200084302000856
:100080004506000843020008430200084302000836
:10009000430200084302000843020008430200082C
:1000A000430200084302000843020008430200081C
:1000B00011410008430200084302000843020008FF
:1000C00043020008430200084302000843020008FC
:1000D0004302000843020008614900084302000887
:1000E00043020008430200084302000843020008DC
:1000F00043020008430200084302000843020008CC
:1001000043020008430200084302000843020008BB
:100110007942000843020008430200084302000835
:100120004302000855060008430200084302000885
:10013000430200084302000843020008430200088B
:10014000430200084302000843020008430200087B
:1001500043020008430200084302000871490008F6
:10016000430200084302000843020008430200085B
:100170004302000843020008430200080000000098
:10018000430200084302000800F002F800F03CF8C7
:100190000AA090E8000C82448344AAF10107DA45E2
:1001A00001D100F031F8AFF2090EBAE80F0013F0F8
:1001B000010F18BFFB1A43F0010318479C6C0000A5
:1001C000BC6C0000103A24BF78C878C1FAD8520736
:1001D00024BF30C830C144BF04680C6070470000C1
:1001E0000023002400250026103A28BF78C1FBD840
:1001F000520728BF30C148BF0B6070471FB505F0DC
:1002000023F81FBD10B510BD00F0D7F91146FFF758
:10021000F5FF04F0A1FE00F0F5F903B4FFF7F2FFDB
:1002200003BC00F0FDF90000094880470948004779
:10023000FEE7FEE7FEE7FEE7FEE7FEE7FEE7FEE796
:10024000FEE7FEE704480549054A064B70470000F3
:10025000FD40000889010008E01A0020E026002087
:10026000E01E0020E01E002053EA020C00F069802E
:100270002DE9F04B4FF00006002B1FBFB3FA83F5BA
:1002800003FA05F424FA05F65E4012BF1643B2FAEB
:1002900082F502FA05F4C5F120051EBF22FA05FC1D
:1002A00044EA0C04203556EA044C4FEA144418BFC3
:1002B000641C4FF000084FF00009904271EB030CF2
:1002C00039D3002919BFB1FA81F701FA07F6B0FA5C
:1002D00080F700FA07F6C7F120071EBF20FA07FCD7
:1002E00046EA0C062037B6FBF4FCA7EB0507103FE7
:1002F00007F01F0BCBF120060CFA0BFB2CFA06F6CD
:1003000044BFB3460026202FA4BF5E464FF0000B2B
:100310005BEA060C08BF4FF0010B19EB0B09ABFBB6
:10032000027C48EB0608C01B06FB02CC0BFB03CC8F
:1003300071EB0C01C1E70B46024641464846BDE859
:10034000F08B13B54FF000004FF00001AFF30080C9
:10035000BDE81C40704740EA010310B59B070FD170
:10036000042A0DD310C808C9121F9C42F8D020BA25
:1003700019BA884201D9012010BD4FF0FF3010BDDD
:100380001AB1D30703D0521C07E0002010BD10F8AB
:10039000013B11F8014B1B1B07D110F8013B11F871
:1003A000014B1B1B01D1921EF1D1184610BD40EA32
:1003B0000103024630B59B0710D14FF0013400E035
:1003C00008C208C91D1B9D4315EAC41FF8D013F0CD
:1003D000FF0102F8011B0DD01B0AF8E711F8013BE1
:1003E000002B02F8013B05D011F8013B002B02F86D
:1003F000013BF3D130BD10B5431C02E010F8011BE6
:1004000071B18107FAD14FF0013202C88C1A8C43C6
:1004100014EAC211F9D0C01A0A0603D0C01E10BDDA
:10042000C01A10BD0A0401D0801E10BD0902FCD004
:10043000401E10BD032A40F2308010F0030C00F083
:10044000158011F8013BBCF1020F624498BF11F80E
:1004500001CB00F8013B38BF11F8013BA2F10402C7
:1004600098BF00F801CB38BF00F8013B11F003033F
:1004700000F07180083AC0F0088051F8043B083A57
:1004800051F804CBA0E80810F5E7121D5CBF51F845
:10049000043B40F8043BAFF30080D20724BF11F8BF
:1004A000013B11F801CB48BF11F8012B24BF00F824
:1004B000013B00F801CB48BF00F8012B70474FF01B
:1004C00000020429C0F0128010F0030C00F01B8021
:1004D000CCF1040CBCF1020F18BF00F8012BA8BF2F
:1004E00020F8022BA1EB0C0100F00DB85FEAC17CF3
:1004F00024BF00F8012B00F8012B48BF00F8012BA6
:1005000070474FF0000200B51346944696462039D6
:1005100022BFA0E80C50A0E80C50B1F12001BFF4BC
:10052000F7AF090728BFA0E80C5048BF0CC05DF822
:1005300004EB890028BF40F8042B08BF704748BF70
:1005400020F8022B11F0804F18BF00F8012B7047E4
:1005500070477047704710B5203AC0F00B80B1E883
:100560001850203AA0E81850B1E81850A0E81850E8
:10057000BFF4F5AF5FEA027C24BFB1E81850A0E8F1
:10058000185044BF18C918C0BDE810405FEA827C0B
:1005900024BF51F8043B40F8043B08BF7047D20722
:1005A00028BF31F8023B48BF11F8012B28BF20F8C3
:1005B000023B48BF00F8012B7047754600F02CF84D
:1005C000AE4605006946534620F00700854618B040
:1005D00020B5FFF737FEBDE820404FF000064FF092
:1005E00000074FF000084FF0000B21F00701AC4668
:1005F000ACE8C009ACE8C009ACE8C009ACE8C00987
:100600008D46704710B50446AFF300802046BDE824
:100610001040FFF702BE0000004870477C1A00201F
:1006200001491820ABBEFEE726000200704700BF5C
:10063000FEE7000010B5024800F056F910BD0000BA
:100640009402002010B5024800F04EF910BD0000E1
:10065000F402002010B5024800F046F910BD000079
:10066000540300200146087810381823B0FBF3F239
:100670000848805CC865032A05D908686FF309003B
:10068000001D886503E008686FF309008865886DC0
:1006900070470000386E0008014600208A6A8B69A6
:1006A000CBB932B1012A0DD0022A03D0032A10D1CE
:1006B0000EE000BFCB6A03F08073B3F1807F00D1FE
:1006C000012007E0CB6AB3F1C07F00D1012001E037
:1006D00000E000BF34E08B69B3F5005F1AD132B19E
:1006E000012A07D0022A03D0032A11D10AE000BF51
:1006F00001200EE0CB6A03F08073B3F1807F00D15C
:10070000012006E0CB6AB3F1C07F00D1012000E0F8
:1007100000BF15E032B1012A05D0022A04D0032A15
:100720000CD103E000BF00BF012008E0CB6A03F05A
:100730008073B3F1807F00D1012000E000BF00BFD3
:10074000704730B50468246824F4802405682C6060
:10075000046863608468402C04D10468A260046863
:10076000E16003E00468A1600468E26030BD7047A6
:100770002DE9FF4107460C4615461E460020009015
:100780000190029003908DF80040F3208DF8010055
:10079000AB208DF802008DF803508DF804606B20BB
:1007A0008DF805004FF47A7306226946384602F048
:1007B0005FFABDE8FF812DE9FF4707460D46164663
:1007C0001C46DDE90C890020009001900290039006
:1007D0008DF80050F6208DF801008DF8026020128F
:1007E0008DF80300E0B28DF804008DF805808DF8D7
:1007F00006906B208DF807004FF47A730822694643
:10080000384602F035FA8246BDE8FF8772B600BF6F
:10081000FEE770B50446A56D00F062FB064694F84D
:100820003500022808D08020606500BF002084F8D1
:10083000340000BF012070BD2068006820F0160061
:10084000216808602068406920F0800021684861C4
:10085000206C08B9A06C28B12068006820F008005E
:10086000216808602068006820F0010021680860A5
:1008700010E000F035FB801B05280BD920206065B7
:10088000032084F8350000BF002084F8340000BF46
:100890000320D0E72068006800F001000028E8D1BC
:1008A00094F85C103F208840A860012084F835004F
:1008B00000BF002084F8340000BF00BFBBE7014642
:1008C00091F83500022803D0802048650120704748
:1008D000052081F835000868006820F001000A68EA
:1008E00010600020F3E70000F8B5044600200090F7
:1008F0008C4800684FF41651B0FBF1F7A56D2E68D7
:1009000094F85C1008208840304098B12068006856
:1009100000F0040070B12068006820F00400216835
:10092000086094F85C1008208840A860606D40F072
:100930000100606594F85C1001208840304068B187
:100940002068406900F0800040B194F85C100120FC
:100950008840A860606D40F00200606594F85C100B
:1009600004208840304068B12068006800F0020030
:1009700040B194F85C1004208840A860606D40F09D
:100980000400606594F85C1010208840304078B313
:100990002068006800F0080050B394F85C10102044
:1009A0008840A8602068006800F4802080B120683A
:1009B000006800F4002028B9206CC8B12046216CE2
:1009C000884715E0A06C98B12046A16C88470FE0DD
:1009D0002068006800F4807028B92068006820F062
:1009E000080021680860206C10B12046216C8847FF
:1009F00094F85C10202088403040002865D02068A2
:100A0000006800F0100000285FD094F85C102020EF
:100A10008840A86094F83500052828D1206800682F
:100A200020F01600216808602068406920F08000EE
:100A300021684861206C08B9A06C28B12068006862
:100A400020F008002168086094F85C103F2088407E
:100A5000A860012084F8350000BF002084F834002D
:100A600000BF206D10B12046216D8847F8BD206879
:100A7000006800F4802080B12068006800F4002045
:100A800028B9606C10B12046616C88471DE0E06BAE
:100A9000D8B12046E16B884717E02068006800F471
:100AA000807068B92068006820F010002168086034
:100AB000012084F8350000BF002084F8340000BF16
:100AC000E06B10B12046E16B8847606D38B3606D14
:100AD00000F00100F0B1052084F8350020680068BE
:100AE00020F001002168086000BF0098401C0090C1
:100AF000B84200D905E02068006800F00100002835
:100B0000F3D100BF012084F8350000BF002084F835
:100B1000340000BFE06C10B12046E16C884700BF94
:100B2000A4E70000200000202DE9F0410446002544
:100B300000F0D6F9074614B90120BDE8F081606ADB
:100B400000B100BF022084F8350000BF002084F807
:100B5000340000BF2068006820F0010021680860B0
:100B60000AE000F0BDF9C01B052805D9202060650A
:100B7000032084F83500E0E72068006800F00100F9
:100B80000028EED12068056821480540D4E901011C
:100B90000843E16808432169084361690843A16982
:100BA0000843E1690843216A08430543606A042851
:100BB00003D1D4E90B010843054320680560206890
:100BC000456925F00705606A0543606A04280DD170
:100BD000A06A0543E06A48B12046FFF75DFD28B1F1
:100BE00040206065012084F83500A6E72068456153
:100BF0002046FFF737FD064694F85C103F208840FA
:100C0000B06000206065012084F83500002094E782
:100C10003F8010F02DE9F04704460D4616461F466A
:100C20004FF00008D4F8589000BF94F83400012821
:100C300002D10220BDE8F087012084F8340000BF13
:100C400094F83500012825D1022084F835000020D1
:100C500060653B46324629462046FFF772FD94F810
:100C60005C103F208840C9F808002068006840F008
:100C7000160021680860206C28B12068006840F0E8
:100C80000800216808602068006840F001002168C1
:100C9000086006E000BF002084F8340000BF4FF079
:100CA00002084046C6E7000070B5044600F018F997
:100CB00006462546681C10B104480078054400BF6C
:100CC00000F00EF9801BA842FAD370BD1C00002072
:100CD000F8B502460B460025002400200021D6E08E
:100CE000012606FA01F51E6806EA0504AC4274D135
:100CF0001E7906F00306012E04D01E7906F00306C5
:100D0000022E13D190684F000326BE40B0434F001F
:100D1000DE68BE4030439060506801268E40B0438C
:100D20001E79C6F300168E40304350601E7906F0DF
:100D30000306032E09D0D0684F000326BE40B043FF
:100D40004F009E68BE403043D0601E7906F0030617
:100D5000022E13D1CF0802F1200656F827004E07C5
:100D6000F70E0F26BE40B0434F07FF0E1E69BE4070
:100D70003043CF0802F1200646F8270010684F00E4
:100D80000326BE40B0431E7906F003064F00BE4066
:100D9000304310605E6806F44036002E76D000BF07
:100DA000002600963C4E366846F480463A4F3E6038
:100DB0003E46366806F48046009600BF00BF374EB8
:100DC0008F0856F827008E07370F0F26BE40B04316
:100DD000334EB24202D1002624E057E0314EB242F7
:100DE00001D101261EE0304EB24201D1022619E0A7
:100DF0002E4EB24201D1032614E02D4EB24201D153
:100E000004260FE02B4EB24201D105260AE02A4EFD
:100E1000B24201D1062605E0284EB24201D1072692
:100E200000E008268F073F0FBE4030431B4E8F085F
:100E300046F82700224E3068A0435E6806F480160C
:100E400006B120431E4E3060361D3068A0435E68F8
:100E500006F4001606B12043194E361D3060184EB8
:100E6000361F3068A0435E6806F4003606B12043A2
:100E7000134E361F3060361F3068A0435E6806F49C
:100E8000803606B120430E4E083E3060491C1029C2
:100E9000FFF426AFF8BD0000443802400838014096
:100EA000000002400004024000080240000C024022
:100EB000001002400014024000180240001C0240D2
:100EC000083C0140024613690B400BB1012000E0D1
:100ED000002070470AB1816101E00B048361704713
:100EE00001480068704700001400002070B50446F7
:100EF0000CB9012070BD94F83D0028B9002084F899
:100F00003C00204600F092F9242084F83D0020683F
:100F1000006820F00100216808602068006840F443
:100F20000040216808602068006820F400402168C3
:100F3000086000F061FB05465C496068884206D89D
:100F40005B48854201D2012007E0002005E05948B6
:100F5000854201D2012000E00020012800D1C9E72C
:100F60005548B5FBF0F62068406820F03F0030435C
:100F7000216848604D496068884201D8701C07E0CC
:100F80004FF4967070434FF47A71B0FBF1F0401C4F
:100F90002168096A21F03F0108432168086243493A
:100FA0006068884214D8681E61684900B0FBF1F09F
:100FB000401CC0F30B00042801D204203DE0681E51
:100FC00061684900B0FBF1F0401CC0F30B0034E055
:100FD000A06838B9681E616801EB4101B0FBF1F00F
:100FE000401C0AE0681E616801EBC10202EB0111BE
:100FF000B0FBF1F0401C40F48040C0F30B0008B996
:1010000001201AE0A06848B9681E616801EB41013F
:10101000B0FBF1F0401CC0F30B000CE0681E6168EF
:1010200001EBC10202EB0111B0FBF1F0401CC0F377
:101030000B0040F4804040F400402168C9694CF640
:10104000FF72914308432168C861D4E9070108434E
:101050002168096821F0C001084321680860D4E9CB
:10106000031008432168896848F2FF32914308431E
:1010700021688860D4E9050108432168C96821F026
:10108000FF0108432168C8602068006840F0010043
:101090002168086000202064202084F83D000020A2
:1010A000206384F83E0000BF24E70000A086010012
:1010B00080841E0000093D0040420F002DE9F843E6
:1010C0000446894616461F46DDF82080FFF708FFD4
:1010D000054694F83D0020287ED11923012251496C
:1010E0002046009501F0D9FE10B10220BDE8F8833A
:1010F00000BF94F83C00012801D10220F6E701204E
:1011000084F83C0000BF2068006800F0010028B9A6
:101110002068006840F001002168086020680068CD
:1011200020F4006021680860212084F83D00102030
:1011300084F83E000020206466626785608D20850B
:101140003948E0622B4642464946204601F012FEED
:1011500008B10120CAE700BF002000902068406964
:10116000009020688069009000BF00BF44E02A46DC
:101170004146204601F06DFF50B1206C042805D196
:101180002068006840F40070216808600120ADE725
:10119000606A007821680861606A401C6062608D46
:1011A000401E6085208D401E208520684069C0F368
:1011B000800070B1208D60B1606A0078216808619C
:1011C000606A401C6062608D401E6085208D401EFC
:1011D00020852A46414600E022E0204601F02AFE12
:1011E00050B1206C042805D12068006840F40070DC
:1011F00021680860012079E7208D0028B7D1206898
:10120000006840F4007021680860202084F83D00E8
:10121000002084F83E0000BF84F83C0000BF65E772
:10122000022063E7020010000000FFFF10B586B047
:101230000446142101A8FFF764F91B49206888427D
:1012400030D100BF002000901848006840F0020034
:10125000164908600846006800F00200009000BFD0
:1012600000BF4FF4406001901220029000200390D4
:10127000032004900420059001A90D48FFF728FDE4
:1012800000BF0020009009481030006840F4800042
:101290000649103108600846006800F4800000909C
:1012A00000BF00BF06B010BD0058004030380240FB
:1012B00000040240034800680349097808440149D2
:1012C00008607047140000201C00002010B50D4875
:1012D000006840F400700B4908600846006840F45C
:1012E000806008600846006840F480700860032051
:1012F00000F0A6F80F2000F007F800F02BF800200F
:1013000010BD0000003C024070B504460E48007855
:101310004FF47A71B1FBF0F00C490968B1FBF0F5BC
:10132000284600F0FBFD08B1012070BD102C07D24B
:1013300000222146501E00F045F80548046001E0F7
:101340000120F2E70020F0E71C0000202000002030
:101350001800002008B500BF002000900E4800686B
:1013600040F480400C4908600846006800F4804062
:10137000009000BF00BF00BF00200090081F006861
:1013800040F08050091F08600846006800F0805057
:10139000009000BF00BF08BD443802400146084627
:1013A00000280DDB00BF00BF00F01F0301229A40A0
:1013B00043099B0003F1E023C3F8002100BF00BFF5
:1013C00000BF70472DE9F05F80460D4616460027A6
:1013D00003F054FD074639462A46334601F007001C
:1013E000C0F1070ABAF1040F02D94FF0040A01E074
:1013F000C0F1070AD14600F1040ABAF1070F02D280
:101400004FF0000A01E0A0F1030AD4464FF0010AB0
:101410000AFA09FAAAF1010A0AEA020A0AFA0CFA15
:101420004FF0010B0BFA0CFBABF1010B0BEA030BBA
:101430004AEA0B042146404603F028FDBDE8F09F30
:1014400000BF00F00702064B19684FF6FF03194072
:10145000044B0B4343EA0221014B196000BF704764
:101460000CED00E00000FA0570B504460D460CB91D
:10147000012070BD5848006800F00700A84209D25A
:1014800055490D700846006800F00700A84201D0D9
:101490000120EEE7207800F0020002281DD120781C
:1014A00000F00400042805D14C48006840F4E050E6
:1014B0004A490860207800F00800082805D147480C
:1014C000006840F46040454908604448006820F0E6
:1014D000F000A168084341490860207800F001004D
:1014E000A8B36068012807D13C4808380068C0F3F9
:1014F0004040B8B90120BCE76068022802D06068AB
:10150000032807D1354808380068C0F3406048B95F
:101510000120AEE7314808380068C0F3400008B940
:101520000120A6E72D48006820F003006168084309
:101530002A490860FFF7D4FC064609E0FFF7D0FC13
:10154000801B41F28831884202D9032091E707E0ED
:101550002248006800F00C006168B0EB810FEDD10B
:101560001D48006800F00700A84209D91A490D700B
:101570000846006800F00700A84201D0012078E783
:10158000207800F00400042807D11448006820F4F3
:10159000E050E168084311490860207800F0080035
:1015A000082808D10D48006820F46040216940EA0D
:1015B000C1000A49086000F03FF808490968C1F312
:1015C0000311074A515CC840064908600648006894
:1015D000FFF79AFE00204CE7003C0240083802402A
:1015E000406E00082000002018000020014800681C
:1015F000704700002000002000B5FFF7F7FF044906
:101600000968C1F38221034A515CC84000BD000053
:1016100008380240506E000800B5FFF7E7FF0449A4
:101620000968C1F34231034A515CC84000BD000063
:1016300008380240506E00082DE9F04700240025CC
:101640000026A1462548006800F00C0020B10428BF
:1016500005D008283AD105E0DFF8849039E0DFF8BA
:10166000849036E01D48001F006800F03F041B48CE
:10167000001F006800F4800078B11A481749091F5C
:101680000968C1F38811A0FB0170014622460023BE
:101690003846FEF7E9FD05460EE011480F49091FDF
:1016A0000968C1F38811A0FB01700146224600239E
:1016B0003846FEF7D9FD05460848001F0068C0F30C
:1016C0000140401C4600B5FBF6F902E0DFF810903F
:1016D00000BF00BF4846BDE8F08700000838024060
:1016E0000024F40000127A00F8B504460CB9012079
:1016F000F8BD207800F00100002874D0F948006897
:1017000000F00C0004280DD0F648006800F00C0032
:10171000082813D1F348001F006800F48000B0F5DA
:10172000800F0BD1EF4808380068C0F34040002814
:1017300059D06068002856D10120D9E700BF606801
:10174000B0F5803F08D1E7480838006840F48030A1
:10175000E449083908601EE06068B0F5A02F0DD19B
:10176000E0480838006840F48020DE490839086005
:101770000846006840F4803008600CE0D94808381A
:10178000006820F48030D7490839086008460068AE
:1017900020F48020086000BF606890B1FFF7A0FBD4
:1017A000054606E0FFF79CFB401B642801D9032097
:1017B0009EE7CC4808380068C0F340400028F1D0CC
:1017C00011E0FFF78DFB054606E0FFF789FB401BA4
:1017D000642801D903208BE7C24808380068C0F3A9
:1017E00040400028F1D1207800F0020002285FD1AB
:1017F000BC48006800F00C0058B1BA48006800F01E
:101800000C0008281CD1B748001F006800F48000B5
:10181000B0B9B44808380068C0F3400020B1E068AF
:10182000012801D0012063E7AE480838006820F0A5
:10183000F800216940EAC100AA490839086037E088
:10184000E06800B30120A8490860FFF749FB05469E
:1018500006E0FFF745FB401B022801D9032047E7BC
:10186000A04808380068C0F340000028F1D09D4827
:101870000838006820F0F800216940EAC100994961
:101880000839086014E0002097490860FFF728FB3A
:10189000054606E0FFF724FB401B022801D9032080
:1018A00026E7904808380068C0F340000028F1D1CE
:1018B000207800F0080008282CD16069A8B1012028
:1018C0008A490860FFF70CFB054606E0FFF708FBB6
:1018D000401B022801D903200AE782486C300068C7
:1018E000C0F340000028F1D014E000207F490860D8
:1018F000FFF7F6FA054606E0FFF7F2FA401B02286A
:1019000001D90320F4E677486C300068C0F340004A
:101910000028F1D1207800F00400042870D10027BD
:1019200070483830006800F0805090B900BF002047
:1019300000906C483830006840F080506949383178
:1019400008600846006800F08050009000BF00BFAB
:1019500001276748006800F48070B0B964480068E7
:1019600040F4807062490860FFF7BAFA054606E065
:10197000FFF7B6FA401B022801D90320B8E65C48FD
:10198000006800F480700028F2D000BFA068012831
:1019900008D154486830006840F00100514968316E
:1019A00008601DE0A06805280DD14E486830006829
:1019B00040F004004B49683108600846006840F078
:1019C000010008600CE047486830006820F0010022
:1019D0004449683108600846006820F00400086047
:1019E00000BFA068A8B1FFF77BFA054609E0FFF742
:1019F00077FA401B41F28831884202D9032077E60A
:101A000026E0384868300068C0F340000028EED077
:101A100013E0FFF765FA054608E0FFF761FA401B9F
:101A200041F28831884201D9032061E62D486830AF
:101A30000068C0F340000028EFD1012F07D12948EA
:101A40003830006820F0805026493831086000BFE7
:101A5000A069002845D02348006800F00C00082841
:101A60005DD0A069022845D100201F490866FFF714
:101A700037FA054606E0FFF733FA401B022801D982
:101A8000032035E6174808380068C0F34060002896
:101A9000F1D1D4E907010843616A40EA81110122CA
:101AA000A06AC2EB500041EA00412C20005D41EAEF
:101AB00000600C49091F086001200B490866FFF708
:101AC0000FFA054606E0FFF70BFA401B022801D982
:101AD00003200DE6034808380068C0F34060002882
:101AE000F1D049E00838024000004742800E4742EA
:101AF00000700040002021490866FFF7F1F9054613
:101B000006E0FFF7EDF9401B022801D90320EFE5BD
:101B10001B480068C0F340600028F2D12CE0A069A7
:101B2000012800D1E4E51648001D0668A0690128D7
:101B300020D006F48001E06981421BD106F03F010C
:101B4000206A814216D147F6C0703040616AB0EB1E
:101B5000811F0FD106F440310122A06AC2EB500070
:101B6000B1EB004F06D106F070612C20005DB1EBA7
:101B7000006F01D00120BBE50020B9E5000047421D
:101B80000038024010B504460CB9012010BD606A4F
:101B900038B96068B0F5827F00D105E00021E161CD
:101BA00002E00021216161610021A16294F85100ED
:101BB00028B9002084F85000204600F047F80220A1
:101BC00084F851002068006820F040002168086017
:101BD000A08800F48270218901F404410843A1899E
:101BE00001F400610843217C01F002010843217DDA
:101BF00001F001010843218B01F400710843217FAA
:101C000001F0380108432021095D01F080010843FB
:101C1000218D01F400510843216808600421A06966
:101C200001EA104094F8241001F0100108432168E3
:101C300048602068C06920F400602168C861002005
:101C40006065012084F8510000209FE710B586B040
:101C50000446142101A8FEF754FC1B492068884261
:101C60002FD100BF002000901848006840F4805039
:101C7000164908600846006800F48050009000BFD4
:101C800000BF00BF0020009010481438006840F0EA
:101C900001000E49143908600846006800F0010090
:101CA000009000BF00BFE0200190022002900020C1
:101CB0000390032004900520059001A90448FFF734
:101CC00007F806B010BD0000003001404438024063
:101CD000000002402DE9FE4F04460F4690461D4687
:101CE0000C9E01200190FFF7FBF8814694F851B05B
:101CF00060680290AA46BBF1010F0BD00298B0F5C4
:101D0000827F04D1A06810B9BBF1040F02D0022079
:101D1000BDE8FE8F1FB1B8F1000F00D00DB9012052
:101D2000F6E700BF94F85000012801D10220EFE748
:101D3000012084F8500000BF94F85100042802D01C
:101D4000052084F8510000206065C4F83880E587DC
:101D5000A5872763E586A5862064606420680068FF
:101D600000F04000402805D02068006840F04000A6
:101D700021680860E068B0F5006F52D1606810B16A
:101D8000BAF1010F09D1206B00882168C860206B6F
:101D9000801C2063E08E401EE0863BE02068806867
:101DA00000F00200022810D1E08E70B101980128E5
:101DB0000BD1206B00882168C860206B801C2063D9
:101DC000E08E401EE086002001902068806800F0D0
:101DD000010068B1E08F58B12068C068A16B08802D
:101DE000A06B801CA063E08F401EE0870120019063
:101DF000FFF776F8A0EB0900B0420BD3701C48B196
:101E0000012084F8510000BF002084F8500000BF7A
:101E100003207DE7E08E0028C0D1E08F0028BDD1EF
:101E200052E0606810B1BAF1010F09D1206B00785F
:101E300021680873206B401C2063E08E401EE08602
:101E40003CE02068806800F00200022810D1E08E9B
:101E500070B1019801280BD1206B007821680873BC
:101E6000206B401C2063E08E401EE0860020019025
:101E70002068806800F0010068B1E08F58B12068E8
:101E8000C068A16B0870A06B401CA063E08F401E6F
:101E9000E08701200190FFF723F8A0EB0900B04292
:101EA00001D3701C00B94EB9012084F8510000BF65
:101EB000002084F8500000BF032029E7E08E0028AE
:101EC000BFD1E08F0028BCD14A463146204602F0FF
:101ED00005F840B12020606500BF002084F8500064
:101EE00000BF012014E7A06850B900BF0020009097
:101EF0002068C068009020688068009000BF00BF24
:101F0000012084F8510000BF002084F8500000BF79
:101F1000606D08B10120FBE60020F9E670B50446CB
:101F20002546681EB0F1807F01D301200FE0681EB6
:101F30004FF0E02148610F214FF0FF3002F0A6FF83
:101F400000204FF0E021886107200861002070BD6B
:101F50007047704730B502460B4600BF92F83C0010
:101F6000012801D1022030BD012082F83C0000BFD1
:101F7000022082F83D00106844681068816824F0EF
:101F800070041868044310684460184D1068A84233
:101F90001BD01068B0F1804F17D0154D1068A842C3
:101FA00013D0144D1068A8420FD0134D1068A842EA
:101FB0000BD0124D1068A84207D0114D1068A842EE
:101FC00003D0104D1068A84205D121F08001586857
:101FD000014310688160012082F83D0000BF0020AD
:101FE00082F83C0000BF00BFBDE7000000000140D8
:101FF0000004004000080040000C004000040140C4
:10200000004001400018004010B504460CB9012002
:1020100010BD94F83D0028B9002084F83C0020460B
:1020200000F026F8022084F83D00211D206802F00F
:1020300077F8012084F8460000BF84F83E000121B3
:102040003F200155402001554120015500BF00BFF0
:10205000012084F8420043200155442001554520C9
:10206000015500BF012084F83D000020D0E70000AA
:1020700038B504462068B0F1804F17D100BF00206A
:1020800000900B48006840F00100094908600846CC
:10209000006800F00100009000BF00BF0022114660
:1020A0001C20FFF78FF91C20FFF778F938BD0000DE
:1020B00040380240014691F83D00012801D001203E
:1020C0007047022081F83D000868C06840F00100B8
:1020D0000B68D8601A4B086898421BD00868B0F1AA
:1020E000804F17D0174B0868984213D0164B0868DA
:1020F00098420FD0154B086898420BD0144B0868D3
:10210000984207D0134B0868984203D0124B0868D6
:1021100098420CD10868806800F00702062A0CD0AB
:102120000868006840F001000B68186005E0086866
:10213000006840F001000B6818600020C0E7000054
:10214000000001400004004000080040000C004076
:102150000004014000400140001800402DE9F0411A
:1021600004460D46002700BF94F83C00012802D128
:102170000220BDE8F081012084F83C0000BF02206D
:1021800084F83D002068866826F0770626F47F46AE
:10219000206886602868502833D00CDC202850D076
:1021A00004DC00284BD0102851D149E0302849D018
:1021B00040284CD139E060282DD0702807D0B0F5E8
:1021C000805F03D0B0F5005F41D10DE041E0D5E97B
:1021D00002136A68206802F013F82068866846F0E7
:1021E00077062068866034E0D5E902136A682068C3
:1021F00002F006F82068806840F48040216888601A
:1022000027E0EA686968206802F00EF8502120682B
:1022100002F001F81DE0EA686968206802F017F82A
:102220006021206801F0F7FF13E0EA686968206820
:1022300001F0FAFF4021206801F0EDFF09E000BF46
:1022400000BF00BF2968206801F0E5FF01E0012719
:1022500000BF00BF012084F83D0000BF002084F8CB
:102260003C0000BF384684E7704770B504462068DC
:10227000C5682068066906F00200022819D105F039
:102280000200022815D1401F216808610120207733
:102290002068806900F0030018B12046FFF7E4FFD2
:1022A00005E0204600F097F8204600F095F8002061
:1022B000207706F00400042819D105F00400042852
:1022C00015D1C04321680861022020772068806909
:1022D00000F4407018B12046FFF7C6FF05E0204625
:1022E00000F079F8204600F077F80020207706F01B
:1022F0000800082819D105F00800082815D1C043A6
:1023000021680861042020772068C06900F003007C
:1023100018B12046FFF7A8FF05E0204600F05BF863
:10232000204600F059F80020207706F01000102811
:1023300019D105F01000102815D1C043216808619B
:10234000082020772068C06900F4407018B120464A
:10235000FFF78AFF05E0204600F03DF8204600F038
:102360003BF80020207706F0010048B105F001009D
:1023700030B16FF0010021680861204600F02EF8AE
:1023800006F08000802809D105F08000802805D162
:10239000C043216808612046FFF7DAFD06F04000DF
:1023A000402809D105F04000402805D1C0432168EC
:1023B0000861204600F05EF806F02000202809D1D0
:1023C00005F02000202805D1C0432168086120467F
:1023D000FFF7BFFD70BD70477047000070B5044641
:1023E0001C4920680968884233D11B48007898B19D
:1023F0001A480088401C80B21849088040F2EE213B
:10240000884209DB01201649087000201549087030
:1024100011490870114908801348007868B11348C1
:1024200001F094FB1148FDF7E6FF054629460F48E9
:10243000FEF745F800200C4908700D480078401C54
:10244000C0B20B4908700A2803DB02F099FA01F0C8
:1024500021FD70BD740100202A000020260000200C
:10246000580000205B00002029000020F518002003
:10247000240000207047F8B504460D46164694F82F
:10248000420020282DD105B10EB90120F8BD012050
:1024900020630020606332462946204602F07EF920
:1024A0000746206B012819D100BF0020009020684A
:1024B0000068009020684068009000BF00BF00BF27
:1024C00000BF21680C3151E8001F41F01000216865
:1024D0000C3141E80002002AF3D100E00127384620
:1024E000D4E70220D2E7000070B504460D46324919
:1024F000206888421CD1204600F084F82A462F49E3
:102500002F48FDF797FF01202E49087040212B48E6
:10251000FDF7D5FF402229492B48FFF7ACFF2B4898
:102520000068006820F0080028490968086042E057
:102530002749206888421CD1204600F063F82A46CB
:1025400024492548FDF776FF0120244908704021E1
:102550002048FDF7B4FF40221E492148FFF78BFFBA
:1025600020480068006820F008001E4909680860DB
:1025700021E01D49206888421DD1204600F042F824
:102580002A461A491A48FDF755FF1A490D700120CD
:102590001949087040211548FDF791FF4022134961
:1025A0001648FFF768FF16480068006820F008002A
:1025B00013490968086070BD0044004035180020C8
:1025C000751800202800002004020020F4020020DA
:1025D000004C0040B5180020F5180020290000200C
:1025E000BC01002094020020001401403519002095
:1025F000751900202D0000202C0000204C02002026
:102600005403002070B50446002520684069C0F3DB
:10261000C01594F84100212817D1B5B100BF00BF03
:102620002168143151E8001F21F080002168143125
:1026300041E80002002AF3D100BFA06B10B1A06BEB
:10264000FEF7E7F8204601F002FF20684069C0F37A
:10265000801594F84200222817D1B5B100BF00BF01
:102660002168143151E8001F21F040002168143125
:1026700041E80002002AF3D100BFE06B10B1E06B2B
:10268000FEF7C7F8204601F09CFE002070BD7047A1
:102690002DE9F84F0446206805682068C668206860
:1026A00047694FF00009CA4605F00F09B9F1000F5C
:1026B0000AD105F0200038B106F0200020B12046F4
:1026C00001F0D8FEBDE8F88FB9F1000F7CD007F01B
:1026D000010018B906F49070002875D005F00100CB
:1026E00030B106F4807018B1606C40F00100606495
:1026F00005F0040030B107F0010018B1606C40F043
:102700000200606405F0020030B107F0010018B16A
:10271000606C40F00400606405F0080048B106F009
:10272000200010B907F0010018B1606C40F00800FB
:102730006064606C002846D005F0200028B106F0E7
:10274000200010B1204601F095FE20684069C0F3DA
:10275000801A606C00F0080010B9BAF1000F2DD09B
:10276000204601F02EFE2068406900F0400040281D
:1027700020D100BF00BF2168143151E8001F21F0B3
:1027800040002168143141E80002002AF3D100BF63
:10279000E06B50B17F48E16B0865E06BFEF78FF8A6
:1027A00088B1E06B016D88470DE02046FFF76FFFB1
:1027B00009E009E02046FFF76AFF04E02046FFF742
:1027C00066FF002060647DE7206B012878D105F06A
:1027D0001000002874D006F010000028FAD000BFC6
:1027E00000200090206800680090206840680090F9
:1027F00000BF00BF2068406900F04000402870D151
:10280000E06B006840681FFA80F8B8F1000F58D0FC
:10281000A08D404555DDA4F82E80E06BC069B0F571
:10282000807F43D000BF00BF21680C3151E8001FFA
:1028300021F4807021680C3141E80002002AF3D1B4
:1028400000BF00BF00BF2168143151E8001F21F014
:1028500001002168143141E80002002AF3D100BFD1
:1028600000BF00BF2168143151E8001F21F0400073
:102870002168143141E80002002AF3D100BF202072
:1028800084F842000020206300BF00BF21680C31A3
:1028900051E8001F21F0100021680C3141E80002CE
:1028A000002AF3D100BFE06BFDF7B3FF02206063A5
:1028B000A08DE28D801A81B22046FFF715FE0EE052
:1028C00052E0A08D40450AD1E06BC069B0F5807F31
:1028D00005D102206063A18D2046FFF705FEF1E6D9
:1028E000FFE7A08DE18D401A1FFA80F8E08DD0B38C
:1028F000B8F1000F37D000BF00BF21680C3151E89C
:10290000001F21F4907021680C3141E80002002A78
:10291000F3D100BF00BF00BF2168143151E8001F90
:1029200021F001002168143141E80002002AF3D1AE
:1029300000BF202084F842000020206300BF00BFB9
:1029400021680C3151E8001F21F0100021680C3182
:1029500041E80002002AF3D100BF02206063414633
:102960002046FFF7C1FDADE605F0800030B106F06E
:10297000800018B1204601F07DFFA3E605F040007D
:1029800030B106F0400018B1204601F050FD99E644
:1029900000BF97E68942000810B504460CB9012033
:1029A00010BDA06900B100E000BF94F8410028B953
:1029B000002084F84000204600F02AF8242084F803
:1029C00041002068C06820F400502168C86020469B
:1029D00001F0CEFD2068006920F490402168086174
:1029E0002068406920F02A00216848612068C0689A
:1029F00040F400502168C86000206064202084F802
:102A0000410084F842000020606300BFC8E7000076
:102A100010B586B00446142101A8FDF772FD88495F
:102A20002068884254D100BF00200090854800688B
:102A300040F40020834908600846006800F4002044
:102A4000009000BF00BF00BF002000907D481038FC
:102A5000006840F001007B491039086008460068B2
:102A600000F00100009000BF00BF03200190022091
:102A7000029000200390032004900820059001A9F3
:102A80007148FEF725F971487149086040054860B2
:102A900000216F488160C1604FF4806101610021B5
:102AA00041618161C16101624162FEF73DF808B197
:102AB000FDF7ACFE00BF6648E063846300BF002200
:102AC00002213420FEF77EFC3420FEF767FCB4E0E0
:102AD00060492068884256D100BF002000905948C4
:102AE000006840F40030574908600846006800F468
:102AF0000030009000BF00BF00BF00200090514890
:102B00001038006840F001004E491039086008464E
:102B1000006800F00100009000BF00BF0C20019091
:102B200002200290002003900320049007200590CB
:102B300001A94548FEF7CCF84448483046490860AA
:102B40004FF000604860002143488160C1604FF44D
:102B500080610161002141618161C1610162416265
:102B6000FDF7E2FF08B1FDF751FE00BF3A48E06310
:102B7000846300BF002202212620FEF723FC2620CA
:102B8000FEF70CFC59E035492068884255D100BF5A
:102B9000002000902B48001D006840F020002949CB
:102BA000091D08600846006800F02000009000BF82
:102BB00000BF00BF0020009022481038006840F09D
:102BC00004002049103908600846006800F004003D
:102BD000009000BF00BFC0200190022002900020A2
:102BE0000390032004900820059001A91C48FEF7DB
:102BF0006FF81C481C4908608005486000211A488D
:102C00008160C1604FF48061016100214161816197
:102C1000C16101624162FDF787FF08B1FDF7F6FD72
:102C200000BF1148E063846300BF002201214720F8
:102C3000FEF7C8FB4720FEF7B1FB06B010BD000051
:102C4000004C00404038024000000240406002401A
:102C50009402002000440040F402002000140140CF
:102C60000008024028640240540300207047704767
:102C70002DE9F84F04460E46174699464FF0000AD4
:102C800094F84100202850D106B117B90120BDE8C1
:102C9000F88F00206064212084F84100FEF720F9BD
:102CA0008246A784E784A068B0F5805F04D12069DC
:102CB00010B90025B04602E035464FF000081EE08E
:102CC0005346002280212046CDF8009001F002FEFC
:102CD00020B1202084F841000320D8E745B9B8F896
:102CE0000000C0F308002168486008F1020803E012
:102CF0002878216848606D1CE08C401EE084E08CE0
:102D00000028DDD15346002240212046CDF8009016
:102D100001F0E0FD20B1202084F841000320B6E757
:102D2000202084F841000020B1E70220AFE770477F
:102D300000BFFEE7014608684069C0F38020B0B1DB
:102D40006FF480600A68506100200863202081F8D9
:102D50003D00002081F83E00086C40F0040008644B
:102D600000BF002081F83C0000BF01207047002018
:102D7000FCE700002DE9F84304460D461746984647
:102D8000E66A082E04D0012E02D016F5803F06D147
:102D90002068006840F480702168086008E0206BBB
:102DA000122805D12068006840F48070216808600E
:102DB0003B4600224FF001112046CDF8008000F084
:102DC0006CF860B12068006800F48070B0F5807F16
:102DD00002D14FF4007020640320BDE8F88320691D
:102DE000B0F5804F04D105F0FE002168086112E0C3
:102DF00005F44070F02141EAE01021680861434683
:102E00003A460B49204600F0A7F808B10120E4E754
:102E1000E8B22168086143463A460549891F2046C1
:102E200000F09AF808B10120D7E70020D5E70000AC
:102E30000800010070B504460D46164625E0204600
:102E4000FFF778FF08B1012070BD681CE8B1FEF7FC
:102E500047F8801BA84200D8BDB920684069C0F37C
:102E6000800090B900202063202084F83D000020DD
:102E700084F83E00206C40F02000206400BF002059
:102E800084F83C0000BF0120DEE720684069C0F301
:102E900080000028D3D00020D6E72DE9F041044679
:102EA0000D4617461E46DDF8188038E0701CA8B3A2
:102EB000FEF716F8A0EB0800B04200D876BBC5F3C9
:102EC000074001280AD120684069A9B20840A9B288
:102ED000884201D101200BE0002009E020688069D0
:102EE000A9B20840A9B2884201D1012000E0002027
:102EF000B84214D100202063202084F83D00002037
:102F000084F83E00206C40F02000206400BF0020C8
:102F100084F83C0000BF0120BDE8F081FFE7C5F365
:102F2000074001280AD120684069A9B20840A9B227
:102F3000884201D101200BE0002009E0206880696F
:102F4000A9B20840A9B2884201D1012000E00020C6
:102F5000B842ABD00020DFE72DE9F04104460D4632
:102F600016461F4658E020684069C0F38020E8B14B
:102F70002068006840F40070216808606FF4806089
:102F80002168486100202063202084F83D00002053
:102F900084F83E00206C40F00400206400BF002054
:102FA00084F83C0000BF0120BDE8F081701C90B3A4
:102FB000FDF796FFC01BB04200D866BBC5F30740C3
:102FC00001280AD120684069A9B20840A9B2884204
:102FD00001D101200BE0002009E020688069A9B23E
:102FE0000840A9B2884201D1012000E0002090B938
:102FF00000202063202084F83D00002084F83E005B
:10300000206C40F02000206400BF002084F83C00C9
:1030100000BF0120C8E7FFE7C5F3074001280AD138
:1030200020684069A9B20840A9B2884201D10120B4
:103030000BE0002009E020688069A9B20840A9B22D
:10304000884201D1012000E0002000288BD0002020
:10305000AAE770B504460D46164625E02046FFF760
:1030600069FE08B1012070BD681CE8B1FDF738FFAA
:10307000801BA84200D8BDB920684069C0F3C010C9
:1030800090B900202063202084F83D00002084F8BF
:103090003E00206C40F02000206400BF002084F837
:1030A0003C0000BF0120DEE720684069C0F3C0108B
:1030B0000028D3D00020D6E710B50024012109480C
:1030C000FDF700FF00B9012402210648FDF7FAFED2
:1030D00000B9022404210348FDF7F4FE00B90324DB
:1030E000204610BD0010024010B5FFF7E5FF24494F
:1030F0000870084600782349097848402049097833
:103100000840214908701E4800781E490978484047
:103110001B49097888431D490870194800781949E6
:10312000087019480078012805D11948007880F006
:103130000100174908701448007802280DD115487D
:103140000078401CC0B213490870022801DB00203F
:10315000087000201049086048600B480078032878
:103160000DD10E48808882B20C48008881B20020C0
:1031700001F0E2FD0A4A911E002001F0D9FC10BDC9
:10318000A5000020A7000020A4000020A600002029
:10319000580000205B000020A8000020B0000020A4
:1031A000C600002008B500BF002000901A48006843
:1031B00040F40010184908600846006800F4001048
:1031C000009000BF00BF00BF0020009008460068CC
:1031D00040F4800008600846006800F48000009019
:1031E00000BF00BF002211460D20FEF7EBF80D20B6
:1031F000FEF7D4F8002211461020FEF7E3F8102065
:10320000FEF7CCF8002211463920FEF7DBF8392012
:10321000FEF7C4F808BD00003038024000B587B0A2
:10322000142102A8FDF76DF900BF0020019043486A
:10323000006840F01000414908600846006800F04E
:103240001000019000BF00BF00BF002001900846A1
:10325000006840F0040008600846006800F00400C0
:10326000019000BF00BF00BF002001900846006829
:1032700040F0800008600846006800F0800001907F
:1032800000BF00BF00BF002001900846006840F06A
:10329000010008600846006800F00100019000BFCE
:1032A00000BF00BF002001900846006840F0020007
:1032B00008600846006800F00200019000BF00BFEF
:1032C000002210211E48FDF705FE00224FF4007178
:1032D0001C48FDF7FFFD072002900020039001200D
:1032E000049002A91848FDF7F3FC10200290012079
:1032F000039000200490059002A91148FDF7E8FC16
:103300004FF400700290012003900020049005907B
:1033100002A90C48FDF7DCFC4FF4C06002900220CB
:10332000039000200490032005900720069002A936
:103330000348FDF7CDFC07B000BD00003038024067
:1033400000000240000802400010024010B50B4887
:103350000B4908600B484860002109488160C16042
:103360004FF480410161002141618161C1610162CD
:10337000FDF7BCFD08B1FDF749FA10BD005800404B
:10338000C8000020A086010010B50E480E49086054
:103390004FF48270486000210B488160C160016178
:1033A00041614FF4007181610021C161016241629C
:1033B00081620A21C162FEF7E5FB08B1FDF726FA3A
:1033C00010BD0000003001401C01002000B587B096
:1033D00000200390049005900690019002904FF019
:1033E000804014490860292048600021114881600C
:1033F00040F2E731C1600021016180218161FEF767
:1034000003FE08B1FDF702FA4FF48050039003A9C0
:103410000848FEF7A3FE08B1FDF7F8F90020019077
:10342000029001A90348FEF795FD08B1FDF7EEF9FA
:1034300007B000BD7401002010B50B480B490860AF
:103440004FF4E1304860002108488160C1600161AB
:103450000C21416100218161C161FFF79DFA08B132
:10346000FDF7D4F910BD0000004C0040BC01002065
:1034700010B50B480B4908604FF4E130486000215B
:1034800008488160C16001610C21416100218161B6
:10349000C161FFF781FA08B1FDF7B8F910BD00006E
:1034A000004400400402002010B50B480B4908609E
:1034B0004FF4E1304860002108488160C16001613B
:1034C0000C21416100218161C161FFF765FA08B1FA
:1034D000FDF79CF910BD0000001401404C020020D3
:1034E00000BFFEE710B52DED028B82B00446B0EEB2
:1034F000408AB5EEC08AF1EE10FA11D2B1EE480A58
:10350000B0EE408A00200090BCEEC80A019010EE98
:10351000100A83B2012211462046FDF74CF90CE057
:1035200000200090BCEEC80A019010EE100A83B291
:10353000002201212046FDF73EF902B0BDEC028BCE
:1035400010BD000010B50948FEF7B4FD00BF40F201
:10355000CF7006490968C86201460448C16000BFCF
:10356000002002490968486210BD00007401002073
:1035700010B540220C490D48FEF77DFF0C4800684D
:10358000006820F008000A490968086040220949DB
:103590000948FEF770FF09480068006820F008003D
:1035A00006490968086010BDB5180020BC0100205C
:1035B00094020020351900204C0200205403002002
:1035C00000BFFEE710B5AE2000F002F9202000F0A9
:1035D000FFF8102000F0FCF8B02000F0F9F8C82047
:1035E00000F0F6F8002000F0F3F8102000F0F0F8FA
:1035F000402000F0EDF8812000F0EAF8DF2000F034
:10360000E7F8A12000F0E4F8A62000F0E1F8A820F7
:1036100000F0DEF83F2000F0DBF8A42000F0D8F83E
:10362000D32000F0D5F8002000F0D2F8D52000F02B
:10363000CFF8F02000F0CCF8D92000F0C9F8222013
:1036400000F0C6F8DA2000F0C3F8122000F0C0F84D
:10365000DB2000F0BDF8202000F0BAF88D2000F04B
:10366000B7F8142000F0B4F800F006F800F0BAF94A
:10367000AF2000F0ADF810BD10B54FF480610248E6
:10368000FCF71DFF10BD0000B40300202DE9FC4332
:103690000746884615461C46DDF824902078CDE97B
:1036A00000092078C61DF01706EB5070C010617835
:1036B00010FB01F1A5F12000D4F804C000FB01C209
:1036C00063784146384600F002F9BDE8FC832DE9F5
:1036D000FF4F85B0804617461C46DDF8489000260F
:1036E0002178C81DC11700EB5171C910627811FB18
:1036F00002F1091DC9B2049152E000200390B819EB
:1037000001F09EFB054605B94DE04FF0000B20E0AF
:10371000616804980BFB001AB8192A465146FCF759
:103720001AFE90B92078CDE9000963780AF1040205
:103730004046069900F0CBF86078404400F0FF085E
:10374000701986B20120039006E00BF1010000F031
:10375000FF0B207A5845DBDC00BF039800BB012D2E
:103760000FD1CDF80090BA5DE36840460699FFF7A7
:103770008DFFE0684078404400F0FF08701986B281
:103780000EE0CDF800902022E36840460699FFF74E
:103790007DFFE0684078404400F0FF08701986B271
:1037A000B85D0028A9D100BF09B0BDE8F08F0000C6
:1037B00038B504460D464FF0FF302B46224678219F
:1037C00000900248FDF77AFC38BD0000C8000020D8
:1037D00010B50446024844700221FFF7E9FF10BD0E
:1037E000000000202DE9FC4380460C4616461F468B
:1037F0002046E11704EB5171C1F3C7092046E117D8
:1038000004EB5171C910A4EBC101CDB20720CDE981
:10381000000706FA05F0C2B22B464146484600F0C2
:10382000A3F875B1681EC0B2C5F1080146FA01F2ED
:1038300009F10101CDE90007C8B20023414600F0BB
:1038400093F8BDE8FC832DE9FC4781460C461646FB
:103850001F46DDF828802046E11704EB5171C1F3C3
:10386000C70A2046E11704EB5171C910A4EBC1014E
:10387000CDB2E81908281BDD0720CDE9000806FABB
:1038800005F0C2B22B464946504600F06DF8781953
:103890000938C0B2C5F1080146FA01F20AF1010186
:1038A000CDE90008C8B20023494600F05DF80CE0FD
:1038B000E819401EC0B2CDE9000806FA05F0C2B210
:1038C0002B464946504600F04FF8BDE8FC872DE9ED
:1038D000FC4F81468A4693461D460B9C2046E117C5
:1038E00004EB5171C1F3C707E11704EB5171C91023
:1038F000A4EBC101C9B201914FF0000816E0002607
:103900000EE006FB05831BF803200AEBC603D9B2C1
:1039100009EB0803D8B20C9BFFF764FF701CC6B21A
:10392000BE42EEDB08F1010000F0FF08A845E6DB2F
:103930000198B8B105FB07F8002610E00C9808EBD9
:10394000060300901BF803200AEBC703D9B209EB6A
:103950000603D8B2019BFFF776FF701CC6B2AE42D9
:10396000ECDB00BFBDE8FC8FF0B5DDE905450828BC
:1039700001DA802900DBF0BD0DB1D643F2B2661C3E
:10398000FF2707FA06F61643C3F1080C47FA0CF7AF
:103990003E43124F3E70124E06EBC016765C3F78E7
:1039A0003E400F4F07EBC0177E54661CFF27B74001
:1039B00022EA0706C3F1080CFF2747FA0CF7BE43BB
:1039C000064F3E70064E06EBC016765C3F783E43CF
:1039D000034F07EBC0177E5400BFCCE70200002066
:1039E000B403002010B540200F490870002418E0EF
:1039F00004F1B001C8B2FFF7EBFE0020FFF7E8FECC
:103A00001020FFF7E5FE094800EBC41180220648AC
:103A1000401CFCF70FFD81210348FFF7C9FE601C25
:103A2000C4B2082CE4DB10BDB4070020B4030020AE
:103A300008B536A13648FCF7BAFC3649086834495F
:103A4000C91C01F059FA0020334B314A014600905D
:103A5000FFF73DFE31A12E48FCF7A9FC2D4948682F
:103A60002B49C91C01F048FA00202B4B284A102191
:103A70000090FFF72CFE2AA12548FCF798FC24496A
:103A8000491D2948007801F037FA0020224B204ACE
:103A900020210090FFF71BFE24A11D48FCF787FCA6
:103AA000234908681A49C91C01F026FA00201A4B5C
:103AB000174A014600904020FFF709FE1DA1144857
:103AC000FCF775FC1D4908881149091D01F014FA1D
:103AD0000020114B0E4A102100904020FFF7F7FD07
:103AE00017A10B48FCF763FC0949891C16480078AC
:103AF00001F002FA0020084B054A202100904020E6
:103B0000FFF7E5FDFFF76EFF08BD00004F783A00B4
:103B1000B5190020A8000020EC6C00084F793A008D
:103B20004D6F64653A0000005B0000204C783A005D
:103B3000B0000020664F4B3A00000000C400002097
:103B400072756E3A0000000058000020017831299B
:103B500020DB017839291DDC017830390E4A1170DB
:103B600001210E4A11700C49097801290BD00A492C
:103B70000978042907D008490978052903D006499E
:103B80000978082903D10221054A117002E00321B6
:103B9000034A1170704700002B0000202A0000200B
:103BA0005B0000207047000010B52448D0ED042AC7
:103BB000B0EE622AD0ED032AF0EE621AD0ED022AAE
:103BC000B0EE621AD0ED012AF0EE620AD0ED002AC2
:103BD000B0EE620A1A4801F0B7FA1A48D0ED042A8A
:103BE000B0EE622AD0ED032AF0EE621AD0ED022A7E
:103BF000B0EE621AD0ED012AF0EE620AD0ED002A92
:103C0000B0EE620A104801F09FFA1048D0ED042A85
:103C1000B0EE622AD0ED032AF0EE621AD0ED022A4D
:103C2000B0EE621AD0ED012AF0EE620AD0ED002A61
:103C3000B0EE620A064801F087FA10BD6800002065
:103C4000C81900207C000020041A002090000020E9
:103C5000401A002010B52648006826490968401A15
:103C6000002805DD2248006822490968401A04E05E
:103C7000204800681E490968401A042817DC1E48BD
:103C80000088401C1C49088008460088502811DB29
:103C90001A48007838B9012251021948FDF71AF97B
:103CA00001201649087000201349088002E0002016
:103CB000114908800E48D0ED000AF8EEE00AB0EE97
:103CC000600A104801F08AFA0A48D0ED000AF8EEBE
:103CD000E00AB0EE600A0B4801F0E6F90A4880ED10
:103CE000000A90ED000A0948FFF7FCFB10BD000038
:103CF000B8000020A8000020640000205A00002026
:103D000000080240C81900205C00002004020020C6
:103D10001CB53048006810B12E48406860B90020DA
:103D200000901E230246012101902B48FCF743FD21
:103D300000202A4908801CBD2948006825490968D7
:103D4000401A002805DD2648006822490968401A03
:103D500004E02048006822490968401A042817DC5A
:103D60001E480088401C1D49088008460088962887
:103D700011DB1C48007838B9012251021A48FDF7BE
:103D8000A9F801201749087000201449088002E0B2
:103D90000020124908801248D0ED000AF8EEE00A2F
:103DA000B0EE600A114801F019FA0A48D0ED000A95
:103DB000F8EEE00AB0EE600A0C4801F075F90C4824
:103DC00080ED000A90ED000A0348FFF78BFB00BF6F
:103DD000B1E70000A80000200402002064000020D9
:103DE000B80000205A00002000080240C819002036
:103DF0005C00002010B50E48D0ED000AF8EEE00A95
:103E0000B0EE600A0B4801F0E9F90B48D0ED000A6A
:103E1000F8EEE00AB0EE600A064801F045F90748FE
:103E200080ED000A90ED000A0548FFF75BFB10BD2E
:103E3000B8000020041A0020A80000205C00002028
:103E40000402002010B50E48D0ED000AF8EEE00A9A
:103E5000B0EE600A0B4801F0C1F90B48D0ED000A42
:103E6000F8EEE00AB0EE600A064801F01DF90748D6
:103E700080ED000A90ED000A0548FFF733FB10BD06
:103E8000B8000020401A0020A80000205C0000209C
:103E90000402002010B50F48007800B910BD0E488C
:103EA000007830B1012807D0022808D003280CD1AF
:103EB00008E0FFF7CFFE09E0FFF72AFF06E0FFF773
:103EC00099FF03E0FFF7BEFF00E000BF00BF00BFA7
:103ED000E4E70000580000205B0000207CB50446A9
:103EE0000E4615463346012202212046009500F079
:103EF00039F828B1606D40F02000606503207CBD7A
:103F0000164800681821B0FBF1F01549B0FBF1F03C
:103F10004FF47A71484301906068B0F5827F0DD10B
:103F20003346002280212046009500F01BF898B10E
:103F3000606D40F0200060650320E0E700BF01985D
:103F400000B908E00198401E019020688068C0F325
:103F5000C0100028F3D100BF0020D0E720000020CF
:103F600040420F002DE9F84F04460D4690461E468C
:103F7000DDF82890FCF7B4FFA0EB0900371AFCF736
:103F8000AFFF82462C480068C0F3CB3078430090E6
:103F900046E0701C002843D0FCF7A2FFA0EB0A000B
:103FA000B84200D2A7BB2068406820F0E00021683A
:103FB00048606068B0F5827F0DD1A068B0F5004F11
:103FC00003D0A068B0F5806F05D12068006820F0AC
:103FD000400021680860A06AB0F5005F0DD100BF05
:103FE0002068006820F4005021680860206800689C
:103FF00040F400502168086000BF012084F851009F
:1040000000BF002084F8500000BF0320BDE8F88FF7
:10401000FFE7009808B9002702E00098401E0090D2
:10402000206880682840A84201D1012000E00020DB
:104030004045AED10020E9E720000020704710B5D0
:10404000FDF738F910BD000000B593B0302107A886
:10405000FCF757FA142102A8FCF753FA00BF00201E
:1040600001902448006840F08050224908600846CA
:10407000006800F08050019000BF00BF00BF00202A
:1040800001901D48006840F480401B4908600846C4
:10409000006800F48040019000BF00BF012007903D
:1040A0000004089002200D9041050E9104210F910B
:1040B000A8211091022111910421129107A8FDF766
:1040C00013FB08B1FCF7A2FB0F2002900220039023
:1040D000002004904FF4A05005904FF480500690BB
:1040E000052102A8FDF7C0F908B1FCF78FFB13B05A
:1040F00000BD0000403802400070004003480068E6
:1041000040F47000014908607047000088ED00E04D
:1041100010B50248FEF7A9F810BD00007401002098
:1041200010B502682B4B98420ED0B0F1804F0BD0E7
:10413000294B984208D0294B984205D0284B9842E9
:1041400002D0284B984203D122F070024B681A43E8
:10415000204B984220D0B0F1804F1DD01E4B98428A
:104160001AD01E4B984217D01D4B984214D01D4BAD
:10417000984211D01C4B98420ED01C4B98420BD049
:104180001B4B984208D01B4B984205D01A4B9842C3
:1041900002D01A4B984203D122F44072CB681A43E2
:1041A00022F080034C6943EA04028B68C3620B6807
:1041B0008362084B984202D00A4B984201D10B69A6
:1041C0000363036843F00403036001234361026057
:1041D00010BD000000000140000400400008004045
:1041E000000C004000040140004001400044014038
:1041F0000048014000180040001C00400020004022
:1042000030B50C46816821F47F4142EA03252543FD
:104210002943816030BD0A46816821F0700142F077
:10422000070319438160704730B50B461446026A94
:10423000056A25F001050562816921F0F00141EA76
:10424000041122F00A021A438161026230BD30B5C6
:104250000B461446026A056A25F01005056281695D
:1042600021F4704141EA043122F0A00242EA031233
:104270008161026230BD000010B50248FEF708FA05
:1042800010BD0000BC01002070B50446A56B0020E5
:10429000E8852846FEF7FBF970BD70B50646002597
:1042A000B46B20684069C0F3C01594F84100212820
:1042B00005D125B10020E084204600F0C8F8206830
:1042C0004069C0F3801594F84200222805D125B139
:1042D0000020E085204600F074F8606C40F010008B
:1042E00060642046FEF7D3F970BD70B50546AC6B2F
:1042F0002868006800F48070002842D1E08500BF83
:1043000000BF21680C3151E8001F21F48070216842
:104310000C3141E80002002AF3D100BF00BF00BF0A
:104320002168143151E8001F21F001002168143187
:1043300041E80002002AF3D100BF00BF00BF21689E
:10434000143151E8001F21F040002168143141E888
:104350000002002AF3D100BF202084F84200206B25
:1043600001280ED100BF00BF21680C3151E8001FA9
:1043700021F0100021680C3141E80002002AF3D13D
:1043800000BF00206063206B012804D1A18D20466E
:10439000FEF7AAF802E02046FEF768FC70BD70B593
:1043A0000546AC6B01206063206B012805D1A08D10
:1043B00041082046FEF798F802E02046FEF757FC39
:1043C00070BD00BF00BF02680C3252E8002F22F41B
:1043D000907102680C3242E80013002BF3D100BF49
:1043E00000BF00BF0268143252E8002F22F0010122
:1043F0000268143242E80013002BF3D100BF016BB6
:1044000001290ED100BF00BF02680C3252E8002F14
:1044100022F0100102680C3242E80013002BF3D1A5
:1044200000BF202180F8421000210163704710B5C1
:1044300004462068C06820F040002168C860202041
:1044400084F841002046FEF772FC002010BD00BF3A
:1044500000BF02680C3252E8002F22F0C00102684F
:104460000C3242E80013002BF3D100BF202180F86A
:1044700041107047F8B504460025002694F8420024
:10448000222873D1A068B0F5805F0BD1206948B9AC
:10449000A66A20684068C0F308003080A06A801CCB
:1044A000A06214E0A56AA068B0F5805F03D0A068A0
:1044B00028B9206918B920684068287004E020688D
:1044C000406800F07F002870A06A401CA062E08D68
:1044D000401E80B2E085002846D12068C06820F0E8
:1044E00020002168C8602068C06820F480702168BE
:1044F000C8602068406920F00100216848612020E0
:1045000084F8420000206063206B012826D100203F
:10451000206300BF00BF21680C3151E8001F21F06B
:10452000100021680C3141E80002002AF3D100BFDD
:104530002068006800F0100010280AD100BF002099
:10454000009020680068009020684068009000BFDC
:1045500000BFA18D2046FDF7C7FF02E02046FEF711
:1045600085FB0020F8BD01E00020FBE70220F9E711
:104570002DE9F84F04462068006920F44050E168B6
:104580000843216808612169A068084361690843FC
:10459000E169084300902068C06849F20C618843D3
:1045A000009908432168C8602068406920F4407081
:1045B000A16908432168486176492068884203D090
:1045C00075492068884203D1FDF726F8814602E04C
:1045D000FDF712F88146E069B0F5004F6CD102207A
:1045E0006168A0FB015003461920A9FB0070014639
:1045F0002A463846FBF738FE6421B0FBF1F04FEA5B
:10460000001A02206168A0FB01510B461920A9FB8A
:1046100000712A463846FBF727FE83460220616870
:10462000A0FB015003461920A9FB00712A46384619
:10463000FBF71AFE6421B0FBF1F000EBC00101EBC7
:104640000010ABEB8000322101EBC0006421B0FB15
:10465000F1F000F0F8000AEB400A02206168A0FBCC
:10466000015003461920A9FB007001462A4638462E
:10467000FBF7FAFD834602206168A0FB0150034668
:104680001920A9FB00712A463846FBF7EDFD64218D
:10469000B0FBF1F000EBC00101EB0010ABEB8000D0
:1046A000322101EBC0006421B0FBF1F000F0070003
:1046B0005044216888606AE004206168A0FB0150D2
:1046C00003461920A9FB007001462A463846FBF72D
:1046D000CBFD824604206168A0FB015003461920EF
:1046E000A9FB007001462A463846FBF7BDFD642150
:1046F000B0FBF1F000EBC00101EB0010AAEB800071
:10470000322101EB00106421B0FBF1F000F0F00A5F
:1047100004206168A0FB017003461920A9FB005129
:104720003A462846FBF7A0FD6421B0FBF1F00AEB06
:10473000001A04206168A0FB01510B461920A9FB57
:1047400000712A463846FBF78FFD834604206168D6
:10475000A0FB015003461920A9FB007001462A4620
:104760003846FBF781FD6421B0FBF1F000EBC0019E
:1047700001EB0010ABEB8000322101EB0010642153
:10478000B0FBF1F000F00F00504421688860BDE8F4
:10479000F88F0000001001400014014077B581B08F
:1047A000044615460298A062A58500206064222078
:1047B00084F842002C48E16BC8632C48E16B086424
:1047C0002B48E16BC8640020E16B086502AE3268DB
:1047D0002368191D2B46E06BFCF71CFA38B110203A
:1047E0006064202084F84200012004B070BD00BF46
:1047F00000200090206800680090206840680090C9
:1048000000BF00BF206970B100BF00BF21680C313C
:1048100051E8001F41F4807021680C3141E800022A
:10482000002AF3D100BF00BF00BF2168143151E856
:10483000001F41F001002168143141E80002002A04
:10484000F3D100BF00BF00BF2168143151E8001F41
:1048500041F040002168143141E80002002AF3D100
:1048600000BF0020C1E70000EB4200089F430008A2
:104870009B420008014691F84100212828D1886810
:10488000B0F5805F0BD1086948B90A6A1088C0F397
:1048900008000B685860086A801C086205E00B6A13
:1048A000581C086218780B685860C88C401E80B28B
:1048B000C88458B90868C06820F080000B68D860C8
:1048C0000868C06840F040000B68D860002070475E
:1048D0000220FCE72DE9F84304460D4617469846AA
:1048E000089E31E0701C70B3FCF7FAFAA0EB0800E8
:1048F000B04200D816B90320BDE8F8832068C0682C
:1049000000F00400F8B1802D1ED0402D1CD020688E
:104910000068C0F3C000B0B100BF00200090206864
:104920000068009020684068009000BF00BF2046EB
:10493000FFF747FD0820606400BF002084F84000B6
:1049400000BF0120D8E7FFE7206800682840A842A0
:1049500001D1012000E00020B842C3D00020CBE705
:1049600010B50248FDF794FE10BD000004020020BF
:1049700010B50248FDF78CFE10BD00004C0200206F
:1049800010B50848007858B107480178074800F08A
:1049900069FB40210548FBF792FD002001490870A2
:1049A00010BD00002C0000202D00002075190020F3
:1049B00010B50548007830B140210448FBF77FFD71
:1049C00000200149087010BD280000207518002043
:1049D00000BFFEE710B50446240300F0CDF900F057
:1049E00045F9002210210C48FCF774FA202000F051
:1049F00029F9C4F3074000F025F9C4F3072000F0BB
:104A000021F9E0B200F01EF9012210210248FCF762
:104A100061FA00F02BF910BD0000024010B5FEF75E
:104A2000B3FC002210211148FCF754FAFF2000F0DB
:104A300009F9012210210D48FCF74CFA00F09CF80E
:104A40000B49088000F046F80A4908600A4800F05F
:104A5000D1F80748008800F46F40B0F56F4F02D0DE
:104A60004FF0FF3010BD0020FCE7000000000240C6
:104A700004000020080000200C0000202DE9F04177
:104A800006460C461746002210211148FCF722FA70
:104A9000032000F0D7F8C4F3074000F0D3F8C4F3C4
:104AA000072000F0CFF8E0B200F0CCF8002505E0D8
:104AB000FF2000F0C7F87055681C85B2BD42F7DBD7
:104AC000012210210248FCF705FABDE8F081000040
:104AD0000000024038B50024002000900022102180
:104AE0001248FCF7F7F95A2000F0ACF8002000F06B
:104AF000A9F8002000F0A6F8842000F0A3F8002018
:104B000000F0A0F800BF05E0FF2000F09BF80DF8D2
:104B10000400641C042CF7D3012210210348FCF785
:104B2000D9F90098401CC00838BD000000000240C0
:104B3000F8B504460D461646B4F5806F01DA05B1A6
:104B40000EB90120F8BD4FF4805000EB8407042219
:104B500039466846FFF792FF9DF800009DF8011066
:104B600040EA012028809DF802009DF8031040EAE9
:104B7000012030800020E5E710B50024002210213C
:104B80000F48FCF7A7F9902000F05CF8002000F037
:104B900059F8002000F056F8002000F053F8FF20EC
:104BA00000F050F844EA0024FF2000F04BF80443E2
:104BB000012210210248FCF78DF9204610BD0000AB
:104BC0000000024010B50024002210210848FCF724
:104BD00081F9052000F036F8FF2000F033F8044694
:104BE000012210210248FCF775F9204610BD000093
:104BF0000000024070B50546002400221021104834
:104C0000FCF768F94B2000F01DF8002000F01AF8BE
:104C1000002000F017F8002000F014F8002000F049
:104C200011F800BF04E0FF2000F00CF82855641CC8
:104C3000082CF8DB012210210148FCF74BF970BD6C
:104C40000000024001B582B0002001900A2001233B
:104C500001AA02A900900448FDF73CF808B1FF2022
:104C600001909DF804000EBD1C01002010B500BF8E
:104C7000FFF7A8FF00F001000028F9D110BD0000E7
:104C80002DE9F05F81460F461646DFF8A8B04FEADF
:104C90001738C7F30B0ACAF58054A64200DC344625
:104CA00044E04FEA08314FF480525846FFF7E6FEE1
:104CB000002508E00AEB05001BF80000FF2800D0E3
:104CC00003E0681C85B2A542F4DB00BFA54216DAFA
:104CD0004046FFF77FFE002507E019F8050005EBC9
:104CE0000A010BF80100681C85B2A542F5DB4FEA0A
:104CF00008314FF48052584600F050F804E0224644
:104D00003946484600F04AF8A64200D10FE008F1C3
:104D100001084FF0000AA1442744301B86B2B6F5C3
:104D2000805F02DD4FF4805400E03446B9E700BFF5
:104D3000BDE8F09F35080020F8B504460D4616463C
:104D4000B4F5806F01DB0120F8BD4FF4805000EB1B
:104D50008407E8B28DF80000280A8DF80100F0B24F
:104D60008DF80200300A8DF80300042239466846A7
:104D7000FFF786FF0020E7E710B500221021064864
:104D8000FCF7A8F80620FFF75DFF0122102102487A
:104D9000FCF7A0F810BD0000000002402DE9F04132
:104DA00007460E461446F0B2C0F58075AC4200DCF2
:104DB000254612E02A463146384600F013F8AC4248
:104DC00000D10BE02F442E44601B84B2B4F5807FE9
:104DD00002DD4FF4807500E02546EBE700BFBDE83B
:104DE000F08100002DE9F04106460C461746FFF71A
:104DF000C3FF002210211148FCF76CF80220FFF7D6
:104E000021FFC4F30740FFF71DFFC4F30720FFF79E
:104E100019FFE0B2FFF716FF002504E0705DFFF711
:104E200011FF681C85B2BD42F8DB01221021034846
:104E3000FCF750F8FFF71AFFBDE8F08100000240D0
:104E40000146087800F0800008B901207047087812
:104E500000F0E000C02801D10220F7E7087800F058
:104E6000F000E02801D10320F0E7087800F0F80016
:104E7000F02801D10420E9E70020E7E702480068B4
:104E8000C0F30220704700000CED00E010B50028D0
:104E900004DB0A07130E054A135406E00A07140E32
:104EA000034A00F00F031B1FD45410BD00E400E0C0
:104EB00018ED00E030B5024600230124116808789F
:104EC0002D2802D15C1E491C03E008782B2800D154
:104ED000491C06E00878303803EB830500EB4503F6
:104EE000491C0878302802DB08783928F2DD116087
:104EF00003FB04F030BD0000F0B502460C4621462D
:104F00002346002A04DA2D2001F8010B52425B1CD3
:104F100000BF15460A2092FBF0F202EB8200A5EBDF
:104F200040000AA7385C01F8010B002AF1D10020EB
:104F300001F8010905E00E78187801F8010903F875
:104F4000016B8B42F7D32046F0BD00003031323385
:104F50003435363738390000FCF7B8F9FFF774F804
:104F6000FEF75CF9FEF71EF9FEF766FAFEF780FA27
:104F7000FEF7ECF9FEF72AFAFEF796FAFEF704FAC6
:104F800043F69820FBF790FEFFF748FDFEF71AFB6B
:104F9000FEF7EEFAFEF7D6FA0C4A111F0020FFF7D3
:104FA000C7FD0023012211460948FBF7E1FB00235E
:104FB000012211460748FBF7DBFBFEF7F5FD00F089
:104FC00011F901E000F014F9FCE70000BC0000203A
:104FD00004020020BC0100202DE9F84305460F46DD
:104FE000781B042802DB2878242801D0BDE8F88348
:104FF00095F8018005F10309CDF800906846FFF7A8
:1050000059FF0646009800782C2807D10098401CCC
:1050100000906846FFF74EFF044600E00024B8F118
:10502000430F0FD0B8F14C0F06D0B8F14F0F0FD18E
:105030000948066044600BE030B20849086020B2BD
:10504000486005E030B20649086020B2486000BF01
:1050500000BF00BFCAE70000A8000020B000002089
:10506000B80000202DE9F04105460E46002415E069
:105070002F5D242F03D128190A4908600CE0232F43
:105080000AD10848006838B1291906480068FFF7B6
:10509000A3FF002003490860601C84B2B442E7DB30
:1050A000BDE8F081C000002010B52DED028B044654
:1050B000B0EE408A84ED048A204600F008F82046CD
:1050C00000F06CF894ED050ABDEC028B10BD90ED7C
:1050D000030AD0ED040A30EE600A80ED070A90ED75
:1050E0000B0AD0ED070A30EE200A80ED0B0A90ED96
:1050F000000AD0ED070A20EE200A80ED0C0A90EDA0
:10510000010AD0ED0B0A20EE200A80ED0D0A90ED89
:10511000070AD0ED080A30EE600AD0ED020A20EE50
:10512000200A80ED0E0A90ED0C0AD0ED0D0A30EE4B
:10513000200AD0ED0E0A30EE200A80ED050A90ED2F
:10514000070A80ED080A704780ED000AC0ED010AE9
:1051500080ED021AC0ED031A80ED062ADFED0E2A5B
:10516000C0ED0B2ADFED0C2AC0ED082ADFED0A2A7C
:10517000C0ED092ADFED082AC0ED052ADFED062A79
:10518000C0ED0C2ADFED042AC0ED0D2ADFED022A66
:10519000C0ED0E2A704700000000000090ED050AE7
:1051A000D0ED060AB4EEE00AF1EE10FA04DD90ED5F
:1051B000060A80ED050A10E090ED050AD0ED060A1A
:1051C000F1EE600AB4EEE00AF1EE10FA05D290EDCD
:1051D000060AB1EE400A80ED050A704780ED030A29
:1051E000704700000320014908707047300000201C
:1051F00070B500241EE0FBF773FE054604EB440087
:105200000F4901EB8000406804EB44010C4A02EBBB
:10521000810189680844A8420AD804EB4400114679
:1052200001EB8000856004EB440152F821008047C7
:10523000601CC4B2034800788442DCDB70BD00000F
:1052400034000020300000204FF04070E1EE100AE2
:10525000704700000000000000000000002F000068
:1052600000000700070000147F147F1400242A7F29
:105270002A120062640813230036495522500000A8
:105280000503000000001C224100000041221C0018
:105290000014083E08140008083E0808000000A09A
:1052A0006000000808080808000060600000002096
:1052B00010080402003E5149453E0000427F400074
:1052C000004261514946002141454B3100181412FA
:1052D0007F10002745454539003C4A4949300001C7
:1052E0007109050300364949493600064949291E16
:1052F0000000363600000000563600000008142278
:105300004100001414141414000041221408000277
:105310000151090600324959513E007C1211127C9C
:10532000007F49494936003E41414122007F4141C9
:10533000221C007F49494941007F09090901003EBB
:105340004149497A007F0808087F0000417F4100F9
:10535000002040413F01007F08142241007F40406F
:105360004040007F020C027F007F0408107F003E57
:105370004141413E007F09090906003E4151215E3D
:10538000007F091929460046494949310001017F3A
:105390000101003F4040403F001F2040201F003FD0
:1053A0004038403F00631408146300070870080782
:1053B00000615149454300007F41410000552A5595
:1053C0002A55000041417F00000402010204004010
:1053D0004040404000000102040000205454547832
:1053E000007F484444380038444444200038444452
:1053F000487F00385454541800087E0901020018F0
:10540000A4A4A47C007F080404780000447D40002C
:10541000004080847D00007F102844000000417F10
:105420004000007C04180478007C080404780038EC
:105430004444443800FC242424180018242418FC74
:10544000007C0804040800485454542000043F44DD
:105450004020003C4040207C001C2040201C003CA0
:105460004030403C004428102844001CA0A0A07CF0
:10547000004464544C44141414141414080600001A
:10548000545200080000000000000000000000006E
:105490000000FC000000000002000000000C020CF4
:1054A000020000000000000090D0BCD0BC900003BF
:1054B000000300001824FE448C00030207020100D0
:1054C0001824D8B04C80000300010201C038E43831
:1054D000E0000102020102020806000000000000D4
:1054E00000000000000000F80402000000010204B7
:1054F000000204F800000004020100009060F8605F
:1055000090000000010000002020FC20200000008E
:10551000010000000000000000000806000000007C
:1055200020202020200000000000000000000000DB
:1055300000000002000000000080601C0200040364
:1055400000000000F8040404F80001020202010057
:105550000008FC000000000203020000188444243C
:10556000180003020202020008042424D8000102E9
:105570000202010040B088FC80000000000302002D
:105580003C242424C400010202020100F824242C3B
:10559000C0000102020201000C04E41C040000002F
:1055A00003000000D8242424D800010202020100D4
:1055B00038444444F80000030202010000001000D7
:1055C00000000000020000000000200000000000B9
:1055D00006000000002050880402000000000102C4
:1055E000909090909000000000000000000204885D
:1055F00050200002010000001804C424180000001C
:1056000002000000F804E494F80001020202020023
:1056100000E09CF0800002030000030204FC24244C
:10562000D800020302020100F80404040C00010285
:105630000202010004FC0404F8000203020201005B
:1056400004FC24740C0002030202030004FC247412
:105650000C00020302000000F0080444CC400001EA
:105660000202010004FC2020FC04020300000302EB
:105670000404FC040400020203020200000404FC0F
:10568000040406040403000004FC24D00C040203F8
:105690000200030204FC04000000020302020203F1
:1056A000FC3CC03CFC0003000300030004FC30C4CD
:1056B000FC04020302000300F8040404F8000102E1
:1056C0000202010004FC242418000203020000006E
:1056D000F8848404F80001020207050004FC246435
:1056E0009800020302000302182424448C000302E1
:1056F000020201000C04FC040C0000020302000082
:1057000004FC0000FC04000102020100047C80E0B3
:105710001C040000030000001CE03CE01C0000032F
:1057200000030000049C609C0400020300030200CC
:10573000041CE01C04000002030200000C84641C32
:1057400004000203020203000000FE020200000047
:1057500007040400000E30C0000000000001020039
:10576000000202FE0000000404070000000402041E
:105770000000000000000000000000000000080819
:1057800008080808000002000000000000000000F7
:105790000040A0A0C00000010202030204FC20207F
:1057A000C00000030202010000C0202060000001D0
:1057B0000202020000C02024FC00000102020302D9
:1057C00000C0A0A0C0000001020202000020F824D6
:1057D00024040002030202000040A0A06020000791
:1057E0000A0A0A0404FC2020C0000203020003028B
:1057F0000020E4000000000203020000000020E49A
:10580000000008080807000004FC80E020200203D4
:10581000020003020404FC00000002020302020072
:10582000E020E020C00003000300030020E020206F
:10583000C00002030200030200C02020C0000001DB
:105840000202010020E02020C000080F0A0201002F
:1058500000C02020E0000001020A0F0820E04020E4
:1058600020000203020000000060A0A0200000024F
:10587000020203000020F8200000000001020200E4
:1058800020E00020E00000010202030220E020806E
:1058900060200000030100006080E08060000003E1
:1058A000000300002060806020000203000302006B
:1058B00020E0208060200808070100000020A06090
:1058C0002000000203020200000020DE02000000AF
:1058D00000070400000000FF00000000000F0000AF
:1058E0000002DE20000000040700000002010204A4
:1058F00004020000000000000C06000084540008B0
:105900000000000000000000000000000000000097
:10591000000000F80000000000000033300000002C
:1059200000100C06100C0600000000000000000033
:1059300040C07840C0784000043F04043F040400A5
:10594000007088FC08300000001820FF211E0000B5
:10595000F008F000E018000000211C031E211E00CA
:1059600000F00888700000001E2123241927211050
:1059700010160E00000000000000000000000000F3
:10598000000000E01804020000000007182040009A
:1059900000020418E000000000402018070000008A
:1059A000404080F0804040000202010F01020200EE
:1059B000000000F0000000000101011F01010100D2
:1059C000000000000000000080B070000000000037
:1059D00000000000000000000001010101010101C0
:1059E0000000000000000000003030000000000057
:1059F000000000008060180400601806010000002C
:105A000000E010080810E000000F102020100F0028
:105A1000001010F8000000000020203F20200000AF
:105A20000070080808887000003028242221300007
:105A300000300888884830000018202020110E000F
:105A40000000C02010F8000000070424243F2400B8
:105A500000F80888880808000019212020110E008D
:105A600000E0108888180000000F112020110E009F
:105A700000380808C83808000000003F0000000097
:105A80000070880808887000001C222121221C0058
:105A900000E010080810E0000000312222110F0081
:105AA000000000C0C0000000000000303000000016
:105AB0000000008000000000000080600000000086
:105AC000000080402010080000010204081020009F
:105AD00040404040404040000404040404040400EA
