:020000040800F2
:1000000020130020A1010008E93F0008ED3400089A
:10001000693D0008E307000855540008000000008F
:100020000000000000000000000000005D48000823
:100030001309000800000000F9460008C548000840
:10004000BB010008BB010008BB010008BB010008A0
:10005000BB010008BB010008BB010008BB01000890
:10006000BB010008BB010008BB010008BB01000880
:10007000BB010008E9070008BB010008BB0100083C
:10008000F9070008BB010008BB010008BB0100081C
:10009000BB010008BB010008BB010008BB01000850
:1000A000BB010008BB010008BB010008BB01000840
:1000B00095490008A5490008B5490008BB0100089A
:1000C000BB010008BB010008BB010008BB01000820
:1000D000BB010008BB010008E1530008BB01000898
:1000E000BB010008BB010008BB010008BB01000800
:1000F000BB010008BB010008BB010008BB010008F0
:10010000BB010008BB010008BB010008BB010008DF
:10011000F94C0008BB010008BB010008BB01000846
:10012000BB010008BB010008BB010008BB010008BF
:10013000BB010008BB010008BB010008BB010008AF
:10014000BB010008BB010008BB010008BB0100089F
:10015000BB010008BB010008BB010008BB0100088F
:10016000BB010008BB010008BB010008BB0100087F
:10017000BB010008BB010008BB0100080000000033
:10018000BB010008BB010008DFF810D000F0ECFA5A
:100190000048004763690008AFF300802013002087
:1001A0000648804706480047FEE7FEE7FEE7FEE711
:1001B000FEE7FEE7FEE7FEE7FEE7FEE7814900080F
:1001C000890100082DE9F05F0546002092469B4614
:1001D00088460646814640241BE02846414647465D
:1001E000224600F0A2F953465A46C01A914110D354
:1001F00011461846224600F089F92D1A67EB0108CE
:100200004F4622460120002100F080F917EB00093B
:100210004E41201EA4F10104DFDC484631462A4647
:100220004346BDE8F09F40EA01039B0703D009E085
:1002300008C9121F08C0042AFAD203E011F8013BD2
:1002400000F8013B521EF9D27047D2B201E000F82B
:10025000012B491EFBD270470022F6E710B513466A
:100260000A4604461946FFF7F0FF204610BD30B598
:1002700004460020034600E05B1C934203D2E05C8E
:10028000CD5C401BF8D030BD2DE9FE4F804681EAA1
:100290000300C00F0C46009021F0004123F0004500
:1002A000B8EB0200A94105D24046214690461C46C3
:1002B0000B46024623F00040104347D0270DC7F3FA
:1002C0000A00C3F30A510290401A019040286BDAE9
:1002D000C3F3130040F4801B0098924620B1002322
:1002E000D2EB030A63EB0B0B01985946C0F14002B5
:1002F000504600F00BF906460D4650465946019A05
:1003000000F023F910EB08006141002487EA115244
:1003100084EAE7731A4340D0009A62B3019A012A33
:100320004FEA075215DC001B61EB02014FF000425F
:1003300002EA0752CDE90042001C41F58011324625
:100340002B4600F023F903B0BDE8F08F404621466C
:10035000F9E7001B61EB0201001C41F58013001856
:100360005B412018A2F5001747EB030140EAD57066
:10037000B6196D4111E06D084FEA360645EAC075C1
:100380004FEA0752001B61EB0201001C41F580118E
:1003900049084FEA30000019514132462B4603B05C
:1003A000BDE8F04F00F0E3B80098012240000023C0
:1003B000D0EB020263EBE073009821464FEAE07451
:1003C000B8EB000061EB0401E9E783F000435BE771
:1003D00081F0004158E72DE9FE4F81EA030404F063
:1003E000004421F0004100944FF0000B23F0004343
:1003F00050EA01045ED052EA03045BD0C3F30A540E
:10040000C1F30A552C44A4F2F3340194A0FB025426
:10041000C1F3130141F48011C3F3130343F48013B8
:1004200001FB024400FB034E840A970A44EA81540C
:1004300047EA8357A4FB076802958D0A05FB0785E9
:100440004FEA932C04FB0C542705029D4FEA0658F3
:1004500047EA1637B5EB08056EEB070C870E920ED0
:1004600047EA811742EA8312A7FB0201B6EB0B01B0
:1004700064EB00042B0D43EA0C335E1844EB1C5074
:10048000DA465146E7FB0201C5F313044FEA0B338A
:1004900043EA14534FEA0432019C43EA0603A4F1F1
:1004A0000C040294009CCDE900B400F06FF803B096
:1004B000BDE8F08F00200146F9E700F0004230F07F
:1004C00000400AD0C10D01F56071C0F3160042EA88
:1004D0000151C20840071143704700200146704790
:1004E00030B50B46014600202022012409E021FA04
:1004F00002F59D4205D303FA02F5491B04FA02F501
:100500002844151EA2F10102F1DC30BD202A04DBD3
:10051000203A00FA02F1002070479140C2F1200316
:1005200020FA03F3194390407047202A04DB203A55
:1005300021FA02F00021704721FA02F3D040C2F103
:1005400020029140084319467047202A06DBCB174A
:10055000203A41FA02F043EAE07306E041FA02F37E
:10056000D040C2F12002914008431946704710B5AF
:10057000141E73F1000408DA401C41F100019218C6
:100580005B411A4301D120F0010010BD2DE9F04D6F
:1005900092469B4611B1B1FA81F202E0B0FA80F2C4
:1005A00020329046FFF7B2FF04460F4640EA0A00A9
:1005B00041EA0B0153465A46084313D0114653EA09
:1005C000010019D0C8F140025046FFF7AEFF0546C2
:1005D0000E46504659464246FFF798FF084305D05D
:1005E000012004E020463946BDE8F08D0020054397
:1005F00046EAE0762C4337430A986305E40AA0EB09
:1006000008000022FD0A44EA47540A3002D50020BF
:100610000146E9E7010510196941DDE908450019BE
:100620006941BDE8F04DA2E72DE9F04D81EA0304F0
:1006300004F0004B21F0004514464FF0000A23F06F
:10064000004150EA050220D054EA01021DD0C5F352
:100650000A570246C5F31303C1F31300C1F30A5648
:1006600040F4801543F48013A7EB0608101BD64610
:1006700008F2FD3873EB050002D308F1010801E030
:1006800092185B41B8F1000F03DA00200146BDE883
:10069000F08D00204FF48011064684460EE0171BB3
:1006A00073EB050705D3121B63EB050306434CEA06
:1006B000010C49084FEA300092185B4150EA0107EB
:1006C000EDD152EA030012D082EA040083EA050168
:1006D000084305D0101BAB4106D20122002306E0DF
:1006E00000224FF0004302E06FF0010253101AEBBA
:1006F00006004CEB085110EB0A0041EB0B01BDE882
:10070000F04DFFF734BFC1F30A52C1F3130140F2B9
:10071000FF3341F480119A4202DA0020014670470B
:1007200040F233439A42A2F2334202DC5242FFF7D4
:10073000FCBEFFF7EBBE000030B5041E71F10004F3
:1007400004DB4FF00044404264EB0101141E73F1DE
:10075000000405DB1C464FF00043524263EB0403E8
:10076000994208BF904230BD064C074D06E0E06854
:1007700040F0010394E8070098471034AC42F6D3E8
:10078000FFF706FD348B0008548B000870B58C18F9
:1007900010F8015B15F0070301D110F8013B2A1195
:1007A00006D110F8012B03E010F8016B01F8016B82
:1007B0005B1EF9D12B0705D40023521E0DD401F87E
:1007C000013BFAE710F8013BCB1A921C03E013F847
:1007D000015B01F8015B521EF9D5A142D8D300207C
:1007E00070BD00BFFEE7000010B5024800F002FA3D
:1007F00010BD00009403002010B5024800F0FAF983
:1008000010BD0000F40300200146087810381823BA
:10081000B0FBF3F20848805CC865032A05D9086874
:100820006FF30900001D886503E008686FF3090095
:100830008865886D70470000048B00080146002021
:100840008A6A8B69CBB932B1012A0DD0022A03D052
:10085000032A10D10EE000BFCB6A03F08073B3F11E
:10086000807F00D1012007E0CB6AB3F1C07F00D1C7
:10087000012001E000E000BF34E08B69B3F5005FC8
:100880001AD132B1012A07D0022A03D0032A11D18A
:100890000AE000BF01200EE0CB6A03F08073B3F1E1
:1008A000807F00D1012006E0CB6AB3F1C07F00D188
:1008B000012000E000BF15E032B1012A05D0022A74
:1008C00004D0032A0CD103E000BF00BF012008E0E0
:1008D000CB6A03F08073B3F1807F00D1012000E088
:1008E00000BF00BF704730B50468246824F480243A
:1008F00005682C60046863608468402C04D1046837
:10090000A2600468E16003E00468A1600468E2603A
:1009100030BD704770B504460D46164625602671F9
:100920003C21206801F068FF0020216809684862C6
:10093000E080A0609FED020A84ED030A70BD000014
:100940000000000001680968496A09B2C1800179A4
:1009500011B9B0F9061002E0B0F90610494209B227
:10096000C1800021026812685162B0F906208168D6
:1009700011448160B0F9061000EE901AF8EEE00A1A
:100980009FED111AC0EE811ADFED100A61EEA00A88
:100990009FED0F1A80EE810ADFED0E0A60EE200A4D
:1009A00090ED031ADFED0C1A41EE810AC0ED030A47
:1009B000D0ED040A90ED031ADFED051A41EE810A2D
:1009C000C0ED040A70470000000082443B467141BC
:1009D0000AD7A33B9A99993E3333333F10B5074862
:1009E00001F040FD012206490648FFF793FF00226F
:1009F00005490648FFF78EFF10BD00002C020020BD
:100A0000740200207C0A0020BC020020900A002012
:100A100010B50348FFF796FF0248FFF793FF10BD9C
:100A20007C0A0020900A002072B600BFFEE700009A
:100A300010B5002410211B4800F0CAFB08B944F08F
:100A400001042021174800F0C3FB08B944F0020458
:100A50004FF48071134800F0BBFB08B944F0040464
:100A60004FF400710F4800F0B3FB08B944F00804DC
:100A70004FF480610C4800F0ABFB08B944F010045F
:100A80004FF40061084800F0A3FB08B944F02004CB
:100A90001021054800F09CFB08B944F040042046B2
:100AA00010BD000000080240000C024010B52DED02
:100AB000028BFFF7BDFF164908709FED160AB0EED6
:100AC000408A0024002012E011490978014101F018
:100AD000010151B1104901EB800191ED000A30EEA6
:100AE000080AB0EE408A611CCCB2411CC8B207288B
:100AF000EADB002C08DD00EE104AB8EE400AC8EE32
:100B0000000A0648C0ED000ABDEC028B10BD0000D3
:100B10002C00002000000000300000204C000020CD
:100B200070B50446A56D00F061FB064694F83500EB
:100B3000022808D08020606500BF002084F83400BF
:100B400000BF012070BD2068006820F016002168F9
:100B500008602068406920F0800021684861206CAE
:100B600008B9A06C28B12068006820F0080021684E
:100B700008602068006820F001002168086010E02B
:100B800000F034FB801B05280BD920206065032072
:100B900084F8350000BF002084F8340000BF032033
:100BA000D0E72068006800F001000028E8D194F840
:100BB0005C103F208840A860012084F8350000BF09
:100BC000002084F8340000BF00BFBBE7014691F865
:100BD0003500022803D08020486501207047052099
:100BE00081F835000868006820F001000A6810608C
:100BF0000020F3E7F8B50446002000908C48006818
:100C00004FF41651B0FBF1F7A56D2E6894F85C1007
:100C100008208840304098B12068006800F0040047
:100C200070B12068006820F004002168086094F822
:100C30005C1008208840A860606D40F0010060658D
:100C400094F85C1001208840304068B12068406909
:100C500000F0800040B194F85C1001208840A8604A
:100C6000606D40F00200606594F85C1004208840DC
:100C7000304068B12068006800F0020040B194F88C
:100C80005C1004208840A860606D40F0040060653E
:100C900094F85C1010208840304078B320680068D9
:100CA00000F0080050B394F85C1010208840A86051
:100CB0002068006800F4802080B12068006800F49B
:100CC000002028B9206CC8B12046216C884715E067
:100CD000A06C98B12046A16C88470FE0206800689E
:100CE00000F4807028B92068006820F008002168AE
:100CF0000860206C10B12046216C884794F85C1085
:100D0000202088403040002865D02068006800F02E
:100D1000100000285FD094F85C1020208840A86064
:100D200094F83500052828D12068006820F01600C6
:100D3000216808602068406920F0800021684861CF
:100D4000206C08B9A06C28B12068006820F0080069
:100D50002168086094F85C103F208840A86001205A
:100D600084F8350000BF002084F8340000BF206DF7
:100D700010B12046216D8847F8BD2068006800F456
:100D8000802080B12068006800F4002028B9606CE1
:100D900010B12046616C88471DE0E06BD8B1204659
:100DA000E16B884717E02068006800F4807068B93C
:100DB0002068006820F0100021680860012084F895
:100DC000350000BF002084F8340000BFE06B10B194
:100DD0002046E16B8847606D38B3606D00F001001C
:100DE000F0B1052084F835002068006820F001008B
:100DF0002168086000BF0098401C0090B84200D9EC
:100E000005E02068006800F001000028F3D100BF71
:100E1000012084F8350000BF002084F8340000BFB2
:100E2000E06C10B12046E16C884700BFA4E70000E9
:100E3000200000202DE9F0410446002500F0D6F9FD
:100E4000074614B90120BDE8F081606A00B100BF17
:100E5000022084F8350000BF002084F8340000BF71
:100E60002068006820F00100216808600AE000F0B6
:100E7000BDF9C01B052805D920206065032084F832
:100E80003500E0E72068006800F001000028EED19E
:100E90002068056821480540D4E901010843E1685C
:100EA00008432169084361690843A1690843E1696E
:100EB0000843216A08430543606A042803D1D4E942
:100EC0000B0108430543206805602068456925F04B
:100ED0000705606A0543606A04280DD1A06A0543CE
:100EE000E06A48B12046FFF7A9FC28B140206065C0
:100EF000012084F83500A6E7206845612046FFF709
:100F000083FC064694F85C103F208840B0600020C7
:100F10006065012084F83500002094E73F8010F0E0
:100F20002DE9F04704460D4616461F464FF00008CF
:100F3000D4F8589000BF94F83400012802D1022060
:100F4000BDE8F087012084F8340000BF94F8350034
:100F5000012825D1022084F83500002060653B4639
:100F6000324629462046FFF7BEFC94F85C103F202D
:100F70008840C9F808002068006840F01600216821
:100F80000860206C28B12068006840F008002168E3
:100F900008602068006840F001002168086006E0F1
:100FA00000BF002084F8340000BF4FF00208404624
:100FB000C6E7000070B5044600F018F9064625465D
:100FC000681C10B104480078054400BF00F00EF919
:100FD000801BA842FAD370BD1C000020F8B5024661
:100FE0000B460025002400200021D6E0012606FA49
:100FF00001F51E6806EA0504AC4274D11E7906F0BC
:101000000306012E04D01E7906F00306022E13D12A
:1010100090684F000326BE40B0434F00DE68BE40DC
:1010200030439060506801268E40B0431E79C6F36D
:1010300000168E40304350601E7906F00306032EE2
:1010400009D0D0684F000326BE40B0434F009E68D1
:10105000BE403043D0601E7906F00306022E13D145
:10106000CF0802F1200656F827004E07F70E0F268C
:10107000BE40B0434F07FF0E1E69BE403043CF084D
:1010800002F1200646F8270010684F000326BE40F4
:10109000B0431E7906F003064F00BE403043106097
:1010A0005E6806F44036002E76D000BF002600961B
:1010B0003C4E366846F480463A4F3E603E463668BF
:1010C00006F48046009600BF00BF374E8F0856F8E2
:1010D00027008E07370F0F26BE40B043334EB24273
:1010E00002D1002624E057E0314EB24201D1012660
:1010F0001EE0304EB24201D1022619E02E4EB2421D
:1011000001D1032614E02D4EB24201D104260FE096
:101110002B4EB24201D105260AE02A4EB24201D13D
:10112000062605E0284EB24201D1072600E0082637
:101130008F073F0FBE4030431B4E8F0846F82700F5
:10114000224E3068A0435E6806F4801606B1204344
:101150001E4E3060361D3068A0435E6806F40016EF
:1011600006B12043194E361D3060184E361F3068C8
:10117000A0435E6806F4003606B12043134E361FC6
:101180003060361F3068A0435E6806F4803606B1D2
:1011900020430E4E083E3060491C1029FFF426AF54
:1011A000F8BD000044380240083801400000024009
:1011B0000004024000080240000C024000100240FF
:1011C0000014024000180240001C0240083C01408C
:1011D000024613690B400BB1012000E0002070476C
:1011E0000AB1816101E00B04836170470148006826
:1011F000704700001400002070B504460CB90120AF
:1012000070BD94F83D0028B9002084F83C002046C9
:1012100000F092F9242084F83D002068006820F056
:101220000100216808602068006840F400402168DF
:1012300008602068006820F400402168086000F021
:1012400061FB05465C496068884206D85B48854278
:1012500001D2012007E0002005E05948854201D273
:10126000012000E00020012800D1C9E75548B5FB66
:10127000F0F62068406820F03F0030432168486065
:101280004D496068884201D8701C07E04FF49670A1
:1012900070434FF47A71B0FBF1F0401C2168096A89
:1012A00021F03F0108432168086243496068884291
:1012B00014D8681E61684900B0FBF1F0401CC0F30F
:1012C0000B00042801D204203DE0681E616849003B
:1012D000B0FBF1F0401CC0F30B0034E0A06838B95B
:1012E000681E616801EB4101B0FBF1F0401C0AE0AF
:1012F000681E616801EBC10202EB0111B0FBF1F065
:10130000401C40F48040C0F30B0008B901201AE0F3
:10131000A06848B9681E616801EB4101B0FBF1F0BB
:10132000401CC0F30B000CE0681E616801EBC102B9
:1013300002EB0111B0FBF1F0401CC0F30B0040F4D4
:10134000804040F400402168C9694CF6FF72914327
:1013500008432168C861D4E9070108432168096886
:1013600021F0C001084321680860D4E90310084354
:101370002168896848F2FF329143084321688860F8
:10138000D4E9050108432168C96821F0FF01084339
:101390002168C8602068006840F00100216808608A
:1013A00000202064202084F83D000020206384F881
:1013B0003E0000BF24E70000A086010080841E00DC
:1013C00000093D0040420F002DE9F84304468946DC
:1013D00016461F46DDF82080FFF708FF054694F803
:1013E0003D0020287ED11923012251492046009535
:1013F00002F031F910B10220BDE8F88300BF94F883
:101400003C00012801D10220F6E7012084F83C00CD
:1014100000BF2068006800F0010028B9206800685B
:1014200040F00100216808602068006820F4006036
:1014300021680860212084F83D00102084F83E00D7
:101440000020206466626785608D20853948E062EF
:101450002B4642464946204602F06AF808B1012070
:10146000CAE700BF00200090206840690090206813
:101470008069009000BF00BF44E02A4641462046F4
:1014800002F0C5F950B1206C042805D1206800682D
:1014900040F40070216808600120ADE7606A0078C0
:1014A00021680861606A401C6062608D401E608532
:1014B000208D401E208520684069C0F3800070B1F7
:1014C000208D60B1606A007821680861606A401C04
:1014D0006062608D401E6085208D401E20852A46FA
:1014E000414600E022E0204602F082F850B1206C34
:1014F000042805D12068006840F400702168086065
:10150000012079E7208D0028B7D12068006840F4D9
:10151000007021680860202084F83D00002084F8D5
:101520003E0000BF84F83C0000BF65E7022063E78F
:10153000020010000000FFFF10B586B00446142121
:1015400001A8FEF789FE1B492068884230D100BF00
:10155000002000901848006840F00200164908601A
:101560000846006800F00200009000BF00BF4FF482
:10157000406001901220029000200390032004900C
:101580000420059001A90D48FFF728FD00BF0020A9
:10159000009009481030006840F48000064910317E
:1015A00008600846006800F48000009000BF00BF9B
:1015B00006B010BD00580040303802400004024020
:1015C00003480068034909780844014908607047E6
:1015D000140000201C00002010B50D48006840F4E5
:1015E00000700B4908600846006840F4806008609D
:1015F0000846006840F480700860032000F0A6F8F8
:101600000F2000F007F800F02BF8002010BD0000BC
:10161000003C024070B504460E4800784FF47A71E1
:10162000B1FBF0F00C490968B1FBF0F5284600F079
:10163000FBFD08B1012070BD102C07D2002221460D
:10164000501E00F045F80548046001E00120F2E773
:101650000020F0E71C0000202000002018000020DF
:1016600008B500BF002000900E48006840F480409C
:101670000C4908600846006800F48040009000BFF4
:1016800000BF00BF00200090081F006840F080509D
:10169000091F08600846006800F08050009000BFF5
:1016A00000BF08BD443802400146084600280DDB53
:1016B00000BF00BF00F01F0301229A4043099B00B6
:1016C00003F1E023C3F8002100BF00BF00BF704753
:1016D0002DE9F05F80460D461646002704F05AF9C2
:1016E000074639462A46334601F00700C0F1070A8B
:1016F000BAF1040F02D94FF0040A01E0C0F1070A61
:10170000D14600F1040ABAF1070F02D24FF0000AE5
:1017100001E0A0F1030AD4464FF0010A0AFA09FADF
:10172000AAF1010A0AEA020A0AFA0CFA4FF0010BBE
:101730000BFA0CFBABF1010B0BEA030B4AEA0B04AF
:101740002146404604F02EF9BDE8F09F00BF00F0AE
:101750000702064B19684FF6FF031940044B0B4371
:1017600043EA0221014B196000BF70470CED00E015
:101770000000FA0570B504460D460CB9012070BD95
:101780005848006800F00700A84209D255490D707A
:101790000846006800F00700A84201D00120EEE7EB
:1017A000207800F0020002281DD1207800F004000B
:1017B000042805D14C48006840F4E0504A490860CC
:1017C000207800F00800082805D14748006840F458
:1017D0006040454908604448006820F0F000A16876
:1017E000084341490860207800F00100A8B3606810
:1017F000012807D13C4808380068C0F34040B8B918
:101800000120BCE76068022802D06068032807D185
:10181000354808380068C0F3406048B90120AEE799
:10182000314808380068C0F3400008B90120A6E735
:101830002D48006820F00300616808432A490860C9
:10184000FFF7D4FC064609E0FFF7D0FC801B41F20D
:101850008831884202D9032091E707E022480068D6
:1018600000F00C006168B0EB810FEDD11D480068FD
:1018700000F00700A84209D91A490D70084600680F
:1018800000F00700A84201D0012078E7207800F09E
:101890000400042807D11448006820F4E050E168EF
:1018A000084311490860207800F00800082808D192
:1018B0000D48006820F46040216940EAC1000A49EF
:1018C000086000F03FF808490968C1F30311074AAE
:1018D000515CC8400649086006480068FFF79AFE58
:1018E00000204CE7003C0240083802400C8B000806
:1018F0002000002018000020014800687047000008
:101900002000002000B5FFF7F7FF04490968C1F384
:101910008221034A515CC84000BD000008380240E3
:101920001C8B000800B5FFF7E7FF04490968C1F305
:101930004231034A515CC84000BD000008380240F3
:101940001C8B00082DE9F047002400250026A14645
:101950002548006800F00C0020B1042805D00828B4
:101960003AD105E0DFF8849039E0DFF8849036E082
:101970001D48001F006800F03F041B48001F00685E
:1019800000F4800078B11A481749091F0968C1F3AB
:101990008811A0FB01700146224600233846FEF75D
:1019A00011FC05460EE011480F49091F0968C1F3F3
:1019B0008811A0FB01700146224600233846FEF73D
:1019C00001FC05460848001F0068C0F30140401CA8
:1019D0004600B5FBF6F902E0DFF8109000BF00BF4B
:1019E0004846BDE8F0870000083802400024F400B3
:1019F00000127A00F8B504460CB90120F8BD207831
:101A000000F00100002874D0F948006800F00C00D4
:101A100004280DD0F648006800F00C00082813D107
:101A2000F348001F006800F48000B0F5800F0BD170
:101A3000EF4808380068C0F34040002859D060687B
:101A4000002856D10120D9E700BF6068B0F5803F7B
:101A500008D1E7480838006840F48030E449083984
:101A600008601EE06068B0F5A02F0DD1E04808388E
:101A7000006840F48020DE490839086008460068A4
:101A800040F4803008600CE0D9480838006820F441
:101A90008030D749083908600846006820F4802063
:101AA000086000BF606890B1FFF7A0FB054606E044
:101AB000FFF79CFB401B642801D903209EE7CC481C
:101AC00008380068C0F340400028F1D011E0FFF76B
:101AD0008DFB054606E0FFF789FB401B642801D912
:101AE00003208BE7C24808380068C0F34040002854
:101AF000F1D1207800F0020002285FD1BC480068D4
:101B000000F00C0058B1BA48006800F00C0008283A
:101B10001CD1B748001F006800F48000B0B9B44879
:101B200008380068C0F3400020B1E068012801D007
:101B3000012063E7AE480838006820F0F80021690A
:101B400040EAC100AA490839086037E0E06800B3FC
:101B50000120A8490860FFF749FB054606E0FFF7AA
:101B600045FB401B022801D9032047E7A04808385D
:101B70000068C0F340000028F1D09D480838006894
:101B800020F0F800216940EAC1009949083908604D
:101B900014E0002097490860FFF728FB054606E09F
:101BA000FFF724FB401B022801D9032026E79048B9
:101BB00008380068C0F340000028F1D1207800F018
:101BC000080008282CD16069A8B101208A49086062
:101BD000FFF70CFB054606E0FFF708FB401B022859
:101BE00001D903200AE782486C300068C0F3400046
:101BF0000028F1D014E000207F490860FFF7F6FAD2
:101C0000054606E0FFF7F2FA401B022801D903203F
:101C1000F4E677486C300068C0F340000028F1D14A
:101C2000207800F00400042870D100277048383074
:101C3000006800F0805090B900BF002000906C4810
:101C40003830006840F080506949383108600846F3
:101C5000006800F08050009000BF00BF0127674877
:101C6000006800F48070B0B96448006840F4807087
:101C700062490860FFF7BAFA054606E0FFF7B6FAD0
:101C8000401B022801D90320B8E65C48006800F434
:101C900080700028F2D000BFA068012808D1544805
:101CA0006830006840F001005149683108601DE06B
:101CB000A06805280DD14E486830006840F0040047
:101CC0004B49683108600846006840F00100086030
:101CD0000CE047486830006820F001004449683152
:101CE00008600846006820F00400086000BFA06893
:101CF000A8B1FFF77BFA054609E0FFF777FA401B2A
:101D000041F28831884202D9032077E626E038483C
:101D100068300068C0F340000028EED013E0FFF701
:101D200065FA054608E0FFF761FA401B41F2883189
:101D3000884201D9032061E62D4868300068C0F36D
:101D400040000028EFD1012F07D129483830006822
:101D500020F0805026493831086000BFA069002873
:101D600045D02348006800F00C0008285DD0A06929
:101D7000022845D100201F490866FFF737FA0546BB
:101D800006E0FFF733FA401B022801D9032035E6AD
:101D9000174808380068C0F340600028F1D1D4E942
:101DA00007010843616A40EA81110122A06AC2EB7F
:101DB000500041EA00412C20005D41EA00600C49DE
:101DC000091F086001200B490866FFF70FFA054656
:101DD00006E0FFF70BFA401B022801D903200DE6AD
:101DE000034808380068C0F340600028F1D049E09B
:101DF0000838024000004742800E47420070004011
:101E0000002021490866FFF7F1F9054606E0FFF7D3
:101E1000EDF9401B022801D90320EFE51B480068BB
:101E2000C0F340600028F2D12CE0A069012800D165
:101E3000E4E51648001D0668A069012820D006F4D4
:101E40008001E06981421BD106F03F01206A814296
:101E500016D147F6C0703040616AB0EB811F0FD1D8
:101E600006F440310122A06AC2EB5000B1EB004FF2
:101E700006D106F070612C20005DB1EB006F01D03F
:101E80000120BBE50020B9E50000474200380240D0
:101E900010B504460CB9012010BD606A38B96068FD
:101EA000B0F5827F00D105E00021E16102E0002170
:101EB000216161610021A16294F8510028B90020DC
:101EC00084F85000204600F047F8022084F85100C2
:101ED0002068006820F0400021680860A08800F4B5
:101EE0008270218901F404410843A18901F4006151
:101EF0000843217C01F002010843217D01F001012A
:101F00000843218B01F400710843217F01F038015F
:101F100008432021095D01F080010843218D01F46F
:101F200000510843216808600421A06901EA1040BB
:101F300094F8241001F010010843216848602068DB
:101F4000C06920F400602168C8610020606501203C
:101F500084F8510000209FE710B586B00446142194
:101F600001A8FEF779F91B49206888422FD100BFEC
:101F7000002000901848006840F48050164908601E
:101F80000846006800F48050009000BF00BF00BF0A
:101F90000020009010481438006840F001000E49FD
:101FA000143908600846006800F00100009000BF86
:101FB00000BFE02001900220029000200390032047
:101FC00004900520059001A90448FFF707F806B022
:101FD00010BD0000003001404438024000000240C3
:101FE0002DE9FE4F04460F4690461D460C9E0120EB
:101FF0000190FFF7FBF8814694F851B060680290B9
:10200000AA46BBF1010F0BD00298B0F5827F04D134
:10201000A06810B9BBF1040F02D00220BDE8FE8F0A
:102020001FB1B8F1000F00D00DB90120F6E700BFD5
:1020300094F85000012801D10220EFE7012084F834
:10204000500000BF94F85100042802D0052084F805
:10205000510000206065C4F83880E587A5872763B4
:10206000E586A586206460642068006800F0400072
:10207000402805D02068006840F0400021680860D2
:10208000E068B0F5006F52D1606810B1BAF1010F8D
:1020900009D1206B00882168C860206B801C2063F8
:1020A000E08E401EE0863BE02068806800F0020081
:1020B000022810D1E08E70B1019801280BD1206B5D
:1020C00000882168C860206B801C2063E08E401E61
:1020D000E086002001902068806800F0010068B16F
:1020E000E08F58B12068C068A16B0880A06B801C8D
:1020F000A063E08F401EE08701200190FFF776F893
:10210000A0EB0900B0420BD3701C48B1012084F849
:10211000510000BF002084F8500000BF03207DE77D
:10212000E08E0028C0D1E08F0028BDD152E0606869
:1021300010B1BAF1010F09D1206B00782168087342
:10214000206B401C2063E08E401EE0863CE020684F
:10215000806800F00200022810D1E08E70B1019872
:1021600001280BD1206B007821680873206B401C7C
:102170002063E08E401EE086002001902068806889
:1021800000F0010068B1E08F58B12068C068A16B11
:102190000870A06B401CA063E08F401EE087012008
:1021A0000190FFF723F8A0EB0900B04201D3701CA7
:1021B00000B94EB9012084F8510000BF002084F816
:1021C000500000BF032029E7E08E0028BFD1E08F38
:1021D0000028BCD14A463146204602F08FFA40B171
:1021E0002020606500BF002084F8500000BF01205F
:1021F00014E7A06850B900BF002000902068C068B4
:10220000009020688068009000BF00BF012084F823
:10221000510000BF002084F8500000BF606D08B17D
:102220000120FBE60020F9E670B504462546681E4D
:10223000B0F1807F01D301200FE0681E4FF0E02154
:1022400048610F214FF0FF3003F0ACFB00204FF04E
:10225000E021886107200861002070BD7047704749
:1022600010B50346002200BF93F83C00012801D1BD
:10227000022010BD012083F83C0000BF22F0FF00C7
:10228000CC6840EA040222F440708C6840EA040200
:1022900022F480604C6840EA040222F400600C687A
:1022A00040EA040222F480500C6940EA040222F45D
:1022B00000504C6940EA040222F48040CC6940EAB4
:1022C00004021868426400BF002083F83C0000BF8D
:1022D00000BFCEE730B502460B4600BF92F83C0087
:1022E000012801D1022030BD012082F83C0000BF4E
:1022F000022082F83D00106844681068816824F06C
:1023000070041868044310684460184D1068A842AF
:102310001BD01068B0F1804F17D0154D1068A8423F
:1023200013D0144D1068A8420FD0134D1068A84266
:102330000BD0124D1068A84207D0114D1068A8426A
:1023400003D0104D1068A84205D121F080015868D3
:10235000014310688160012082F83D0000BF002029
:1023600082F83C0000BF00BFBDE700000000014054
:102370000004004000080040000C00400004014040
:10238000004001400018004010B504460CB901207F
:1023900010BD94F83D0028B9002084F83C00204688
:1023A00000F026F8022084F83D00211D206802F08C
:1023B00009FB012084F8460000BF84F83E0001219B
:1023C0003F200155402001554120015500BF00BF6D
:1023D000012084F842004320015544200155452046
:1023E000015500BF012084F83D000020D0E7000027
:1023F00038B504461949206888420FD100BF002033
:1024000000901748006840F0010015490860084630
:10241000006800F00100009000BF1DE02068B0F1EE
:10242000804F19D100BF002000900D48001F0068A8
:1024300040F001000A49091F08600846006800F0E2
:102440000100009000BF00BF002211461C20FFF7D2
:102450003FF91C20FFF728F938BD000000000140BB
:1024600044380240014691F83D00012801D0012086
:102470007047022081F83D000868C06840F0010004
:102480000B68D8601A4B086898421BD00868B0F1F6
:10249000804F17D0174B0868984213D0164B086826
:1024A00098420FD0154B086898420BD0144B08681F
:1024B000984207D0134B0868984203D0124B086823
:1024C00098420CD10868806800F00702062A0CD0F8
:1024D0000868006840F001000B68186005E00868B3
:1024E000006840F001000B6818600020C0E70000A1
:1024F000000001400004004000080040000C0040C3
:102500000004014000400140001800402DE9F04166
:1025100004460D46002700BF94F83C00012802D174
:102520000220BDE8F081012084F83C0000BF0220B9
:1025300084F83D002068866826F0770626F47F46FA
:10254000206886602868502833D00CDC202850D0C2
:1025500004DC00284BD0102851D149E0302849D064
:1025600040284CD139E060282DD0702807D0B0F534
:10257000805F03D0B0F5005F41D10DE041E0D5E9C7
:1025800002136A68206802F09EFA2068866846F0A6
:1025900077062068866034E0D5E902136A6820680F
:1025A00002F091FA2068806840F4804021688860D9
:1025B00027E0EA686968206802F076FB502120680D
:1025C00002F08CFA1DE0EA686968206802F07FFB7F
:1025D0006021206802F082FA13E0EA6869682068E6
:1025E00002F062FB4021206802F078FA09E000BFA7
:1025F00000BF00BF2968206802F070FA01E00127DF
:1026000000BF00BF012084F83D0000BF002084F817
:102610003C0000BF384684E72DE9F04104460D46F2
:1026200014B90120BDE8F08194F83D0028B90020DC
:1026300084F83C00204600F053F8022084F83D0066
:102640002068806844F20701884321688860211D62
:10265000206802F0B7F92068D0F808802068866901
:102660002068076A286840EA080840F20330864379
:10267000A969A86840EA0120064340F60C40864359
:102680004FF2F0008643E969E86840EA012006431A
:1026900028690001296A40EA0130064327F0220731
:1026A00027F088076969686840EA011007432068D5
:1026B000C0F808802068866120680762012084F8DD
:1026C000460084F83E0001213F200155012084F896
:1026D000420043200155012084F83D000020A1E77D
:1026E00010B586B00446142101A8FDF7B5FD3D499B
:1026F0002068884237D100BF002000903A48006827
:1027000040F00200384908600846006800F0020006
:10271000009000BF00BF00BF00200090324810387A
:10272000006840F00200304910390860084600682F
:1027300000F00200009000BF00BF30200190022096
:1027400002900020039004900220059001A92748E0
:10275000FEF744FC002201211D20FEF7B9FF1D20D9
:10276000FEF7A2FF3BE022492068884237D100BF34
:10277000002000901C48006840F004001A490860DE
:102780000846006800F00400009000BF00BF00BFD2
:102790000020009014481038006840F008001249EA
:1027A000103908600846006800F00800009000BF7B
:1027B00000BF4FF44050019002200290002003908F
:1027C00004900220059001A90A48FEF707FC0022A8
:1027D00001211E20FEF77CFF1E20FEF765FF06B0DC
:1027E00010BD0000000400404038024000040240D8
:1027F00000080040000C02402DE9F04304460D465D
:1028000094F83E603F20075D94F84280432010F822
:1028100004906DB9012E02D1B8F1010F02D0012050
:10282000BDE8F083022084F83E0084F8420025E0F1
:10283000042D0CD1012F02D1B9F1010F01D00120DB
:10284000EEE702213F2001554320015516E0012EFD
:1028500007D1012F05D1B8F1010F02D1B9F1010F54
:1028600001D00120DCE7022084F83E0002213F2055
:102870000155022084F842004320015515B1042D72
:102880000CD105E001220021206802F00BF910E0D4
:1028900001220421206802F005F90AE0012200214A
:1028A000206802F0FFF801220421206802F0FAF803
:1028B00000BF00BF2068006840F001002168086088
:1028C0000020ADE7704770B504462068C5682068F1
:1028D000066906F00200022819D105F0020002285C
:1028E00015D1401F21680861012020772068806988
:1028F00000F0030018B12046FFF7E4FF05E0204692
:1029000000F0CAF8204600F07EF90020207706F09B
:102910000400042819D105F00400042815D1C0438F
:1029200021680861022020772068806900F44070E7
:1029300018B12046FFF7C6FF05E0204600F0ACF8CE
:10294000204600F060F90020207706F008000828F3
:1029500019D105F00800082815D1C0432168086185
:10296000042020772068C06900F0030018B12046D9
:10297000FFF7A8FF05E0204600F08EF8204600F0A3
:1029800042F90020207706F01000102819D105F038
:102990001000102815D1C043216808610820207755
:1029A0002068C06900F4407018B12046FFF78AFF24
:1029B00005E0204600F070F8204600F024F90020E1
:1029C000207706F0010048B105F0010030B16FF04A
:1029D000010021680861204600F09CF906F08000A3
:1029E000802809D105F08000802805D1C0432168E6
:1029F00008612046FFF732FC06F04000402809D16C
:102A000005F04000402805D1C043216808612046F8
:102A100000F09AF906F02000202809D105F02000E6
:102A2000202805D1C043216808612046FFF717FC24
:102A300070BD000010B586B00446142101A8FDF752
:102A40000BFC1249206888421DD100BF0020009075
:102A50000F48006840F010000D4908600846006803
:102A600000F01000009000BF00BF4FF42060019004
:102A7000022002900020039004900120059001A9FB
:102A80000448FEF7ABFA06B010BD0000000001409C
:102A9000303802400010024070472DE9F0410446F2
:102AA0000D461646002700BF94F83C00012802D1CD
:102AB0000220BDE8F081012084F83C0000BF36B15F
:102AC000042E1BD0082E31D00C2E5ED145E02946B5
:102AD000206802F00DF82068806940F00800216845
:102AE00088612068806920F004002168886120687E
:102AF0008069296908432168886148E0294620687F
:102B000002F02EF82068806940F400602168886136
:102B10002068806920F4806021688861206880696D
:102B2000296940EA01202168886130E0294620684F
:102B300002F054F82068C06940F008002168C861BC
:102B40002068C06920F004002168C8612068C0695D
:102B5000296908432168C86119E02946206802F004
:102B600079F82068C06940F400602168C861206875
:102B7000C06920F480602168C8612068C069296943
:102B800040EA01202168C86101E0012700BF00BFC1
:102B900000BF002084F83C0000BF384689E710B52C
:102BA00004460CB9012010BD94F83D0028B900205E
:102BB00084F83C00204600F025F8022084F83D000F
:102BC000211D206801F0FEFE012084F8460000BFB0
:102BD00084F83E0001213F2001554020015541204D
:102BE000015500BF00BF012084F842004320015579
:102BF000442001554520015500BF012084F83D00C7
:102C00000020D0E77047704770B504460D4615B9EF
:102C100094F83E000BE0042D02D13F20005D06E059
:102C2000082D02D14020005D01E04120005D012817
:102C300001D0012070BD1DB9022084F83E000EE0D5
:102C4000042D03D102213F20015508E0082D03D1B6
:102C500002214020015502E00221412001550122BC
:102C60002946206801F01EFF23492068884203D0CE
:102C700022492068884201D1012000E0002028B1CB
:102C80002068406C40F40040216848641A4920687C
:102C900088421BD02068B0F1804F17D018492068B7
:102CA000884213D01749206888420FD016492068FF
:102CB00088420BD011492068884207D01349206808
:102CC000884203D01249206888420CD1206880686D
:102CD00000F00706062E0CD02068006840F00100C6
:102CE0002168086005E02068006840F00100216864
:102CF000086000209EE70000000001400004014041
:102D00000004004000080040000C0040004001406A
:102D10000018004010B50446094920680968884237
:102D20000DD108480078401CC0B2064908700A2836
:102D300005DB00200870FDF76BFE01F07BFC10BD89
:102D40002C020020280000207047F8B504460D46EC
:102D5000164694F8420020282DD105B10EB9012065
:102D6000F8BD0120206300206063324629462046DA
:102D700002F054FA0746206B012819D100BF002049
:102D8000009020680068009020684068009000BFB4
:102D900000BF00BF00BF21680C3151E8001F41F0A7
:102DA000100021680C3141E80002002AF3D100E054
:102DB00001273846D4E70220D2E7000070B5054667
:102DC0000C462149286888421DD1284600F056F853
:102DD00022461E491E48FDF726FA1E48048001209F
:102DE0001D49087040211948FDF736FA402217495D
:102DF0001A48FFF7AAFF1A480068006820F0080088
:102E00001749096808601749286888421BD1284675
:102E100000F034F8224614491448FDF704FA012062
:102E20001349087040211048FDF716FA40220E4958
:102E30001048FFF78AFF10480068006820F008007B
:102E40000D490968086070BD004400401409002065
:102E50005409002024000020260000204C030020FC
:102E6000F4030020004C004094090020D409002005
:102E700027000020040300209403002070B50446BE
:102E8000002520684069C0F3C01594F8410021284E
:102E900017D1B5B100BF00BF2168143151E8001F40
:102EA00021F080002168143141E80002002AF3D1AA
:102EB00000BFA06B10B1A06BFDF732FE204602F000
:102EC00006F820684069C0F3801594F84200222873
:102ED00017D1B5B100BF00BF2168143151E8001F00
:102EE00021F040002168143141E80002002AF3D1AA
:102EF00000BFE06B10B1E06BFDF712FE204601F061
:102F0000A0FF002070BD70472DE9F84F04462068EF
:102F100005682068C668206847694FF00009CA46FE
:102F200005F00F09B9F1000F0AD105F0200038B102
:102F300006F0200020B1204601F0DCFFBDE8F88F4C
:102F4000B9F1000F7CD007F0010018B906F49070B9
:102F5000002875D005F0010030B106F4807018B17A
:102F6000606C40F00100606405F0040030B107F0CF
:102F7000010018B1606C40F00200606405F00200CE
:102F800030B107F0010018B1606C40F004006064DB
:102F900005F0080048B106F0200010B907F0010064
:102FA00018B1606C40F008006064606C002846D086
:102FB00005F0200028B106F0200010B1204601F0F5
:102FC00099FF20684069C0F3801A606C00F0080027
:102FD00010B9BAF1000F2DD0204601F032FF206861
:102FE000406900F04000402820D100BF00BF2168A8
:102FF000143151E8001F21F040002168143141E8EC
:103000000002002AF3D100BFE06B50B17F48E16BB2
:103010000865E06BFDF7DAFD88B1E06B016D88476C
:103020000DE02046FFF76FFF09E009E02046FFF7BB
:103030006AFF04E02046FFF766FF002060647DE73A
:10304000206B012878D105F01000002874D006F01C
:1030500010000028FAD000BF00200090206800680F
:10306000009020684068009000BF00BF2068406961
:1030700000F04000402870D1E06B006840681FFA03
:1030800080F8B8F1000F58D0A08D404555DDA4F868
:103090002E80E06BC069B0F5807F43D000BF00BFD9
:1030A00021680C3151E8001F21F4807021680C3137
:1030B00041E80002002AF3D100BF00BF00BF216831
:1030C000143151E8001F21F001002168143141E85A
:1030D0000002002AF3D100BF00BF00BF21681431F5
:1030E00051E8001F21F040002168143141E800023E
:1030F000002AF3D100BF202084F842000020206382
:1031000000BF00BF21680C3151E8001F21F0100002
:1031100021680C3141E80002002AF3D100BFE06BC6
:10312000FDF7FEFC02206063A08DE28D801A81B263
:103130002046FFF743FE0EE052E0A08D40450AD145
:10314000E06BC069B0F5807F05D102206063A18D7E
:103150002046FFF733FEF1E6FFE7A08DE18D401A30
:103160001FFA80F8E08DD0B3B8F1000F37D000BF60
:1031700000BF21680C3151E8001F21F490702168D4
:103180000C3141E80002002AF3D100BF00BF00BFAC
:103190002168143151E8001F21F001002168143129
:1031A00041E80002002AF3D100BF202084F8420049
:1031B0000020206300BF00BF21680C3151E8001FD0
:1031C00021F0100021680C3141E80002002AF3D1FF
:1031D00000BF0220606341462046FFF7EFFDADE6E9
:1031E00005F0800030B106F0800018B1204602F0F2
:1031F00081F8A3E605F0400030B106F0400018B1B8
:10320000204601F054FE99E600BF97E6094D0008FC
:1032100010B504460CB9012010BDA06900B100E052
:1032200000BF94F8410028B9002084F840002046EF
:1032300000F02AF8242084F841002068C06820F4B7
:1032400000502168C860204601F0D2FE2068006965
:1032500020F49040216808612068406920F02A002D
:10326000216848612068C06840F400502168C86047
:1032700000206064202084F8410084F8420000208F
:10328000606300BFC8E7000010B586B00446142193
:1032900001A8FCF7E1FF5D492068884257D100BFD3
:1032A000002000905A48006840F400205849086007
:1032B0000846006800F40020009000BF00BF00BF77
:1032C0000020009052481038006840F0010050493A
:1032D000103908600846006800F00100009000BF47
:1032E00000BF0320019002200290002003900320E1
:1032F00004900820059001A94648FDF76FFE464856
:103300004649086040054860002144488160C1602A
:103310004FF480610161002141618161C1614FF41D
:103320000031016200214162FDF784FD08B1FDF723
:103330007BFB00BF3948E063846300BF0022114675
:103340003420FEF7C5F93420FEF7AEF95CE03449CD
:103350002068884258D100BF002000902C480068A7
:1033600040F400302A4908600846006800F4003044
:10337000009000BF00BF00BF00200090244810381C
:10338000006840F0010022491039086008460068D2
:1033900000F00100009000BF00BF0C20019002204F
:1033A000029000200390032004900720059001A9BB
:1033B0001848FDF713FE184848301A4908604FF0C6
:1033C00000604860002117488160C1604FF480614F
:1033D0000161002141618161C1614FF440310162AD
:1033E00000214162FDF726FD08B1FDF71DFB00BF7E
:1033F0000C48E063846300BF002202212620FEF710
:1034000067F92620FEF750F906B010BD004C0040C9
:103410004038024000000240406002409403002017
:1034200000440040F4030020704770472DE9F84F36
:1034300004460E46174699464FF0000A94F841009C
:10344000202850D106B117B90120BDE8F88F00201F
:103450006064212084F84100FDF7C8FE8246A784FD
:10346000E784A068B0F5805F04D1206910B9002519
:10347000B04602E035464FF000081EE053460022F9
:1034800080212046CDF8009001F064FF20B120207B
:1034900084F841000320D8E745B9B8F80000C0F32C
:1034A00008002168486008F1020803E028782168D4
:1034B00048606D1CE08C401EE084E08C0028DDD16B
:1034C0005346002240212046CDF8009001F042FFF3
:1034D00020B1202084F841000320B6E7202084F8A2
:1034E00041000020B1E70220AFE7704700BFFEE7D0
:1034F000014608684069C0F38020B0B16FF4806075
:103500000A68506100200863202081F83D000020F7
:1035100081F83E00086C40F00400086400BF002001
:1035200081F83C0000BF012070470020FCE700004C
:103530002DE9F84304460D4617469846E66A082EDC
:1035400004D0012E02D016F5803F06D12068006815
:1035500040F480702168086008E0206B122805D1D3
:103560002068006840F48070216808603B460022B3
:103570004FF001112046CDF8008000F06CF860B1EA
:103580002068006800F48070B0F5807F02D14FF4AD
:10359000007020640320BDE8F8832069B0F5804FF7
:1035A00004D105F0FE002168086112E005F44070C6
:1035B000F02141EAE0102168086143463A460B4990
:1035C000204600F0A7F808B10120E4E7E8B221683E
:1035D000086143463A460549891F204600F09AF89B
:1035E00008B10120D7E70020D5E70000080001005E
:1035F00070B504460D46164625E02046FFF778FFD5
:1036000008B1012070BD681CE8B1FDF7EFFD801B1B
:10361000A84200D8BDB920684069C0F3800090B9C5
:1036200000202063202084F83D00002084F83E0024
:10363000206C40F02000206400BF002084F83C0093
:1036400000BF0120DEE720684069C0F38000002849
:10365000D3D00020D6E72DE9F04104460D461746A9
:103660001E46DDF8188038E0701CA8B3FDF7BEFDDB
:10367000A0EB0800B04200D876BBC5F30740012894
:103680000AD120684069A9B20840A9B2884201D194
:1036900001200BE0002009E020688069A9B2084001
:1036A000A9B2884201D1012000E00020B84214D123
:1036B00000202063202084F83D00002084F83E0094
:1036C000206C40F02000206400BF002084F83C0003
:1036D00000BF0120BDE8F081FFE7C5F307400128E6
:1036E0000AD120684069A9B20840A9B2884201D134
:1036F00001200BE0002009E020688069A9B20840A1
:10370000A9B2884201D1012000E00020B842ABD02C
:103710000020DFE72DE9F04104460D4616461F461E
:1037200058E020684069C0F38020E8B12068006854
:1037300040F40070216808606FF48060216848617F
:1037400000202063202084F83D00002084F83E0003
:10375000206C40F00400206400BF002084F83C008E
:1037600000BF0120BDE8F081701C90B3FDF73EFD65
:10377000C01BB04200D866BBC5F3074001280AD180
:1037800020684069A9B20840A9B2884201D101204D
:103790000BE0002009E020688069A9B20840A9B2C6
:1037A000884201D1012000E0002090B90020206370
:1037B000202084F83D00002084F83E00206C40F07A
:1037C0002000206400BF002084F83C0000BF0120DE
:1037D000C8E7FFE7C5F3074001280AD12068406920
:1037E000A9B20840A9B2884201D101200BE0002013
:1037F00009E020688069A9B20840A9B2884201D1D5
:10380000012000E0002000288BD00020AAE770B53E
:1038100004460D46164625E02046FFF769FE08B12E
:10382000012070BD681CE8B1FDF7E0FC801BA842D8
:1038300000D8BDB920684069C0F3C01090B900201D
:103840002063202084F83D00002084F83E00206C96
:1038500040F02000206400BF002084F83C0000BF3E
:103860000120DEE720684069C0F3C0100028D3D0F3
:103870000020D6E710B50248006802F097FE10BDA0
:103880001400002008B500BF002000900E4800681A
:1038900040F400100C4908600846006800F400106D
:1038A000009000BF00BF002211460D20FDF710FF61
:1038B0000D20FDF7F9FE002211461020FDF708FF4C
:1038C0001020FDF7F1FE08BD3038024000B587B08A
:1038D000142102A8FCF7C0FC00BF002001904E4854
:1038E000006840F010004C4908600846006800F08D
:1038F0001000019000BF00BF00BF002001900846EB
:10390000006840F0040008600846006800F0040009
:10391000019000BF00BF00BF002001900846006872
:1039200040F0800008600846006800F080000190C8
:1039300000BF00BF00BF002001900846006840F0B3
:10394000010008600846006800F00100019000BF17
:1039500000BF00BF002001900846006840F0020050
:1039600008600846006800F00200019000BF00BF38
:1039700000BF002001900846006840F00800086081
:103980000846006800F00800019000BF00BF002258
:1039900010212248FDF724FC00224FF471412048F9
:1039A000FDF71EFC1A2002900020039001200490D5
:1039B00002A91B48FDF712FB102002900120039082
:1039C00000200490059002A91448FDF707FB4FF46E
:1039D0004C700290002003900120049002A911482D
:1039E000FDF7FCFA4FF47140029001200390002093
:1039F0000490059002A90A48FDF7F0FA4FF44960D7
:103A00000290002003900120049002A90648FDF7CF
:103A1000E5FA07B000BD0000303802400000024067
:103A20000010024000080240000C024010B50B4894
:103A30000B4908600B484860002109488160C1605B
:103A40004FF480410161002141618161C1610162E6
:103A5000FDF7D2FB08B1FCF7E7FF10BD00580040AE
:103A600038010020A086010010B50E480E490860FC
:103A70004FF48270486000210B488160C160016191
:103A800041614FF4007181610021C16101624162B5
:103A900081620A21C162FEF7FBF908B1FCF7C4FF9D
:103AA00010BD0000003001408C01002000B595B031
:103AB000002011901290139014900F9010901C21E0
:103AC00008A8FCF7C9FB20216846FCF7C5FB2F4876
:103AD0002F490860A720486000212D48816040F2EE
:103AE000E731C1600021016141618161FEF74CFC59
:103AF00008B1FCF799FF4FF48050119011A92448A8
:103B0000FEF704FD08B1FCF78FFF2148FFF747F8E7
:103B100008B1FCF789FF00200F9010900FA91C48F6
:103B2000FEF7D8FB08B1FCF77FFF6020089000206B
:103B300009900A900B900C900D900E90002208A90D
:103B40001348FEF7AAFF08B1FCF76EFF042208A98C
:103B50000F48FEF7A2FF08B1FCF766FF00200090B7
:103B600001900290039004904FF4005005900020C3
:103B7000079069460648FEF773FB08B1FCF754FF4F
:103B80000348FEF757FF15B000BD000000000140DC
:103B9000E401002000B587B0002003900490059058
:103BA0000690019002904FF0804014490860532025
:103BB000486000211148816040F2E731C160002176
:103BC00001618161FEF7E0FB08B1FCF72DFF4FF4C6
:103BD0008050039003A90948FEF798FC08B1FCF750
:103BE00023FF00200190029001A90448FEF772FB18
:103BF00008B1FCF719FF07B000BD00002C0200203F
:103C000000B58BB0242102A8FCF726FB0020009011
:103C100001901848184908600020486000211648A3
:103C200081604FF6FF71C160002101618161032055
:103C3000029000200390012004900020059006903F
:103C4000079001200890002009900A9002A90A48D4
:103C5000FEF7E2FC08B1FCF7E7FE002000900190BF
:103C600069460548FEF736FB08B1FCF7DDFE0BB0F0
:103C700000BD0000000400407402002000B58BB0BD
:103C8000242102A8FCF7E8FA0020009001901848CF
:103C900018490860002048600021164881604FF6EE
:103CA000FF71C16000210161816103200290002049
:103CB00003900120049000200590069007900120B9
:103CC0000890002009900A9002A90A48FEF7A4FC77
:103CD00008B1FCF7A9FE0020009001906946054854
:103CE000FEF7F8FA08B1FCF79FFE0BB000BD00002C
:103CF00000080040BC02002010B50B480B490860CA
:103D00004FF4E1304860002108488160C1600161E2
:103D10000C21416100218161C161FFF779FA08B18D
:103D2000FCF782FE10BD0000004C004004030020A0
:103D300010B50B480B4908604FF4E1304860002192
:103D400008488160C16001610C21416100218161ED
:103D5000C161FFF75DFA08B1FCF766FE10BD000017
:103D6000004400404C03002000BFFEE72DE9F05F57
:103D700004460D4616461F46DDE90CABDDE90A890F
:103D800025606660A760A4F80C80C4F81090A4F8C1
:103D900014A084F818B00E9820620020E061A18978
:103DA0000122A068FDF71CFAA18A00222069FDF714
:103DB00017FAD4E90001FEF727FF606820B92168EF
:103DC000E0690968486313E06068042804D1216849
:103DD000E069096888630BE06068082804D12168FD
:103DE000E0690968C86303E02168E069096808645C
:103DF000BDE8F09F0146C869002805DDD1E907024A
:103E0000904201DA086A7047C869002807DAD1E9E8
:103E100007025242904202DD086A4042F3E7C86955
:103E2000F1E7000000B585B0502001214A03174B8F
:103E3000CDE90132CDE903100803002214490090B6
:103E40001448FFF793FF502001218A030F4BCDE95F
:103E50000132CDE90310C80304220D4900900E4839
:103E6000FFF784FF012211020848FDF7B9F900218C
:103E70000748FEF7C9FE0021064800F01AF80021A5
:103E8000054800F016F805B000BD00000010024023
:103E9000E4010020340A0020580A002010B504462E
:103EA000914201DD114602E0994200DA19460846C6
:103EB00010BD70B504460D462068C06843422068B6
:103EC0002946C2682046FFF7E9FFE0612046FFF778
:103ED00091FFE061E069002814DB237E0BB9012328
:103EE00000E000231A46A189A068FDF779F9237E36
:103EF0000BB1012300E000231A46A18A2069FDF7D7
:103F00006FF913E0237E0BB1012300E000231A4672
:103F1000A189A068FDF764F9237E0BB9012300E0B5
:103F200000231A46A18A2069FDF75AF9606850B942
:103F3000E069002801DBE06901E0E06940422168B6
:103F40000968486325E0606804280AD1E069002810
:103F500001DBE06901E0E0694042216809688863AB
:103F600017E0606808280AD1E069002801DBE069F1
:103F700001E0E069404221680968C86309E0E0693E
:103F8000002801DBE06901E0E0694042216809683E
:103F9000086470BD7047000010B540220C490D4800
:103FA000FEF7D3FE0C480068006820F008000A49BC
:103FB00009680860402209490948FEF7C6FE094819
:103FC0000068006820F0080006490968086010BD14
:103FD000140900204C030020F40300209409002061
:103FE000040300209403002000BFFEE710B5AE20BC
:103FF00000F002F9202000F0FFF8102000F0FCF89B
:10400000B02000F0F9F8C82000F0F6F8002000F029
:10401000F3F8102000F0F0F8402000F0EDF88120D7
:1040200000F0EAF8DF2000F0E7F8A12000F0E4F863
:10403000A62000F0E1F8A82000F0DEF83F2000F014
:10404000DBF8A42000F0D8F8D32000F0D5F8002049
:1040500000F0D2F8D52000F0CFF8F02000F0CCF836
:10406000D92000F0C9F8222000F0C6F8DA2000F0CC
:10407000C3F8122000F0C0F8DB2000F0BDF82020CB
:1040800000F0BAF88D2000F0B7F8142000F0B4F872
:1040900000F006F800F0BAF9AF2000F0ADF810BD5E
:1040A00010B54FF480610248FCF7D6F810BD00004F
:1040B000540400202DE9FC430746884615461C465B
:1040C000DDF824902078CDE900092078C61DF0178E
:1040D00006EB5070C010617810FB01F1A5F12000D3
:1040E000D4F804C000FB01C263784146384600F0B2
:1040F00002F9BDE8FC832DE9FF4F85B080461746E5
:104100001C46DDF8489000262178C81DC11700EB39
:104110005171C910627811FB02F1091DC9B20491F5
:1041200052E000200390B81901F0E8FB054605B9FC
:104130004DE04FF0000B20E0616804980BFB001A83
:10414000B8192A465146FCF792F890B92078CDE983
:10415000000963780AF104024046069900F0CBF8A2
:104160006078404400F0FF08701986B20120039087
:1041700006E00BF1010000F0FF0B207A5845DBDC74
:1041800000BF039800BB012D0FD1CDF80090BA5DA0
:10419000E36840460699FFF78DFFE06840784044A9
:1041A00000F0FF08701986B20EE0CDF800902022D2
:1041B000E36840460699FFF77DFFE0684078404499
:1041C00000F0FF08701986B2B85D0028A9D100BFC1
:1041D00009B0BDE8F08F000038B504460D464FF039
:1041E000FF302B462246782100900248FDF7ECF87C
:1041F00038BD00003801002010B504460248447064
:104200000221FFF7E9FF10BD000000202DE9FC436B
:1042100080460C4616461F462046E11704EB5171B6
:10422000C1F3C7092046E11704EB5171C910A4EB93
:10423000C101CDB20720CDE9000706FA05F0C2B2F0
:104240002B464146484600F0A3F875B1681EC0B23F
:10425000C5F1080146FA01F209F10101CDE90007B3
:10426000C8B20023414600F093F8BDE8FC832DE975
:10427000FC4781460C4616461F46DDF8288020463E
:10428000E11704EB5171C1F3C70A2046E11704EBB3
:104290005171C910A4EBC101CDB2E81908281BDD8A
:1042A0000720CDE9000806FA05F0C2B22B464946C0
:1042B000504600F06DF878190938C0B2C5F1080110
:1042C00046FA01F20AF10101CDE90008C8B2002363
:1042D000494600F05DF80CE0E819401EC0B2CDE997
:1042E000000806FA05F0C2B22B464946504600F0D7
:1042F0004FF8BDE8FC872DE9FC4F81468A4693467E
:104300001D460B9C2046E11704EB5171C1F3C70712
:10431000E11704EB5171C910A4EBC101C9B20191BD
:104320004FF0000816E000260EE006FB05831BF8A0
:1043300003200AEBC603D9B209EB0803D8B20C9BE1
:10434000FFF764FF701CC6B2BE42EEDB08F101004D
:1043500000F0FF08A845E6DB0198B8B105FB07F8B7
:10436000002610E00C9808EB060300901BF80320D1
:104370000AEBC703D9B209EB0603D8B2019BFFF7DA
:1043800076FF701CC6B2AE42ECDB00BFBDE8FC8F0E
:10439000F0B5DDE90545082801DA802900DBF0BD2C
:1043A0000DB1D643F2B2661CFF2707FA06F6164394
:1043B000C3F1080C47FA0CF73E43124F3E70124E01
:1043C00006EBC016765C3F783E400F4F07EBC017F8
:1043D0007E54661CFF27B74022EA0706C3F1080C8B
:1043E000FF2747FA0CF7BE43064F3E70064E06EB1A
:1043F000C016765C3F783E43034F07EBC0177E54F0
:1044000000BFCCE7020000205404002010B540207B
:104410000F490870002418E004F1B001C8B2FFF79A
:10442000EBFE0020FFF7E8FE1020FFF7E5FE09484D
:1044300000EBC41180220648401CFBF7F4FE8121EA
:104440000348FFF7C9FE601CC4B2082CE4DB10BDB2
:10445000540800205404002000B52DED028B91B0CB
:10446000FFF71EFE3A4890ED020A10EE101A0846B9
:10447000FCF723F841EC180B53EC182B35A101A8DD
:1044800001F05AFA0020364B01AA01460090FFF7CE
:1044900032FE3448027834A101A801F04DFA002020
:1044A0002F4B01AA10210090FFF725FE304802781B
:1044B00030A101A801F040FA0020294B01AA2021D7
:1044C0000090FFF718FE2D4890ED030A10EE101A29
:1044D0000846FBF7F2FF41EC180B53EC182B28A110
:1044E00001A801F029FA00201D4B01AA0146009005
:1044F0004020FFF700FE244890ED030A10EE101A4A
:104500000846FBF7DAFF41EC180B53EC182B1FA100
:1045100001A801F011FA0020114B01AA102100900E
:104520004020FFF7E8FD1B481BA1026801A801F02D
:1045300003FA00200A4B01AA202100904020FFF737
:10454000DAFDFFF763FF11B0BDEC028B00BD000088
:10455000140A00207961773A252E326600000000A7
:10456000B88900085400002072756E3A2564000076
:10457000550000206D6F64653A2564007C0A0020B8
:104580004C3A252E31660000900A0020523A252E22
:104590003166000050000020563A256400000000FB
:1045A00010B51E48D0ED041AB0EE612AD0ED021A03
:1045B000B0EE611AD0ED011AF0EE610AD0ED001AEA
:1045C000B0EE610ADFED161A164802F07BFA1648C3
:1045D000D0ED041AB0EE612AD0ED021AB0EE611AE5
:1045E000D0ED011AF0EE610AD0ED001AB0EE610ACA
:1045F000DFED0B1A0D4802F065FA0D4890ED000A48
:10460000B8EEC00A074802F0A7FA094890ED000A80
:10461000B8EEC00A054802F09FFA10BD580000200D
:1046200000000000A40A00206C000020E00A002026
:104630005000002070B52748007800B970BD0024F4
:1046400000252548D0ED030AB0EE600A234802F0A9
:10465000D4F9BDEEC00A10EE104A2148D0ED030A8D
:10466000B0EE600A1F4802F0C8F9BDEEC00A10EEB5
:10467000105A1D4890ED040AB0EE401A90ED030A5E
:10468000F0EE400A00EE104AB8EEC00A02F0C8F997
:10469000BDEEC00A10EE104A144890ED040AB0EEC8
:1046A000401A90ED030AF0EE400A00EE105AB8EE00
:1046B000C00A02F0B5F9BDEEC00A10EE105A21464C
:1046C0000B48FFF7F6FB29460A48FFF7F2FB00BF4D
:1046D000B4E70000540000207C0A0020A40A002057
:1046E000900A0020E00A0020580000206C00002002
:1046F000340A0020580A0020704700007CB50446A8
:104700000E4615463346012202212046009500F050
:1047100039F828B1606D40F02000606503207CBD51
:10472000164800681821B0FBF1F01549B0FBF1F014
:104730004FF47A71484301906068B0F5827F0DD1E3
:104740003346002280212046009500F01BF898B1E6
:10475000606D40F0200060650320E0E700BF019835
:1047600000B908E00198401E019020688068C0F3FD
:10477000C0100028F3D100BF0020D0E720000020A7
:1047800040420F002DE9F84F04460D4690461E4664
:10479000DDF82890FCF72AFDA0EB0900371AFCF79A
:1047A00025FD82462C480068C0F3CB30784300904A
:1047B00046E0701C002843D0FCF718FDA0EB0A006F
:1047C000B84200D2A7BB2068406820F0E000216812
:1047D00048606068B0F5827F0DD1A068B0F5004FE9
:1047E00003D0A068B0F5806F05D12068006820F084
:1047F000400021680860A06AB0F5005F0DD100BFDD
:104800002068006820F40050216808602068006873
:1048100040F400502168086000BF012084F8510076
:1048200000BF002084F8500000BF0320BDE8F88FCF
:10483000FFE7009808B9002702E00098401E0090AA
:10484000206880682840A84201D1012000E00020B3
:104850004045AED10020E9E720000020704700006D
:104860000520014908707047F800002070B5002449
:104870001EE0FCF7BBFC054604EB44000F4901EBCE
:104880008000406804EB44010C4A02EB8101896816
:104890000844A8420AD804EB4400114601EB80000A
:1048A000856004EB440152F821008047601CC4B2CB
:1048B000034800788442DCDB70BD0000FC0000206F
:1048C000F800002010B5FCF77BFE10BD00B593B0DA
:1048D000302107A8FBF7C0FC142102A8FBF7BCFCA1
:1048E00000BF002001902448006840F08050224919
:1048F00008600846006800F08050019000BF00BFCB
:1049000000BF002001901D48006840F480401B4912
:1049100008600846006800F48040019000BF00BFB6
:10492000012007900004089002200D9041050E918F
:1049300004210F91A82110910221119104211291BB
:1049400007A8FDF757F808B1FCF76EF80F200290A2
:1049500002200390002004904FF4A05005904FF4E3
:1049600080500690052102A8FCF704FF08B1FCF76F
:104970005BF813B000BD00004038024000700040FA
:104980000348006840F47000014908607047000067
:1049900088ED00E010B50248FDF795FF10BD00005E
:1049A0002C02002010B50248FDF78DFF10BD00005D
:1049B0007402002010B50248FDF785FF10BD00000D
:1049C000BC02002010B502682B4B98420ED0B0F10B
:1049D000804F0BD0294B984208D0294B984205D0E4
:1049E000284B984202D0284B984203D122F0700203
:1049F0004B681A43204B984220D0B0F1804F1DD015
:104A00001E4B98421AD01E4B984217D01D4B98420D
:104A100014D01D4B984211D01C4B98420ED01C4B09
:104A200098420BD01B4B984208D01B4B984205D0A4
:104A30001A4B984202D01A4B984203D122F440728A
:104A4000CB681A4322F080034C6943EA04028B6866
:104A5000C3620B688362084B984202D00A4B9842AB
:104A600001D10B690363036843F00403036001236E
:104A70004361026010BD00000000014000040040DE
:104A800000080040000C00400004014000400140CC
:104A9000004401400048014000180040001C004054
:104AA0000020004030B501F01F05012404FA05F391
:104AB000046A9C430462046A01F01F0502FA05F5CA
:104AC0002C43046230BD30B50C46816821F47F412F
:104AD00042EA032525432943816030BD0A468168A7
:104AE00021F0700142F00703194381607047000014
:104AF00030B5026A056A25F00105056243688469DC
:104B000024F0700424F003040D682C4322F0020208
:104B10008D682A43104DA84200D103E00F4DA842F2
:104B200006D100BF22F00802CD682A4322F0040219
:104B3000094DA84202D0094DA84207D123F4807341
:104B400023F400734D692B438D692B4343608461CB
:104B50004D684563026230BD000001400004014021
:104B600030B5026A056A25F010050562436884695C
:104B700024F4E04424F440740D6844EA052422F04F
:104B800020028D6842EA0512124DA84200D103E0CE
:104B9000114DA84207D100BF22F08002CD6842EA41
:104BA000051222F040020B4DA84202D00A4DA84245
:104BB00009D123F4806323F400634D6943EA85033C
:104BC0008D6943EA8503436084614D6885630262B1
:104BD00030BD0000000001400004014030B5026A11
:104BE000056A25F4807505624368C46924F0700481
:104BF00024F003040D682C4322F400728D6842EA0D
:104C00000522124DA84200D103E0114DA84207D160
:104C100000BF22F40062CD6842EA052222F48062DD
:104C20000A4DA84202D00A4DA84209D123F480536C
:104C300023F400534D6943EA05138D6943EA0513D4
:104C40004360C4614D68C563026230BD000001402D
:104C50000004014030B5036A056A25F480550562F9
:104C60004468C26922F4E04222F440720D6842EACC
:104C7000052223F400538D6843EA0533084DA8420A
:104C800002D0084DA84204D124F480444D6944EA7E
:104C900085144460C2614D680564036230BD000044
:104CA000000001400004014030B50B461446026A82
:104CB000056A25F001050562816921F0F00141EAEC
:104CC000041122F00A021A438161026230BD30B53C
:104CD0000B461446026A056A25F0100505628169D3
:104CE00021F4704141EA043122F0A00242EA0312A9
:104CF0008161026230BD000010B50248FEF704F980
:104D000010BD00000403002070B50446A56B002010
:104D1000E8852846FEF7F7F870BD70B50646002511
:104D2000B46B20684069C0F3C01594F84100212895
:104D300005D125B10020E084204600F0C8F82068A5
:104D40004069C0F3801594F84200222805D125B1AE
:104D50000020E085204600F074F8606C40F0100000
:104D600060642046FEF7CFF870BD70B50546AC6BA9
:104D70002868006800F48070002842D1E08500BFF8
:104D800000BF21680C3151E8001F21F480702168B8
:104D90000C3141E80002002AF3D100BF00BF00BF80
:104DA0002168143151E8001F21F0010021681431FD
:104DB00041E80002002AF3D100BF00BF00BF216814
:104DC000143151E8001F21F040002168143141E8FE
:104DD0000002002AF3D100BF202084F84200206B9B
:104DE00001280ED100BF00BF21680C3151E8001F1F
:104DF00021F0100021680C3141E80002002AF3D1B3
:104E000000BF00206063206B012804D1A18D2046E3
:104E1000FDF7D4FF02E02046FEF706FB70BD70B53B
:104E20000546AC6B01206063206B012805D1A08D85
:104E300041082046FDF7C2FF02E02046FEF7F5FAE2
:104E400070BD00BF00BF02680C3252E8002F22F490
:104E5000907102680C3242E80013002BF3D100BFBE
:104E600000BF00BF0268143252E8002F22F0010197
:104E70000268143242E80013002BF3D100BF016B2B
:104E800001290ED100BF00BF02680C3252E8002F8A
:104E900022F0100102680C3242E80013002BF3D11B
:104EA00000BF202180F8421000210163704710B537
:104EB00004462068C06820F040002168C8602020B7
:104EC00084F841002046FEF710FB002010BD00BF13
:104ED00000BF02680C3252E8002F22F0C0010268C5
:104EE0000C3242E80013002BF3D100BF202180F8E0
:104EF00041107047F8B504460025002694F842009A
:104F0000222873D1A068B0F5805F0BD1206948B921
:104F1000A66A20684068C0F308003080A06A801C40
:104F2000A06214E0A56AA068B0F5805F03D0A06815
:104F300028B9206918B920684068287004E0206802
:104F4000406800F07F002870A06A401CA062E08DDD
:104F5000401E80B2E085002846D12068C06820F05D
:104F600020002168C8602068C06820F48070216833
:104F7000C8602068406920F0010021684861202055
:104F800084F8420000206063206B012826D10020B5
:104F9000206300BF00BF21680C3151E8001F21F0E1
:104FA000100021680C3141E80002002AF3D100BF53
:104FB0002068006800F0100010280AD100BF00200F
:104FC000009020680068009020684068009000BF52
:104FD00000BFA18D2046FDF7F1FE02E02046FEF75E
:104FE00023FA0020F8BD01E00020FBE70220F9E7EA
:104FF0002DE9F84F04462068006920F44050E1682C
:105000000843216808612169A06808436169084371
:10501000E169084300902068C06849F20C61884348
:10502000009908432168C8602068406920F44070F6
:10503000A16908432168486176492068884203D005
:1050400075492068884203D1FCF76CFC814602E078
:10505000FCF758FC8146E069B0F5004F6CD10220A6
:105060006168A0FB015003461920A9FB00700146AE
:105070002A463846FBF7A6F86421B0FBF1F04FEA68
:10508000001A02206168A0FB01510B461920A9FB00
:1050900000712A463846FBF795F88346022061687E
:1050A000A0FB015003461920A9FB00712A4638468F
:1050B000FBF788F86421B0FBF1F000EBC00101EBD5
:1050C0000010ABEB8000322101EBC0006421B0FB8B
:1050D000F1F000F0F8000AEB400A02206168A0FB42
:1050E000015003461920A9FB007001462A463846A4
:1050F000FBF768F8834602206168A0FB0150034675
:105100001920A9FB00712A463846FBF75BF8642199
:10511000B0FBF1F000EBC00101EB0010ABEB800045
:10512000322101EBC0006421B0FBF1F000F0070078
:105130005044216888606AE004206168A0FB015047
:1051400003461920A9FB007001462A463846FBF7A2
:1051500039F8824604206168A0FB015003461920FB
:10516000A9FB007001462A463846FBF72BF864215C
:10517000B0FBF1F000EBC00101EB0010AAEB8000E6
:10518000322101EB00106421B0FBF1F000F0F00AD5
:1051900004206168A0FB017003461920A9FB00519F
:1051A0003A462846FBF70EF86421B0FBF1F00AEB13
:1051B000001A04206168A0FB01510B461920A9FBCD
:1051C00000712A463846FAF7FDFF834604206168DD
:1051D000A0FB015003461920A9FB007001462A4696
:1051E0003846FAF7EFFF6421B0FBF1F000EBC001A5
:1051F00001EB0010ABEB8000322101EB00106421C9
:10520000B0FBF1F000F00F00504421688860BDE869
:10521000F88F0000001001400014014077B581B004
:10522000044615460298A062A585002060642220ED
:1052300084F842002C48E16BC8632C48E16B086499
:105240002B48E16BC8640020E16B086502AE326850
:105250002368191D2B46E06BFBF762FE38B1102066
:105260006064202084F84200012004B070BD00BFBB
:10527000002000902068006800902068406800903E
:1052800000BF00BF206970B100BF00BF21680C31B2
:1052900051E8001F41F4807021680C3141E80002A0
:1052A000002AF3D100BF00BF00BF2168143151E8CC
:1052B000001F41F001002168143141E80002002A7A
:1052C000F3D100BF00BF00BF2168143151E8001FB7
:1052D00041F040002168143141E80002002AF3D176
:1052E00000BF0020C1E700006B4D00081F4E000802
:1052F0001B4D0008014691F84100212828D18868FB
:10530000B0F5805F0BD1086948B90A6A1088C0F30C
:1053100008000B685860086A801C086205E00B6A88
:10532000581C086218780B685860C88C401E80B200
:10533000C88458B90868C06820F080000B68D8603D
:105340000868C06840F040000B68D86000207047D3
:105350000220FCE72DE9F84304460D46174698461F
:10536000089E31E0701C70B3FBF740FFA0EB080013
:10537000B04200D816B90320BDE8F8832068C068A1
:1053800000F00400F8B1802D1ED0402D1CD0206804
:105390000068C0F3C000B0B100BF002000902068DA
:1053A0000068009020684068009000BF00BF204661
:1053B000FFF747FD0820606400BF002084F840002C
:1053C00000BF0120D8E7FFE7206800682840A84216
:1053D00001D1012000E00020B842C3D00020CBE77B
:1053E00010B50248FDF790FD10BD00004C030020F1
:1053F00010B50F48007858B10E4801880E4800F0EB
:10540000EBF840210C48FAF727FF00200849087004
:105410000A48007858B10A4A0AA10D4801F0D0FAAA
:1054200040210748FAF718FF00200449087010BD12
:10543000260000202400002054090020270000201E
:10544000D4090020726563656976653A25730000AA
:105450000403002000BFFEE710B5FEF705FB0022A5
:1054600010211148FBF7BCFEFF2000F0A1F801223B
:1054700010210D48FBF7B4FE00F04CF80B490880F2
:1054800000F01AF80A4908600A4800F069F807486D
:10549000008800F46F40B0F56F4F02D04FF0FF303E
:1054A00010BD0020FCE700000000024004000020C6
:1054B000080000200C00002038B5002400200090D7
:1054C000002210211248FBF78BFE5A2000F070F8E2
:1054D000002000F06DF8002000F06AF8842000F051
:1054E00067F8002000F064F800BF05E0FF2000F03E
:1054F0005FF80DF80400641C042CF7D3012210217E
:105500000348FBF76DFE0098401CC00838BD000042
:105510000000024010B50024002210210F48FBF7C4
:105520005FFE902000F044F8002000F041F80020D9
:1055300000F03EF8002000F03BF8FF2000F038F8C3
:1055400044EA0024FF2000F033F804430122102134
:105550000248FBF745FE204610BD00000000024057
:1055600070B505460024002210211048FBF738FED4
:105570004B2000F01DF8002000F01AF8002000F089
:1055800017F8002000F014F8002000F011F800BF18
:1055900004E0FF2000F00CF82855641C082CF8DB10
:1055A000012210210148FBF71BFE70BD00000240E4
:1055B00001B582B0002001900A20012301AA02A9AE
:1055C00000900448FCF70CFD08B1FF2001909DF805
:1055D00004000EBD8C010020F0B502460C460020F0
:1055E00025467BE1002100EB400606EBC00303E00B
:1055F000D65C0E44F1B25B1C461C06EB460707EB7B
:10560000C606761E9E42F3DC00EB400303EBC003AC
:10561000D35C552B7DD100EB400303EBC0030A3371
:10562000D35C8B42F6D100EB400303EBC0035B1C61
:10563000D35C512B77D100EB400303EBC0039B1CE1
:10564000D65C00EB400303EBC003DB1CD35C46EAF3
:1056500003231BB200EE103AB8EEC00ADFEDA10A38
:1056600080EE201ABDEEC10A10EE103A1BB29E4E1B
:10567000338200EB400303EBC0031B1DD65C00EB41
:10568000400303EBC0035B1DD35C46EA03231BB25C
:1056900000EE103AB8EEC00ADFED920A80EE201A52
:1056A000BDEEC10A10EE103A1BB28F4E738200EBB2
:1056B000400303EBC0039B1DD65C00EB400303EBF0
:1056C000C003DB1DD35C46EA03231BB200EE103A95
:1056D000B8EEC00ADFED830A80EE201ABDEEC10AE3
:1056E00010EE103A1BB2804EB38200EB400303EB86
:1056F000C0030833D65C00EB400303EBC00309335F
:10570000D35C46EA03231BB200EE103AB8EEC00A9F
:1057100001E0DEE007E0DFED750A80EE201A724B53
:1057200083ED031AD5E000EB400303EBC0035B1CE1
:10573000D35C522B5AD100EB400303EBC0039B1CFC
:10574000D65C00EB400303EBC003DB1CD35C46EAF2
:1057500003231BB200EE103AB8EEC00ADFED640A74
:1057600080EE201ABDEEC10A10EE103A1BB25E4E5A
:10577000F38200EB400303EBC0031B1DD65C00EB80
:10578000400303EBC0035B1DD35C46EA03231BB25B
:1057900000EE103AB8EEC00ADFED550A80EE201A8E
:1057A000BDEEC10A10EE103A1BB24F4E338300EB30
:1057B000400303EBC0039B1DD65C00EB400303EBEF
:1057C000C003DB1DD35C46EA03231BB200EE103A94
:1057D000B8EEC00ADFED460A80EE201ABDEEC10A1F
:1057E00010EE103A1BB2404E738372E000EB4003A0
:1057F00003EBC0035B1CD35C532B6AD100EB40036B
:1058000003EBC0039B1CD65C00EB400303EBC0031F
:10581000DB1CD35C46EA03231BB200EE103AF8EE21
:10582000C00A9FED341A80EE810ADFED330A20EEC4
:10583000200A2D4B83ED010A00EB400303EBC0036C
:105840001B1DD65C00EB400303EBC0035B1DD35C68
:1058500046EA03231BB200EE103AF8EEC00A9FEDB1
:10586000251A80EE810ADFED240A20EE200A1E4B65
:1058700083ED000A00EB400303EBC0039B1DD65CE5
:1058800000EB400303EBC003DB1DD35C46EA0323BC
:105890001BB200EE103AF8EEC00A9FED161A80EE29
:1058A000810ADFED150A20EE200A0F4B83ED020A74
:1058B00000EB400303EBC0030833D65C00EB40036E
:1058C00003EBC0030933D35C46EA03231BB2064E45
:1058D000B383A5F10B039DB2431CD8B20B2DBFF6C9
:1058E00081AEF0BD6F120340140A00200000C842D0
:1058F0006F128341000000470000344301460878DE
:1059000000F0800008B901207047087800F0E0003E
:10591000C02801D10220F7E7087800F0F000E02865
:1059200001D10320F0E7087800F0F800F02801D159
:105930000420E9E70020E7E70FB4084B10B504A9FD
:1059400002AA039800F014F9044602A9002000F00E
:105950009DFC204610BC5DF814FB00008D62000821
:105960007CB50C001D461646014601D0601E00E0C5
:105970000020CDE90010064B6A462946304600F06B
:10598000F7F8002C02D0009A002111707CBD0000B5
:105990007762000802480068C0F3022070470000E8
:1059A0000CED00E010B5002804DB0A07130E054AD1
:1059B000135406E00A07140E034A00F00F031B1FDE
:1059C000D45410BD00E400E018ED00E002E008C887
:1059D000121F08C1002AFAD170477047002001E069
:1059E00001C1121F002AFBD1704700002DE9FF5FA3
:1059F00082B00021DDE90430020DDDF840B0034340
:105A000018D044F61050A2F2FF32424315141198F8
:105A100001281FD0A5EB0B00401C5FEA000A4FF0E5
:105A200000064E4FDFF83891B046504615D5CAF102
:105A3000000413E0119801244AA3012801D16FEA60
:105A40000B010298119AC0E90031C0E9024206B088
:105A5000BDE8F09FCBF10000DFE704460021404A9B
:105A6000491842EB0450CDE9001012E0E00707D0DE
:105A700032463B4640464946FAF7ADFC80468946E9
:105A800032463B4610461946FAF7A5FC06460F4635
:105A90006410002CEAD1DDE90401DDE90023BAF14C
:105AA000000F06DAFAF797FC42464B46FAF793FCEA
:105AB00005E0FAF7B9FD42464B46FAF7B5FD044654
:105AC0000E460022284BFAF737FE03D84FF0FF307E
:105AD000014607E00022254B20463146FAF7D4FB69
