:020000040800F2
:1000000008160020D50200086D4B0008F9430008CF
:10001000C54A0008A71E0008A95A000800000000F1
:10002000000000000000000000000000CF500008A9
:10003000E71F000800000000CD500008D350000862
:10004000EF020008EF020008EF020008EF020008CC
:10005000EF020008EF020008EF020008EF020008BC
:10006000EF020008EF020008EF020008EF020008AC
:10007000EF020008AD1E0008EF020008EF020008C2
:10008000BD1E0008EF020008EF020008EF020008A2
:10009000EF020008EF020008EF020008EF0200087C
:1000A000EF020008EF020008EF020008EF0200086C
:1000B000A5510008EF020008EF020008EF02000857
:1000C000EF020008EF020008EF020008EF0200084C
:1000D000EF020008EF020008F5590008EF020008DF
:1000E000EF020008EF020008EF020008EF0200082C
:1000F000EF020008EF020008EF020008EF0200081C
:10010000EF020008EF020008EF020008EF0200080B
:100110000D530008EF020008EF020008EF0200088C
:10012000EF020008CD1E0008EF020008EF020008F1
:10013000EF020008EF020008EF020008EF020008DB
:10014000EF020008EF020008EF020008EF020008CB
:10015000EF020008EF020008EF020008055A00084D
:10016000EF020008EF020008EF020008EF020008AB
:10017000EF020008EF020008EF0200080000000094
:10018000EF020008EF02000800F002F800F092F819
:100190000AA090E8000C82448344AAF10107DA45E2
:1001A00001D100F087F8AFF2090EBAE80F0013F0A2
:1001B000010F18BFFB1A43F001031847187800001D
:1001C00038780000103A24BF78C878C1FAD85207AE
:1001D00024BF30C830C144BF04680C6070470000C1
:1001E0000023002400250026103A28BF78C1FBD840
:1001F000520728BF30C148BF0B6070476E2900F01E
:10020000A983702900F0F384662905F05C856529CF
:1002100005F05985672905F05685612905F0558552
:1002200003681B0A28BF41F08001692900F01A8188
:10023000642900F01781752900F014816F2900F0FE
:100240008084782900F0BF84E92900F01B84E42928
:1002500000F01884F52900F01584EF2900F07D8462
:10026000F82900F0BE840368DB0928BF41F0800153
:10027000632901F0D580732901F0DA80E32901F0C8
:10028000E580F32901F0EA80002070471FB505F0F2
:1002900015FD01F035F904000020002105F0F8FCFF
:1002A000401C60600020002105F0DCFCE0601FBD08
:1002B00010B510BD01F0F6F81146FFF7E7FF05F0A5
:1002C0004FFC01F0D3F903B4FFF7F2FF03BC01F0D8
:1002D0001BFA00000948804709480047FEE7FEE78F
:1002E000FEE7FEE7FEE7FEE7FEE7FEE7FEE7FEE7E6
:1002F00004480549054A064B704700009151000823
:1003000089010008080A002008160020080E0020B5
:10031000080E002053EA020C00F069802DE9F04B32
:100320004FF00006002B1FBFB3FA83F503FA05F464
:1003300024FA05F65E4012BF1643B2FA82F502FABD
:1003400005F4C5F120051EBF22FA05FC44EA0C04A1
:10035000203556EA044C4FEA144418BF641C4FF091
:1003600000084FF00009904271EB030C39D30029CB
:1003700019BFB1FA81F701FA07F6B0FA80F700FA6F
:1003800007F6C7F120071EBF20FA07FC46EA0C0655
:100390002037B6FBF4FCA7EB0507103F07F01F0B57
:1003A000CBF120060CFA0BFB2CFA06F644BFB34641
:1003B0000026202FA4BF5E464FF0000B5BEA060C20
:1003C00008BF4FF0010B19EB0B09ABFB027C48EBAC
:1003D0000608C01B06FB02CC0BFB03CC71EB0C0127
:1003E000C1E70B46024641464846BDE8F08B13B5CF
:1003F0004FF000004FF00001AFF30080BDE81C405B
:10040000704700007CB51D4616460C00009001D0D8
:100410002044401E074B7B442A46694601903046E3
:1004200000F0B1FA05461CB10020694600F0BEFAA2
:1004300028467CBD9D0500000FB41CB5084B06AADC
:100440007B4469460090059800F09DFA0446002020
:10045000694600F0ABFA20461CBC5DF814FB0000B6
:10046000690500002DE9F041064600241068752951
:10047000314616A510D000F0D9F9002802DA404222
:1004800013A507E031688A0701D512A502E04907E4
:1004900004D511A5012401E000F0D1F900210A22C0
:1004A00006F1240709E0B0FBF2FCB0FBF2F302FB1B
:1004B0001C00303078541846491C0028F3D12346DC
:1004C0002A463046BDE8F04100F0EBB900000000DC
:1004D0002D0000002B000000200000002DE9F05F3F
:1004E000894604464FF0000ADFF874B1FB44C0F8B7
:1004F00020A02046E1688847002874D0252806D02F
:10050000D4E901219047206A401C2062F1E70026CF
:100510005F462046E16888472028054607DB312DE5
:1005200005D2781910F8200C08B10643F1E7B0079E
:1005300001D526F00406C4F81CA00027C4F818A0B2
:100540002A2D09D0284605F003FB38B304EB8708B1
:10055000303DC8F8185019E059F8041B204604EB48
:1005600087029161E1688847012F054618D1E0694B
:10057000002820DA26F020061DE0D8F8180000EB4D
:10058000800005EB40003038C8F818002046E168CC
:100590008847054605F0DCFA0028EED1012F0AD085
:1005A0002E2D08D12046E16888477F1C0546022F82
:1005B00046F02006C4DBA069002803DA404246F07A
:1005C0000106A061F00701D026F010066C2D0BD0BB
:1005D000682D09D04C2D39D06A2D35D0742D35D0E9
:1005E0007A2D33D016E038E0E1682F462046884760
:1005F000B842054609D16C2F26D04FF48060E168DF
:10060000064320468847054604E06C2F1AD04FF475
:10061000807006430DB3A5F14100192802D820359A
:1006200046F400664A462946204626604E46FFF7B5
:10063000E5FD80B101280BD0F61D26F0070000F182
:10064000080956E74020E4E78020D8E70020D6E7F5
:1006500006F104094DE7284652E7206ABDE8F09FFD
:10066000E473000040EA010310B59B070FD1042A90
:100670000DD310C808C9121F9C42F8D020BA19BA6D
:10068000884201D9012010BD4FF0FF3010BD1AB1D2
:10069000D30703D0521C07E0002010BD10F8013B27
:1006A00011F8014B1B1B07D110F8013B11F8014B4E
:1006B0001B1B01D1921EF1D1184610BD032A40F236
:1006C000308010F0030C00F0158011F8013BBCF1F4
:1006D000020F624498BF11F801CB00F8013B38BF0C
:1006E00011F8013BA2F1040298BF00F801CB38BF1A
:1006F00000F8013B11F0030300F08482083AC0F0D7
:10070000088051F8043B083A51F804CBA0E80810DF
:10071000F5E7121D5CBF51F8043B40F8043BAFF312
:100720000080D20724BF11F8013B11F801CB48BF6C
:1007300011F8012B24BF00F8013B00F801CB48BFA2
:1007400000F8012B70474FF000020429C0F012801E
:1007500010F0030C00F01B80CCF1040CBCF1020F74
:1007600018BF00F8012BA8BF20F8022BA1EB0C0149
:1007700000F00DB85FEAC17C24BF00F8012B00F83F
:10078000012B48BF00F8012B70474FF0000200B565
:10079000134694469646203922BFA0E80C50A0E8A4
:1007A0000C50B1F12001BFF4F7AF090728BFA0E852
:1007B0000C5048BF0CC05DF804EB890028BF40F81E
:1007C000042B08BF704748BF20F8022B11F0804F60
:1007D00018BF00F8012B704770477047704770B51D
:1007E000044685690068C10601D5302600E0202650
:1007F000C00707D070BDD4E9012130469047206A78
:10080000401C20626D1EF6D570BD70B5044685692A
:100810000078C00707D170BDD4E90121202090479E
:10082000206A401C20626D1EF6D570BD09684A051D
:1008300001D540B27047C905FCD500B270470968C0
:100840004A0501D5C0B27047C905FCD580B27047D2
:1008500070B50C460546012A05D02878800600D5DB
:10086000EA69002302E0012305E05B1C934202D207
:10087000E05C0028F9D1A869E618C01AA861286AC6
:10088000184428622846FFF7AAFF04E0D5E90121B1
:1008900014F8010B9047B442F8D32846FFF7B5FF90
:1008A00070BD2DE9F0470D4699469246044600F189
:1008B00024080168880604D5E06921F01001216050
:1008C00000E00120A84201DD471B00E00027A169EC
:1008D0007A1902EB0900081AA0612078C00602D438
:1008E0002046FFF77CFF002608E0D4E901211AF832
:1008F00006009047206A401C761C20624E45F4DBBF
:100900002078C0060AD52046FFF769FF06E0D4E943
:10091000012130209047206A401C2062381EA7F138
:100920000107F4DC07E0D4E9012118F8050090473D
:10093000206A401C2062281EA5F10105F3DC204638
:10094000FFF763FF2078000602D50220BDE8F0879C
:100950000120FBE711680268006A530501D50870A1
:100960000AE0D30501D5088006E0130603D5C217B7
:10097000C1E9000200E008600120704701694A1CDB
:1009800002610878704700B58FB0CDE901310021D0
:10099000059105497944CDE9031011466846FFF7F2
:1009A0009DFD0FB000BD0000E5FFFFFF0A6802F8E3
:1009B000010B0A607047D1E900239A4202D2531C0E
:1009C0000B601070704700002DE9FF5F15468A46E6
:1009D0000446DFF8AC80F8440027D8E900103E4612
:1009E000CDE9001010E03AF816106A4602A800F0AF
:1009F00039FD411C07D02178890603D5E2693918F1
:100A000091420DD80744761C2078800602D5E06913
:100A1000B84205DDAE42E6DB3AF816000028E2D126
:100A2000A069C01BA0612046FFF7D9FED8E90010DD
:100A3000CDE90010002017E03AF818106A4602A825
:100A400000F010FDB0F1FF3F81460BD000250DF105
:100A5000080B05E0D4E901211BF8050090476D1C47
:100A60004D45F7D308F10100B0428046E4DB206A2F
:100A7000384420622046FFF7C8FEBDE8FF9F000013
:100A80000E6F00002DE9F0418046D21D22F00702D2
:100A90000025D2E90002F52915A614D0011E72F135
:100AA000000106DA0023D0EB030063EB020211A67B
:100AB00008E0D8F800108B0701D50FA602E049071F
:100AC00001D50EA601251146002408F1240704E0F3
:100AD00000F0CAF830323A55641C50EA0102F7D1EE
:100AE0002B46324621464046BDE8F041FFF7D9BECD
:100AF000000000002D0000002B000000200000007E
:100B000030B4002100F1240408E002F00705D20807
:100B1000303542EA4372DB086554491C52EA03054A
:100B2000F3D10468002310A2250707D5A40600D43A
:100B300021B1C46901230DA2641EC46130BCFFF75A
:100B4000B0BE10B5044621461068FFF778FE024695
:100B50002046BDE810400023D2E7D21D22F0070155
:100B6000D1E90023CCE700000000000030000000C5
:100B7000F0B40D460188090502D5214C7C4402E001
:100B80001F4C7C440E34002100F1240608E002F0E2
:100B90000F071209E75D42EA03721B097754491CEB
:100BA00052EA0307F3D102780023120704D5702D0F
:100BB00006D009B1022311342246F0BCFFF771BE02
:100BC00001231034F8E770B504460D46214610683D
:100BD000FFF735FE024629462046BDE87040002357
:100BE000C6E7D21D22F00703D3E90023C0E703685C
:100BF000126843F0200303600823C3610023B7E7B2
:100C0000706D000010B5203AC0F00B80B1E81850AC
:100C1000203AA0E81850B1E81850A0E81850BFF4E6
:100C2000F5AF5FEA027C24BFB1E81850A0E8185085
:100C300044BF18C918C0BDE810405FEA827C24BFD9
:100C400051F8043B40F8043B08BF7047D20728BF67
:100C500031F8023B48BF11F8012B28BF20F8023BB6
:100C600048BF00F8012B704730B5B0F10A024FEAD7
:100C7000900E71F100034EEA817EB0EB0E0061EB45
:100C800091014FEA101E4EEA017E10EB0E0041EB7F
:100C900011114FEA102E4EEA016E10EB0E0041EBDF
:100CA00011214FEA104E4EEA014E10EB0E0041EBBF
:100CB0001141401841F100014FEAD00040EA417073
:100CC0004FEAD10110EB80054FEA810444EA9074A9
:100CD00044EB01046D1944EB0404521BA3414FF093
:100CE000000348BF0A3200D530BD401C41F100016D
:100CF00030BD70472DE9FF4F0C461E464FF0FF37C1
:100D00008BB0D2E90001DDF860800A908A46C1F319
:100D10000A5505B93D46002108464FF00000BAF1DA
:100D2000000F00F4400005DA00EB80004FF44001B2
:100D300001EA50004FEA9059B9F1010F00DDB946C0
:100D40000A9850EA4A000ED044F61050A5F2FF353A
:100D500045432F14B8F1000F1ED07542291E1EDD29
:100D6000C9F100021CE0B8F1010F4FF0000001D002
:100D7000302103E0F24305E02154401CB042FBDB8C
:100D800030460022002121540B99C1F80880C1E9A6
:100D900000200FB0BDE8F08FBD1B6D1CDEE74A469A
:100DA00000DA694206A800F0EFFB06AB93E8070003
:100DB00003AB83E8070050460A9900F0ACFC8DE8CD
:100DC0000700A0F500501F3800900398002D0ADDA1
:100DD00042F21F014A460844002303A903906846D3
:100DE00000F015FF09E0A0F500504A461F38002327
:100DF00003A90390684600F01FFF8DE80700000478
:100E0000000C03D04FF0FF30410800E01046B8F16D
:100E1000000F03D00022009215461EE0751E05D477
:100E2000FFF722FF303262556D1EF9D5B34601221D
:100E3000084302D000227F1C04E02078302801D132
:100E400000227F1E002A099784D01DE0112D07DAA9
:100E5000FFF70AFF303262556D1C50EA0102F5D1EE
:100E6000084302D00098C8B10EE00021681E05E0DA
:100E7000235C625C63542254401E491C8142F7DBB0
:100E8000AB46A81B401E0990002004F80B000B98ED
:100E9000099AC0F80880C0E9002B7AE711264FF0C4
:100EA000000857E72DE9F04F88460446D21D22F08E
:100EB000070191B0D1E90001CDE90A0104F014FE67
:100EC00002460B98C00F01D02D2007E02068810753
:100ED00001D52B2002E0202101EAC000032A09905D
:100EE00001D0072A05DB03464146204600F00CFBF3
:100EF0000BE12078800601D5E06900E00620B8F11A
:100F0000650F814606D0B8F1660F18D0B8F1670FAB
:100F100070D131E00020B9F1110F009001DB1123F5
:100F200001E009F101030AAA01A90CA8FFF7E2FEFA
:100F3000DDE90C70002609F10105834647E0012038
:100F40004B4600904FF000470AAA01A90CA8FFF7F2
:100F5000D1FEDDE90DB00C995D46002610B909F10E
:100F600001000D18B9EB050003D4C0F1FF3609F1FB
:100F70000105A5EB09002BE0B9F1010F01DA4FF0F3
:100F800001090020B9F1110F0090484601DD11233D
:100F900000E003460AAA01A90CA8FFF7ABFEDDE9B1
:100FA0000C704D4600268346207800070AD4AB45D6
:100FB00000DA5D4601A8012D04DD411911F8011C7C
:100FC000302907D04F4502DA17F1040F04DA012067
:100FD00082460FE06D1EEEE7002F02DCED1B3E4463
:100FE00003E0781CA84200DD7D1CB81B00F1010A5B
:100FF0004FF000472078000703D4AA4501DB4FF0EB
:10100000FF3A0021B7F1004F0DF143088DF843106E
:1010100024D002202B23002F01DA7F422D230A2126
:10102000021EA0F1010000DC5FB197FBF1FC97FB11
:10103000F1F201FB1C7C17460CF1300C08F801CDD5
:10104000EEE7A8F1010003702188090501D54521CB
:1010500000E06521A0F1010800F8011C09980FA922
:10106000A1EB0807FF1D00B10120411901EBEA7057
:10107000A1693844081A401EA0612078C00602D435
:101080002046FFF7ACFB099828B1D4E9012190472D
:10109000206A401C20622078C00622D52046FFF737
:1010A0009EFB1EE0002E04DBB34502DD01A8805D3F
:1010B00000E03020D4E901219047206A401C2062E2
:1010C000761CAAF101005FEA000A0AD100F018FAC2
:1010D000C0680168405CD4E901219047206A401C47
:1010E0002062281EA5F10105DCDC07E0D4E901211E
:1010F00018F8010B9047206A401C2062381EA7F1A7
:101100000107F3DC2046FFF780FB032011B041E626
:101110002DE9F04F04460D46D21D22F0070089B09C
:10112000D0E900974846394604F0DEFC0246F80F45
:1011300001D02D2307E02068810701D52B2302E091
:10114000202101EAC0038DF820300BB1012000E01E
:101150000020032A824601D0072A04DB29462046C4
:1011600000F0D2F93FE12078800601D40D2500E09F
:10117000E569C7F30A560D2D49DA00214FEA175BDE
:1011800008464FF00000002F00F4400007DA00EBA3
:1011900080004FF4400100EBD07001EA600081153F
:1011A000012901DD4FF0FF3100224FEA850CBCF12F
:1011B000180F06D31346ACF118004FF08052C2400E
:1011C00003E04FF4801323FA0CF30CF10C0CBCF188
:1011D000200F04D3ACF1200C09FA0CF001E007FA5F
:1011E0000CF000294FF0004801DD18B90FE00ED1D6
:1011F00040450CD319EB02095F4121B9404502D1AA
:101200009F4329EA0209BBEB175F00D0761C2088B8
:10121000000502D57B48784402E07A4878441938C2
:1012200008AA302302F80A30037C0AF10101002EDB
:101230000AF1020A53546A4602DC4FF0300101E021
:101240004FF031014FF001088DF8001002D0A6F2E6
:10125000FF3603E059EA470100D06B4E002D02DC57
:101260002178090704D54FF002082E218DF80110CE
:10127000C44600210BE0C7F303433F01C35C491C94
:101280006D1E02F80830052908F1010801DA002D69
:10129000F1DC00210CE000EB1973491C1B786D1E7A
:1012A000082902F808304FEA091908F1010801DAA3
:1012B000002DF0DC21688B0602D516E0A8F10108AC
:1012C000E04505DD02EB080313F8013C302BF5D0B7
:1012D000B8F1000F09DD02EB080313F8013C2E2BD7
:1012E00003D1090701D4A8F10108002D05DD3E2135
:1012F00002F808106D1E08F10108407C002E02F86B
:10130000080008F1010804DA2D20764202F80800EE
:1013100002E02B2002F808000A214FF47A7086427E
:1013200008F101080BDB96FBF0F3303302F80830CC
:1013300096FBF0F308F1010800FB136601E0642E50
:101340000CDB642096FBF0F3303302F8083096FB98
:10135000F0F308F1010800FB136601E00A2E06DB3A
:1013600096FBF1F0303002F8080008F1010896FB16
:10137000F1F001FB1060303002F80800A16908F1BB
:10138000010808EB050202EB0A00081AA0612078A8
:10139000C00602D42046FFF722FA216A08AE01EB0C
:1013A0000A00206204E0D4E9012116F8010B9047FD
:1013B000BAF1010AF7D22078C00602D52046FFF71D
:1013C0000EFA6E4609E016F8010B3E280FD0D4E95C
:1013D00001219047206A401C2062B8F10108F2D236
:1013E0002046FFF712FA09B00320BDE8F08F206A0B
:1013F0002844206203E0D4E90121302090476D1E8B
:10140000EBD3F8E71167000002FCFFFF10B543695A
:1014100013B1AFF3008001E0FFF71AFA012010BD0D
:10142000127800F124010A7000224A700122EDE7CF
:1014300011684FF0FF32E9E710B5436913B1AFF31C
:10144000008001E0FFF7C0FA012010BD128800F112
:10145000240182840022C2840122EDE711684FF04A
:10146000FF32E9E770B516460C46054600F040F835
:10147000036893F80101012806D0FF2C0FD8185DEE
:1014800068B101202C7070BDD3F8070132462146A7
:1014900003F2071303442846BDE8704018474FF095
:1014A000FF3070BD754600F0EBF8AE4605006946AA
:1014B000534620F00700854618B020B5FEF718FF08
:1014C000BDE820404FF000064FF000074FF0000845
:1014D0004FF0000B21F00701AC46ACE8C009ACE8C6
:1014E000C009ACE8C009ACE8C0098D4670470000EF
:1014F00010B500F005F8001D10BD00BF95470000B5
:1015000000487047C80900202DE9F0411F460446F5
:1015100003260168072A01F4006004DB08B116A560
:1015200005E016A503E008B115A500E015A521F01A
:1015300010002060A069C01EA0610FB1401EA06114
:101540002046FFF74CF94FB1D4E9012138469047C6
:10155000206A401C2062C01C206206E0206AFAE774
:10156000D4E9012115F8010B9047761EF8D22046E8
:10157000FFF74BF9BDE8F0814E414E006E616E0001
:10158000494E4600696E66002DE9F04781461646D1
:101590008AB0354878440DC88DE80D00324878444B
:1015A000801C03AC0DC884E80D0041F69B30084454
:1015B000372190FBF1F290FBF1F5A5F1800501FBDD
:1015C00012041B3C02D56442012000E00020DFF839
:1015D00098A080460027FA44AAF1BE0A0EE0E00770
:1015E0000AD03246684607EB470101230AEB810126
:1015F00000F022FB8DE8070064107F1C002CEED168
:10160000194F7F44AE3F19E0E80715D007EB0410EF
:101610000DF1180A90E80E008AE80E00C068F0424A
:1016200001D1981908903246012306A903A800F0B9
:1016300003FB03AB83E807006D10641C002DE3D1AE
:101640004FF0010332466946B8F1000F03A802D0FB
:1016500000F0DDFA01E000F0EFFAC9E90001C9F895
:1016600008200AB0BDE8F0872464000010B50446E5
:10167000AFF300802046BDE81040FEF724BE000016
:1016800000487047A80900204FF0013C50F8042B97
:1016900051F8043B9A4221D1A2EB0C03934313EA85
:1016A000CC1317D150F8042B51F8043B9A4215D1B2
:1016B000A2EB0C03934313EACC130BD150F8042B89
:1016C00051F8043B9A4209D1A2EB0C03934313EA6D
:1016D000CC13DBD04FF00000704700BFD01A01BA26
:1016E000B1FA81F101F0180122FA01F0CB40C1F109
:1016F0002001DBB2C0B2C01A2CFA01F3D11A914317
:1017000011EAC311E6D1704701491820ABBEFEE7CC
:101710002600020070475FEA400C08BF91F0000FFE
:101720004FEA8C234FEAC12243EA51514FEA1C5041
:1017300018BF00F5F0404FEA300018BF41F00041FB
:101740005FEA6C5C00F02980BCF1FF3F08BF40F00D
:1017500080407047130C06BF12044FF0100C4FF07E
:10176000000C130E04BF12020CF1080C130F04BF7F
:1017700012010CF1040C930F04BF92000CF1020C47
:10178000D30F04BF52000CF1010C11464FF00002C0
:10179000A0F11F00A0EB0C00704711F0004F08BF34
:1017A000704731F000413FF4D5AF0B0C06BF090480
:1017B0004FF0100C4FF0000C0B0E04BF09020CF19F
:1017C000080C0B0F04BF09010CF1040C8B0F04BFB4
:1017D00089000CF1020CCB0F04BF49000CF1010C85
:1017E000CCF12003A0EB0C0022FA03F302FA0CF276
:1017F00041EA030100F10100704720F07F4C80EACC
:10180000030023F07F47ACEB070303F57C5300F0A4
:10181000004003F1FF032DE980494FEA154B09B45D
:101820004FEA144325EA0B4E24EA03480FF204263C
:1018300006EB132749083E785FEA320203FB06678E
:10184000C7F5000707FB06F64FEA54374FEAD646BE
:1018500006F1020607FB066CCCF1005C4FEA1C4760
:101860002CEA074C07FB06F40CFB06F504EB1546C7
:101870004FEA961634BF00204FF000404FEAD137B0
:1018800006FB07FC4FEA1C4C0CFB0BF7D21B03FBBF
:101890000CF761EB07010CFB0EF7B0EB074072EBA6
:1018A00017420CFB08F734BFA2EB0742B2EB07422A
:1018B00061EB17414FEA0C444FEA910706FB07FC26
:1018C0004FEA1C4C0CFB0BF7B0EBC74072EB5732E6
:1018D00003FB0CF734BFA2EBC742B2EBC74261EB8C
:1018E00057310CFB0EF7B0EBC70072EB57720CFBD5
:1018F00008F734BFA2EBC702B2EBC70261EB577126
:10190000039F4FEA816141EA921104EBCC044FEA54
:10191000D1374FEA826206FB07FC42EA90124FEA97
:1019200080604FEA1C4C0CFB0BF7D21B03FB0CF73F
:1019300061EB07010CFB0EF7B0EB074072EB1742AF
:101940000CFB08F734BFA2EB0742B2EB074261EB96
:1019500017414FEA8C554FEA910704EB9C2406FB94
:1019600007FC4FEA1C4C0CFB0BF7B0EBC74072EBCB
:10197000573203FB0CF734BFA2EBC742B2EBC742AE
:1019800061EB57310CFB0EF7B0EBC70072EB5772EF
:101990000CFB08F734BFA2EBC702B2EBC70261EB46
:1019A000577115EB4C254FEA816141EA92114FEADC
:1019B00082624FEAD13742EA901206FB07FC44F1FB
:1019C00000044FEA80604FEA1C4C0CFB0BF7D21B63
:1019D00003FB0CF761EB07010CFB0EF7B0EB0740C4
:1019E00072EB17420CFB08F734BFA2EB0742B2EBD5
:1019F000074261EB174115EB1C154FEA813141EAB3
:101A000092414FEA823242EA90424FEA80304FEAF6
:101A10000C7644F1000448EA03434EEA0B484FF0C9
:101A2000000EB2EB080C71EB030724BF6246394687
:101A30004EEB0E0E4FF0000B0018524149414BEB9C
:101A40000B0BB2EB080C71EB03077BF1000B24BF0F
:101A5000624639464EEB0E0E4FF0000B0018524115
:101A600049414BEB0B0BB2EB080C71EB03077BF11D
:101A7000000B24BF624639464EEB0E0E51EA0207B8
:101A800018BF46F0010616EB0E7655F1000254F130
:101A9000000103D5BDE88901BDE80088BDE88901E2
:101AA000BDE80048B619524141EB0101A3F1010321
:101AB000704780807F7E7D7C7B7A797877767675BB
:101AC0007473727171706F6E6E6D6C6C6B6A6A6933
:101AD0006868676666656464636362616160605FCD
:101AE0005F5E5E5D5D5C5C5B5B5A5A595958585746
:101AF00057565655555554545353525252515150AE
:101B000050504F4F4F4E4E4D4D4D4C4C4C4B4B4B00
:101B10004A4A4A4949494848484747474746464646
:101B20004545454444444443434343424242424181
:101B30004141002B9C4630D477002BD01CB54FEA96
:101B4000370703B44FF010004FF01001BAF1000F47
:101B500006D0BCF1000FDCBF40F0080040F00801E7
:101B60004FF000000FBCBDE810400BF1010BBBF1C2
:101B7000010F08BF5FEA170722BF12F1010211F13E
:101B800001014FF0004143F1000300F0004043EA3F
:101B900000007047F9D35708D0E746EA064613F12C
:101BA000400F4FEA16461FDD13F1200FDFBF16432B
:101BB0000A46002120335B42BED0C3F1200746EA2B
:101BC000064602FA07F74FEA164646EA0706C3F149
:101BD000200722FA03F201FA07F721FA03F14FF086
:101BE000000342EA0702A7E746EA020646EA06467B
:101BF0004FEA164646EA0106BCBF46EA0646360CE0
:101C00004FF000034FF000024FF0000194E72DE980
:101C1000804C9A46934670B491E8380007C831EA80
:101C2000400C48BF34EA430C03D5FFF7E6FDFFF74D
:101C300080FFF0BCBDE8008C2DE9804C9A469346AD
:101C400070B491E8380007C810F0804F08BF13F057
:101C5000804F03D100F005F8FFF76BFFF0BCBDE843
:101C6000008C20F07F4780EA030023F07F4C07EBD5
:101C70000C03A3F57C5300F00040A3F1FE0392F0A7
:101C8000000F00F0B38095F0000F00F077802DE991
:101C900001494FEA11404FEA144621EA004800FB8F
:101CA00006FC24EA064708FB06F607FB08F800FBDB
:101CB00007F718EB06484CEB164C4FEA124B18EBA3
:101CC00007484FEA15464CEB174022EA0B4E0BFB38
:101CD00006FC25EA06470EFB06F607FB0EFE0BFB8D
:101CE00007F71EEB064E4CEB164C4FF000061EEBB2
:101CF000074E4CEB174B18EB0B0840F1000018EBAC
:101D00000E0B58EB000840F100008F1A4FF0000155
:101D10003CBFC943661B14BFB5EB040C00213CBF9C
:101D2000C943F61B4FEA17444EEA8E0E27EA0445D4
:101D30004FEA1C4704FB07622CEA074C05FB07F738
:101D40000CFB05F604FB0CFC16EB074642EB1742B6
:101D500016EB0C4642EB1C421BEB060658EB02024C
:101D6000414146EA9E0601D5BDE80189B6195241B6
:101D700041EB0101A3F10103BDE801894FEA1445DC
:101D80004FEA114724EA054621EA074C05FB07F410
:101D900006FB07F70CFB06F105FB0CFC11EB0741FA
:101DA00044EB17444FEA124711EB0C4144EB1C443F
:101DB00022EA074C05FB07F206FB07F70CFB06F6C9
:101DC00005FB0CFC16EB074642EB174216EB0C46E4
:101DD00042EB1C456A1854F1000148BF7047B61920
:101DE000524141EB0101A3F10103704795F0000F4F
:101DF00037D04FEA11424FEA144721EA024624EA5B
:101E0000074C02FB07F106FB07F70CFB06F402FB8D
:101E10000CFC14EB074441EB17414FEA154714EB58
:101E20000C4441EB1C4125EA074C02FB07F506FB7D
:101E300007F70CFB06F602FB0CFC16EB074645EB1E
:101E4000174516EB0C4645EB1C42121951F10001E7
:101E500048BF7047B619524141EB0101A3F101039C
:101E600070474FEA14454FEA114724EA054621EA34
:101E7000074C05FB07F106FB07F70CFB06F24FF0DA
:101E8000000605FB0CFC12EB074241EB174112EB7D
:101E90000C4251EB1C4148BF7047921841EB0101C5
:101EA000A3F10103704700BFFEE7000010B5024830
:101EB00000F0A0FA10BD0000C401002010B50248D7
:101EC00000F098FA10BD00002402002010B502486E
:101ED00000F090FA10BD000084020020014608784E
:101EE00010381823B0FBF3F20848805CC865032A59
:101EF00005D908686FF30900001D886503E00868CC
:101F00006FF309008865886D70470000B478000899
:101F1000014600208A6A8B69CBB932B1012A0DD003
:101F2000022A03D0032A10D10EE000BFCB6A03F0CF
:101F30008073B3F1807F00D1012007E0CB6AB3F159
:101F4000C07F00D1012001E000E000BF34E08B69D8
:101F5000B3F5005F1AD132B1012A07D0022A03D0AB
:101F6000032A11D10AE000BF01200EE0CB6A03F082
:101F70008073B3F1807F00D1012006E0CB6AB3F11A
:101F8000C07F00D1012000E000BF15E032B1012A7E
:101F900005D0022A04D0032A0CD103E000BF00BF01
:101FA000012008E0CB6A03F08073B3F1807F00D199
:101FB000012000E000BF00BF704730B5046824680E
:101FC00024F4802405682C60046863608468402CD5
:101FD00004D10468A2600468E16003E00468A160C1
:101FE0000468E26030BD70472DE9FF4107460C46AA
:101FF00015461E46002000900190029003908DF837
:102000000040F3208DF80100AB208DF802008DF820
:1020100003508DF804606B208DF805004FF47A733F
:1020200006226946384602F087F9BDE8FF812DE9AE
:10203000F04105460E46144615B10CB1032E02DAE6
:102040000020BDE8F08160212046FEF79EFB287845
:1020500020706878607084F85C60002705E0E95DB6
:1020600004F13C00C155781CC7B2B74201DA202FF9
:10207000F5DB60781F38292873D2DFE800F0152DD2
:102080003D72724372724E727272727272727272B8
:1020900059726A727387A272B5BDC572CEDFF3FC46
:1020A000F0EFEEEDECEBEA00042E14DB002706E087
:1020B000B81C295C04F12C00C155781CC7B2F01E75
:1020C000B84201DD0F2FF3DB002104F12C00C155D4
:1020D000012084F85D001CE1062E0CDBE878A9786D
:1020E00040EA012020836879297940EA0120E082D2
:1020F000012084F85D000CE1082E02DB012084F849
:102100005D0006E1042E07DBE878A97840EA0120AB
:10211000E082012084F85D00FBE0042E07DBE87814
:10212000A97840EA01202083012084F85D00F0E0D6
:10213000062E0DDBA8780006E97840EA01402979EF
:1021400040EA0120697908432061012084F85D009C
:10215000DFE0032E04DBA8782073012084F85D0003
:10216000D7E0D2E0052E10DBA878A0702879E978B6
:1021700040EA012000B2A080A07818B1A0884042B7
:1021800000B2A080012084F85D00C2E0072E17DBBA
:10219000A978A170E97809062A7941EA02416A79A9
:1021A00041EA0221AA7941EA020081B2A160A17844
:1021B00011B1A1684942A160012184F85D1000BFFE
:1021C000A7E0072E0FDBA9780906EA7841EA024169
:1021D0002A7941EA02216A7941EA0200A0600121DC
:1021E00084F85D1000BF94E0032E04DBA8786073D0
:1021F000012084F85D008CE0032E04DBA8782073B6
:10220000012084F85D0084E0032E05DBA87884F8C3
:102210002B00012084F85D007BE0062E0DDBA87802
:102220000006E97840EA0140297940EA012069790D
:102230000843E061012084F85D006AE0042E07DBBA
:10224000E878A97840EA01202084012084F85D0024
:102250005FE051E047E03DE033E027E01DE013E0C0
:1022600009E0FFE7032E05DBA87884F822000120AF
:1022700084F85D004DE0032E05DBA87884F8230088
:10228000012084F85D0044E0032E05DBA87884F883
:102290002400012084F85D003BE0032E05DBA878D4
:1022A00084F82500012084F85D0032E0042E07DB6D
:1022B000E878A97840EA0120E084012084F85D00F4
:1022C00027E0032E05DBA87884F82800012084F895
:1022D0005D001EE0032E05DBA87884F829000120AC
:1022E00084F85D0015E0032E05DBA87884F82A0049
:1022F000012084F85D000CE0032E05DBA87884F84B
:102300002B00012084F85D0003E0012084F85D00CB
:1023100000BF00BF94F85D0093E672B600BFFEE711
:1023200070B50446A56D00F05BFB064694F83500D9
:10233000022808D08020606500BF002084F83400A7
:1023400000BF012070BD2068006820F016002168E1
:1023500008602068406920F0800021684861206C96
:1023600008B9A06C28B12068006820F00800216836
:1023700008602068006820F001002168086010E013
:1023800000F02EFB801B05280BD920206065032060
:1023900084F8350000BF002084F8340000BF03201B
:1023A000D0E72068006800F001000028E8D194F828
:1023B0005C103F208840A860012084F8350000BFF1
:1023C000002084F8340000BF00BFBBE7014691F84D
:1023D0003500022803D08020486501207047052081
:1023E00081F835000868006820F001000A68106074
:1023F0000020F3E7F8B50446002000908C48006800
:102400004FF41651B0FBF1F7A56D2E6894F85C10EF
:1024100008208840304098B12068006800F004002F
:1024200070B12068006820F004002168086094F80A
:102430005C1008208840A860606D40F00100606575
:1024400094F85C1001208840304068B120684069F1
:1024500000F0800040B194F85C1001208840A86032
:10246000606D40F00200606594F85C1004208840C4
:10247000304068B12068006800F0020040B194F874
:102480005C1004208840A860606D40F00400606526
:1024900094F85C1010208840304078B320680068C1
:1024A00000F0080050B394F85C1010208840A86039
:1024B0002068006800F4802080B12068006800F483
:1024C000002028B9206CC8B12046216C884715E04F
:1024D000A06C98B12046A16C88470FE02068006886
:1024E00000F4807028B92068006820F00800216896
:1024F0000860206C10B12046216C884794F85C106D
:10250000202088403040002865D02068006800F016
:10251000100000285FD094F85C1020208840A8604C
:1025200094F83500052828D12068006820F01600AE
:10253000216808602068406920F0800021684861B7
:10254000206C08B9A06C28B12068006820F0080051
:102550002168086094F85C103F208840A860012042
:1025600084F8350000BF002084F8340000BF206DDF
:1025700010B12046216D8847F8BD2068006800F43E
:10258000802080B12068006800F4002028B9606CC9
:1025900010B12046616C88471DE0E06BD8B1204641
:1025A000E16B884717E02068006800F4807068B924
:1025B0002068006820F0100021680860012084F87D
:1025C000350000BF002084F8340000BFE06B10B17C
:1025D0002046E16B8847606D38B3606D00F0010004
:1025E000F0B1052084F835002068006820F0010073
:1025F0002168086000BF0098401C0090B84200D9D4
:1026000005E02068006800F001000028F3D100BF59
:10261000012084F8350000BF002084F8340000BF9A
:10262000E06C10B12046E16C884700BFA4E70000D1
:10263000100000202DE9F0410446002500F0D0F9FB
:10264000074614B90120BDE8F081606A00B100BFFF
:10265000022084F8350000BF002084F8340000BF59
:102660002068006820F00100216808600AE000F09E
:10267000B7F9C01B052805D920206065032084F820
:102680003500E0E72068006800F001000028EED186
:102690002068056821480540D4E901010843E16844
:1026A00008432169084361690843A1690843E16956
:1026B0000843216A08430543606A042803D1D4E92A
:1026C0000B0108430543206805602068456925F033
:1026D0000705606A0543606A04280DD1A06A0543B6
:1026E000E06A48B12046FFF713FC28B1402060653E
:1026F000012084F83500A6E7206845612046FFF7F1
:10270000EDFB064694F85C103F208840B060002046
:102710006065012084F83500002094E73F8010F0C8
:102720002DE9F04704460D4616461F464FF00008B7
:10273000D4F8589000BF94F83400012802D1022048
:10274000BDE8F087012084F8340000BF94F835001C
:10275000012825D1022084F83500002060653B4621
:10276000324629462046FFF728FC94F85C103F20AB
:102770008840C9F808002068006840F01600216809
:102780000860206C28B12068006840F008002168CB
:1027900008602068006840F001002168086006E0D9
:1027A00000BF002084F8340000BF4FF0020840460C
:1027B000C6E7000070B5044600F012F9064625464B
:1027C000681C10B104480078054400BF00F008F907
:1027D000801BA842FAD370BD0C000020F8B5024659
:1027E0000B460025002400200021D6E0012606FA31
:1027F00001F51E6806EA0504AC4274D11E7906F0A4
:102800000306012E04D01E7906F00306022E13D112
:1028100090684F000326BE40B0434F00DE68BE40C4
:1028200030439060506801268E40B0431E79C6F355
:1028300000168E40304350601E7906F00306032ECA
:1028400009D0D0684F000326BE40B0434F009E68B9
:10285000BE403043D0601E7906F00306022E13D12D
:10286000CF0802F1200656F827004E07F70E0F2674
:10287000BE40B0434F07FF0E1E69BE403043CF0835
:1028800002F1200646F8270010684F000326BE40DC
:10289000B0431E7906F003064F00BE40304310607F
:1028A0005E6806F44036002E76D000BF0026009603
:1028B0003C4E366846F480463A4F3E603E463668A7
:1028C00006F48046009600BF00BF374E8F0856F8CA
:1028D00027008E07370F0F26BE40B043334EB2425B
:1028E00002D1002624E057E0314EB24201D1012648
:1028F0001EE0304EB24201D1022619E02E4EB24205
:1029000001D1032614E02D4EB24201D104260FE07E
:102910002B4EB24201D105260AE02A4EB24201D125
:10292000062605E0284EB24201D1072600E008261F
:102930008F073F0FBE4030431B4E8F0846F82700DD
:10294000224E3068A0435E6806F4801606B120432C
:102950001E4E3060361D3068A0435E6806F40016D7
:1029600006B12043194E361D3060184E361F3068B0
:10297000A0435E6806F4003606B12043134E361FAE
:102980003060361F3068A0435E6806F4803606B1BA
:1029900020430E4E083E3060491C1029FFF426AF3C
:1029A000F8BD0000443802400838014000000240F1
:1029B0000004024000080240000C024000100240E7
:1029C0000014024000180240001C0240083C014074
:1029D000024613690B400BB1012000E00020704754
:1029E00001480068704700000400002070B50446EC
:1029F0000CB9012070BD94F83D0028B9002084F87E
:102A00003C00204600F092F9242084F83D00206824
:102A1000006820F00100216808602068006840F428
:102A20000040216808602068006820F400402168A8
:102A3000086000F061FB05465C496068884206D882
:102A40005B48854201D2012007E0002005E059489B
:102A5000854201D2012000E00020012800D1C9E711
:102A60005548B5FBF0F62068406820F03F00304341
:102A7000216848604D496068884201D8701C07E0B1
:102A80004FF4967070434FF47A71B0FBF1F0401C34
:102A90002168096A21F03F0108432168086243491F
:102AA0006068884214D8681E61684900B0FBF1F084
:102AB000401CC0F30B00042801D204203DE0681E36
:102AC00061684900B0FBF1F0401CC0F30B0034E03A
:102AD000A06838B9681E616801EB4101B0FBF1F0F4
:102AE000401C0AE0681E616801EBC10202EB0111A3
:102AF000B0FBF1F0401C40F48040C0F30B0008B97B
:102B000001201AE0A06848B9681E616801EB410124
:102B1000B0FBF1F0401CC0F30B000CE0681E6168D4
:102B200001EBC10202EB0111B0FBF1F0401CC0F35C
:102B30000B0040F4804040F400402168C9694CF625
:102B4000FF72914308432168C861D4E90701084333
:102B50002168096821F0C001084321680860D4E9B0
:102B6000031008432168896848F2FF329143084303
:102B700021688860D4E9050108432168C96821F00B
:102B8000FF0108432168C8602068006840F0010028
:102B90002168086000202064202084F83D00002087
:102BA000206384F83E0000BF24E70000A0860100F7
:102BB00080841E0000093D0040420F002DE9F843CB
:102BC0000446894616461F46DDF82080FFF708FFB9
:102BD000054694F83D0020287ED119230122514951
:102BE0002046009501F0BDFC10B10220BDE8F8833D
:102BF00000BF94F83C00012801D10220F6E7012033
:102C000084F83C0000BF2068006800F0010028B98B
:102C10002068006840F001002168086020680068B2
:102C200020F4006021680860212084F83D00102015
:102C300084F83E000020206466626785608D2085F0
:102C40003948E0622B4642464946204601F0F6FBF1
:102C500008B10120CAE700BF002000902068406949
:102C6000009020688069009000BF00BF44E02A46C1
:102C70004146204601F051FD50B1206C042805D199
:102C80002068006840F40070216808600120ADE70A
:102C9000606A007821680861606A401C6062608D2B
:102CA000401E6085208D401E208520684069C0F34D
:102CB000800070B1208D60B1606A00782168086181
:102CC000606A401C6062608D401E6085208D401EE1
:102CD00020852A46414600E022E0204601F00EFC15
:102CE00050B1206C042805D12068006840F40070C1
:102CF00021680860012079E7208D0028B7D120687D
:102D0000006840F4007021680860202084F83D00CD
:102D1000002084F83E0000BF84F83C0000BF65E757
:102D2000022063E7020010000000FFFF10B586B02C
:102D30000446142101A8FDF728FD1B49206888429C
:102D400030D100BF002000901848006840F0020019
:102D5000164908600846006800F00200009000BFB5
:102D600000BF4FF4406001901220029000200390B9
:102D7000032004900420059001A90D48FFF72EFDC3
:102D800000BF0020009009481030006840F4800027
:102D90000649103108600846006800F48000009081
:102DA00000BF00BF06B010BD0058004030380240E0
:102DB00000040240034800680349097808440149B7
:102DC00008607047040000200C00002010B50D487A
:102DD000006840F400700B4908600846006840F441
:102DE000806008600846006840F480700860032036
:102DF00000F0A6F80F2000F007F800F02BF80020F4
:102E000010BD0000003C024070B504460E4800783A
:102E10004FF47A71B1FBF0F00C490968B1FBF0F5A1
:102E2000284600F02FFC08B1012070BD102C07D2FD
:102E300000222146501E00F045F80548046001E0DC
:102E40000120F2E70020F0E70C0000201000002035
:102E50000800002008B500BF002000900E48006860
:102E600040F480400C4908600846006800F4804047
:102E7000009000BF00BF00BF00200090081F006846
:102E800040F08050091F08600846006800F080503C
:102E9000009000BF00BF08BD44380240014608460C
:102EA00000280DDB00BF00BF00F01F0301229A4085
:102EB00043099B0003F1E023C3F8002100BF00BFDA
:102EC00000BF70472DE9F05F80460D46164600278B
:102ED00002F022FE074639462A46334601F0070033
:102EE000C0F1070ABAF1040F02D94FF0040A01E059
:102EF000C0F1070AD14600F1040ABAF1070F02D265
:102F00004FF0000A01E0A0F1030AD4464FF0010A95
:102F10000AFA09FAAAF1010A0AEA020A0AFA0CFAFA
:102F20004FF0010B0BFA0CFBABF1010B0BEA030B9F
:102F30004AEA0B042146404602F0F6FDBDE8F09F48
:102F400000BF00F00702064B19684FF6FF03194057
:102F5000044B0B4343EA0221014B196000BF704749
:102F60000CED00E00000FA0570B504460D460CB902
:102F7000012070BD5848006800F00700A84209D23F
:102F800055490D700846006800F00700A84201D0BE
:102F90000120EEE7207800F0020002281DD1207801
:102FA00000F00400042805D14C48006840F4E050CB
:102FB0004A490860207800F00800082805D14748F1
:102FC000006840F46040454908604448006820F0CB
:102FD000F000A168084341490860207800F0010032
:102FE000A8B36068012807D13C4808380068C0F3DE
:102FF0004040B8B90120BCE76068022802D0606890
:10300000032807D1354808380068C0F3406048B944
:103010000120AEE7314808380068C0F3400008B925
:103020000120A6E72D48006820F0030061680843EE
:103030002A490860FFF7D4FC064609E0FFF7D0FCF8
:10304000801B41F28831884202D9032091E707E0D2
:103050002248006800F00C006168B0EB810FEDD1F0
:103060001D48006800F00700A84209D91A490D70F0
:103070000846006800F00700A84201D0012078E768
:10308000207800F00400042807D11448006820F4D8
:10309000E050E168084311490860207800F008001A
:1030A000082808D10D48006820F46040216940EAF2
:1030B000C1000A49086000F03FF808490968C1F3F7
:1030C0000311074A515CC840064908600648006879
:1030D000FFF79AFE00204CE7003C0240083802400F
:1030E000BC7800081000002008000020014800689B
:1030F000704700001000002000B5FFF7F7FF0449FB
:103100000968C1F38221034A515CC84000BD000038
:1031100008380240CC78000800B5FFF7E7FF044903
:103120000968C1F34231034A515CC84000BD000048
:1031300008380240CC7800082DE9F047002400252B
:103140000026A1462548006800F00C0020B10428A4
:1031500005D008283AD105E0DFF8849039E0DFF89F
:10316000849036E01D48001F006800F03F041B48B3
:10317000001F006800F4800078B11A481749091F41
:103180000968C1F38811A0FB0170014622460023A3
:103190003846FDF7BFF805460EE011480F49091FF4
:1031A0000968C1F38811A0FB017001462246002383
:1031B0003846FDF7AFF805460848001F0068C0F321
:1031C0000140401C4600B5FBF6F902E0DFF8109024
:1031D00000BF00BF4846BDE8F08700000838024045
:1031E0000024F40000127A00F8B504460CB901205E
:1031F000F8BD207800F00100002874D0F94800687C
:1032000000F00C0004280DD0F648006800F00C0017
:10321000082813D1F348001F006800F48000B0F5BF
:10322000800F0BD1EF4808380068C0F340400028F9
:1032300059D06068002856D10120D9E700BF6068E6
:10324000B0F5803F08D1E7480838006840F4803086
:10325000E449083908601EE06068B0F5A02F0DD180
:10326000E0480838006840F48020DE4908390860EA
:103270000846006840F4803008600CE0D9480838FF
:10328000006820F48030D749083908600846006893
:1032900020F48020086000BF606890B1FFF7A0FBB9
:1032A000054606E0FFF79CFB401B642801D903207C
:1032B0009EE7CC4808380068C0F340400028F1D0B1
:1032C00011E0FFF78DFB054606E0FFF789FB401B89
:1032D000642801D903208BE7C24808380068C0F38E
:1032E00040400028F1D1207800F0020002285FD190
:1032F000BC48006800F00C0058B1BA48006800F003
:103300000C0008281CD1B748001F006800F480009A
:10331000B0B9B44808380068C0F3400020B1E06894
:10332000012801D0012063E7AE480838006820F08A
:10333000F800216940EAC100AA490839086037E06D
:10334000E06800B30120A8490860FFF749FB054683
:1033500006E0FFF745FB401B022801D9032047E7A1
:10336000A04808380068C0F340000028F1D09D480C
:103370000838006820F0F800216940EAC100994946
:103380000839086014E0002097490860FFF728FB1F
:10339000054606E0FFF724FB401B022801D9032065
:1033A00026E7904808380068C0F340000028F1D1B3
:1033B000207800F0080008282CD16069A8B101200D
:1033C0008A490860FFF70CFB054606E0FFF708FB9B
:1033D000401B022801D903200AE782486C300068AC
:1033E000C0F340000028F1D014E000207F490860BD
:1033F000FFF7F6FA054606E0FFF7F2FA401B02284F
:1034000001D90320F4E677486C300068C0F340002F
:103410000028F1D1207800F00400042870D10027A2
:1034200070483830006800F0805090B900BF00202C
:1034300000906C483830006840F08050694938315D
:1034400008600846006800F08050009000BF00BF90
:1034500001276748006800F48070B0B964480068CC
:1034600040F4807062490860FFF7BAFA054606E04A
:10347000FFF7B6FA401B022801D90320B8E65C48E2
:10348000006800F480700028F2D000BFA068012816
:1034900008D154486830006840F001005149683153
:1034A00008601DE0A06805280DD14E48683000680E
:1034B00040F004004B49683108600846006840F05D
:1034C000010008600CE047486830006820F0010007
:1034D0004449683108600846006820F0040008602C
:1034E00000BFA068A8B1FFF77BFA054609E0FFF727
:1034F00077FA401B41F28831884202D9032077E6EF
:1035000026E0384868300068C0F340000028EED05C
:1035100013E0FFF765FA054608E0FFF761FA401B84
:1035200041F28831884201D9032061E62D48683094
:103530000068C0F340000028EFD1012F07D12948CF
:103540003830006820F0805026493831086000BFCC
:10355000A069002845D02348006800F00C00082826
:103560005DD0A069022845D100201F490866FFF7F9
:1035700037FA054606E0FFF733FA401B022801D967
:10358000032035E6174808380068C0F3406000287B
:10359000F1D1D4E907010843616A40EA81110122AF
:1035A000A06AC2EB500041EA00412C20005D41EAD4
:1035B00000600C49091F086001200B490866FFF7ED
:1035C0000FFA054606E0FFF70BFA401B022801D967
:1035D00003200DE6034808380068C0F34060002867
:1035E000F1D049E00838024000004742800E4742CF
:1035F00000700040002021490866FFF7F1F90546F8
:1036000006E0FFF7EDF9401B022801D90320EFE5A2
:103610001B480068C0F340600028F2D12CE0A0698C
:10362000012800D1E4E51648001D0668A0690128BC
:1036300020D006F48001E06981421BD106F03F01F1
:10364000206A814216D147F6C0703040616AB0EB03
:10365000811F0FD106F440310122A06AC2EB500055
:10366000B1EB004F06D106F070612C20005DB1EB8C
:10367000006F01D00120BBE50020B9E50000474202
:103680000038024070B504462546681EB0F1807FC0
:1036900001D301200FE0681E4FF0E02148610F21A7
:1036A0004FF0FF3002F040FA00204FF0E021886137
:1036B00007200861002070BD7047704730B5024692
:1036C0000B4600BF92F83C00012801D1022030BD1A
:1036D000012082F83C0000BF022082F83D00106803
:1036E00044681068816824F0700418680443106806
:1036F0004460184D1068A8421BD01068B0F1804F8C
:1037000017D0154D1068A84213D0144D1068A84268
:103710000FD0134D1068A8420BD0124D1068A8426C
:1037200007D0114D1068A84203D0104D1068A84270
:1037300005D121F0800158680143106881600120A3
:1037400082F83D0000BF002082F83C0000BF00BFAF
:10375000BDE70000000001400004004000080040F8
:10376000000C0040000401400040014000180040EF
:1037700010B504460CB9012010BD94F83D0028B9DD
:10378000002084F83C00204600F026F8022084F84F
:103790003D00211D206801F00DFD012084F8460048
:1037A00000BF84F83E0001213F2001554020015513
:1037B0004120015500BF00BF012084F84200432092
:1037C0000155442001554520015500BF012084F8D2
:1037D0003D000020D0E7000038B504462068B0F175
:1037E000804F17D100BF002000900B48006840F0C8
:1037F0000100094908600846006800F001000090D7
:1038000000BF00BF002211461C20FFF75BFB1C20FD
:10381000FFF744FB38BD000040380240014691F8F4
:103820003D00012801D001207047022081F83D00B1
:103830000868C06840F001000B68D8601A4B08683F
:1038400098421BD00868B0F1804F17D0174B08681A
:10385000984213D0164B086898420FD0154B086851
:1038600098420BD0144B0868984207D0134B086855
:10387000984203D0124B086898420CD108688068BF
:1038800000F00702062A0CD00868006840F001002A
:103890000B68186005E00868006840F001000B68DC
:1038A00018600020C0E70000000001400004004054
:1038B00000080040000C00400004014000400140AE
:1038C000001800402DE9F04104460D46002700BFD6
:1038D00094F83C00012802D10220BDE8F0810120CB
:1038E00084F83C0000BF022084F83D002068866810
:1038F00026F0770626F47F462068866028685028E0
:1039000033D00CDC202850D004DC00284BD0102809
:1039100051D149E0302849D040284CD139E06028C5
:103920002DD0702807D0B0F5805F03D0B0F5005FD0
:1039300041D10DE041E0D5E902136A68206801F049
:10394000A9FC2068866846F077062068866034E027
:10395000D5E902136A68206801F09CFC2068806841
:1039600040F480402168886027E0EA686968206840
:1039700001F0A4FC5021206801F097FC1DE0EA68EA
:103980006968206801F0ADFC6021206801F08DFCC1
:1039900013E0EA686968206801F090FC4021206823
:1039A00001F083FC09E000BF00BF00BF2968206868
:1039B00001F07BFC01E0012700BF00BF012084F87B
:1039C0003D0000BF002084F83C0000BF384684E77B
:1039D000704770B504462068C5682068066906F01F
:1039E0000200022819D105F00200022815D1401F5B
:1039F00021680861012020772068806900F00300B9
:103A000018B12046FFF7E4FF05E0204600F097F8E4
:103A1000204600F095F80020207706F004000428E6
:103A200019D105F00400042815D1C04321680861AC
:103A3000022020772068806900F4407018B1204689
:103A4000FFF7C6FF05E0204600F079F8204600F0B9
:103A500077F80020207706F00800082819D105F033
:103A60000800082815D1C043216808610420207788
:103A70002068C06900F0030018B12046FFF7A8FFD6
:103A800005E0204600F05BF8204600F059F80020E1
:103A9000207706F01000102819D105F0100010282A
:103AA00015D1C04321680861082020772068C069CB
:103AB00000F4407018B12046FFF78AFF05E0204669
:103AC00000F03DF8204600F03BF80020207706F09B
:103AD000010048B105F0010030B16FF0010021682C
:103AE0000861204600F02DF806F08000802809D1FA
:103AF00005F08000802805D1C04321680861204678
:103B0000FFF7DAFD06F04000402809D105F040003B
:103B1000402805D1C04321680861204600F012F812
:103B200006F02000202809D105F02000202805D12A
:103B3000C043216808612046FFF7BFFD70BD704794
:103B4000704770477047F8B504460D46164694F81E
:103B5000420020282DD105B10EB90120F8BD012069
:103B600020630020606332462946204601F060FE53
:103B70000746206B012819D100BF00200090206863
:103B80000068009020684068009000BF00BF00BF40
:103B900000BF21680C3151E8001F41F0100021687E
:103BA0000C3141E80002002AF3D100E00127384639
:103BB000D4E70220D2E7000070B504460D46314933
:103BC000206888421CD1204600F080F82A462E4901
:103BD0002E48FCF773FD01202D49087040212A482A
:103BE000FCF7B1FD402228492A48FFF7ACFF2A48DC
:103BF0000068006820F0080027490968086040E074
:103C00002649206888421CD1204600F05FF82A46E9
:103C100023492448FCF752FD012023490870402124
:103C20001F48FCF790FD40221D492048FFF78BFFFD
:103C30001F480068006820F008001D4909680860F6
:103C40001FE01C49206888421BD1204600F03EF846
:103C50002A4619491948FCF731FD01201849087016
:103C600040211548FCF76FFD402213491548FFF726
:103C70006AFF15480068006820F0080012490968CA
:103C8000086070BD0044004065070020A5070020C3
:103C9000140000203401002024020020004C0040C9
:103CA000E50700202508002015000020EC0000207A
:103CB000C40100200014014065080020A508002070
:103CC000160000207C0100208402002070B504460C
:103CD000002520684069C0F3C01594F841002128F0
:103CE00017D1B5B100BF00BF2168143151E8001FE2
:103CF00021F080002168143141E80002002AF3D14C
:103D000000BFA06B10B1A06BFEF70AFB204601F0CC
:103D1000E8FB20684069C0F3801594F8420022282F
:103D200017D1B5B100BF00BF2168143151E8001FA1
:103D300021F040002168143141E80002002AF3D14B
:103D400000BFE06B10B1E06BFEF7EAFA204601F02D
:103D500082FB002070BD70472DE9F84F04462068B3
:103D600005682068C668206847694FF00009CA46A0
:103D700005F00F09B9F1000F0AD105F0200038B1A4
:103D800006F0200020B1204601F0BEFBBDE8F88F10
:103D9000B9F1000F7CD007F0010018B906F490705B
:103DA000002875D005F0010030B106F4807018B11C
:103DB000606C40F00100606405F0040030B107F071
:103DC000010018B1606C40F00200606405F0020070
:103DD00030B107F0010018B1606C40F0040060647D
:103DE00005F0080048B106F0200010B907F0010006
:103DF00018B1606C40F008006064606C002846D028
:103E000005F0200028B106F0200010B1204601F096
:103E10007BFB20684069C0F3801A606C00F00800EA
:103E200010B9BAF1000F2DD0204601F014FB206824
:103E3000406900F04000402820D100BF00BF216849
:103E4000143151E8001F21F040002168143141E88D
:103E50000002002AF3D100BFE06B50B17F48E16B54
:103E60000865E06BFEF7B2FA88B1E06B016D884738
:103E70000DE02046FFF76FFF09E009E02046FFF75D
:103E80006AFF04E02046FFF766FF002060647DE7DC
:103E9000206B012878D105F01000002874D006F0BE
:103EA00010000028FAD000BF0020009020680068B1
:103EB000009020684068009000BF00BF2068406903
:103EC00000F04000402870D1E06B006840681FFAA5
:103ED00080F8B8F1000F58D0A08D404555DDA4F80A
:103EE0002E80E06BC069B0F5807F43D000BF00BF7B
:103EF00021680C3151E8001F21F4807021680C31D9
:103F000041E80002002AF3D100BF00BF00BF2168D2
:103F1000143151E8001F21F001002168143141E8FB
:103F20000002002AF3D100BF00BF00BF2168143196
:103F300051E8001F21F040002168143141E80002DF
:103F4000002AF3D100BF202084F842000020206323
:103F500000BF00BF21680C3151E8001F21F01000A4
:103F600021680C3141E80002002AF3D100BFE06B68
:103F7000FEF7D6F902206063A08DE28D801A81B22F
:103F80002046FFF719FE0EE052E0A08D40450AD111
:103F9000E06BC069B0F5807F05D102206063A18D20
:103FA0002046FFF709FEF1E6FFE7A08DE18D401AFC
:103FB0001FFA80F8E08DD0B3B8F1000F37D000BF02
:103FC00000BF21680C3151E8001F21F49070216876
:103FD0000C3141E80002002AF3D100BF00BF00BF4E
:103FE0002168143151E8001F21F0010021681431CB
:103FF00041E80002002AF3D100BF202084F84200EB
:104000000020206300BF00BF21680C3151E8001F71
:1040100021F0100021680C3141E80002002AF3D1A0
:1040200000BF0220606341462046FFF7C5FDADE6B4
:1040300005F0800030B106F0800018B1204601F094
:1040400063FCA3E605F0400030B106F0400018B173
:10405000204601F036FA99E600BF97E61D530008A6
:1040600010B504460CB9012010BDA06900B100E0F4
:1040700000BF94F8410028B9002084F84000204691
:1040800000F02AF8242084F841002068C06820F459
:1040900000502168C860204601F0B4FA2068006929
:1040A00020F49040216808612068406920F02A00CF
:1040B000216848612068C06840F400502168C860E9
:1040C00000206064202084F8410084F84200002031
:1040D000606300BFC8E7000010B586B00446142135
:1040E00001A8FCF752FB88492068884254D100BFE0
:1040F000002000908548006840F400208349086053
:104100000846006800F40020009000BF00BF00BF18
:10411000002000907D481038006840F001007B4985
:10412000103908600846006800F00100009000BFE8
:1041300000BF032001900220029000200390032082
:1041400004900820059001A97148FEF747FB7148CB
:10415000714908604005486000216F488160C16076
:104160004FF480610161002141618161C16101629F
:104170004162FEF75FFA08B1FEF7CFF800BF66486C
:10418000E063846300BF002202213420FEF79AFE20
:104190003420FEF783FEB4E060492068884256D19F
:1041A00000BF002000905948006840F40030574993
:1041B00008600846006800F40030009000BF00BFAF
:1041C00000BF0020009051481038006840F0010006
:1041D0004E49103908600846006800F00100009060
:1041E00000BF00BF0C20019002200290002003902D
:1041F000032004900720059001A94548FEF7EEFA38
:1042000044484830464908604FF00060486000214B
:1042100043488160C1604FF48061016100214161C8
:104220008161C16101624162FEF704FA08B1FEF7E3
:1042300074F800BF3A48E063846300BF00220221A3
:104240002620FEF73FFE2620FEF728FE59E03549DE
:104250002068884255D100BF002000902B48001DE7
:10426000006840F020002949091D086008460068E0
:1042700000F02000009000BF00BF00BF00200090B1
:1042800022481038006840F00400204910390860C6
:104290000846006800F00400009000BF00BFC02086
:1042A0000190022002900020039003200490082037
:1042B000059001A91C48FEF791FA1C481C490860AA
:1042C0008005486000211A488160C1604FF4806118
:1042D0000161002141618161C16101624162FEF7BA
:1042E000A9F908B1FEF719F800BF1148E06384632B
:1042F00000BF002211464720FEF7E4FD4720FEF7ED
:10430000CDFD06B010BD0000004C0040403802401A
:104310000000024040600240C40100200044004010
:1043200024020020001401400008024028640240DA
:1043300084020020704770472DE9F84F04460E466E
:10434000174699464FF0000A94F84100202850D1B2
:1043500006B117B90120BDE8F88F00206064212064
:1043600084F84100FEF73CFB8246A784E784A068FE
:10437000B0F5805F04D1206910B90025B04602E095
:1043800035464FF000081EE05346002280212046AB
:10439000CDF8009001F0E8FA20B1202084F8410027
:1043A0000320D8E745B9B8F80000C0F30800216839
:1043B000486008F1020803E02878216848606D1C15
:1043C000E08C401EE084E08C0028DDD153460022C2
:1043D00040212046CDF8009001F0C6FA20B12020FF
:1043E00084F841000320B6E7202084F84100002033
:1043F000B1E70220AFE7704700BFFEE7014608685B
:104400004069C0F38020B0B16FF480600A685061E9
:1044100000200863202081F83D00002081F83E0044
:10442000086C40F00400086400BF002081F83C00E4
:1044300000BF012070470020FCE700002DE9F84391
:1044400004460D4617469846E66A082E04D0012E0B
:1044500002D016F5803F06D12068006840F48070D5
:104460002168086008E0206B122805D120680068E8
:1044700040F48070216808603B4600224FF0011133
:104480002046CDF8008000F06CF860B1206800682C
:1044900000F48070B0F5807F02D14FF4007020648A
:1044A0000320BDE8F8832069B0F5804F04D105F002
:1044B000FE002168086112E005F44070F02141EA35
:1044C000E0102168086143463A460B49204600F057
:1044D000A7F808B10120E4E7E8B221680861434683
:1044E0003A460549891F204600F09AF808B1012094
:1044F000D7E70020D5E700000800010070B50446AA
:104500000D46164625E02046FFF778FF08B101204A
:1045100070BD681CE8B1FEF763FA801BA84200D8A2
:10452000BDB920684069C0F3800090B900202063C5
:10453000202084F83D00002084F83E00206C40F0EC
:104540002000206400BF002084F83C0000BF012050
:10455000DEE720684069C0F380000028D3D0002047
:10456000D6E72DE9F04104460D4617461E46DDF814
:10457000188038E0701CA8B3FEF732FAA0EB0800F0
:10458000B04200D876BBC5F3074001280AD12068A5
:104590004069A9B20840A9B2884201D101200BE0CC
:1045A000002009E020688069A9B20840A9B28842C9
:1045B00001D1012000E00020B84214D10020206386
:1045C000202084F83D00002084F83E00206C40F05C
:1045D0002000206400BF002084F83C0000BF0120C0
:1045E000BDE8F081FFE7C5F3074001280AD1206844
:1045F0004069A9B20840A9B2884201D101200BE06C
:10460000002009E020688069A9B20840A9B2884268
:1046100001D1012000E00020B842ABD00020DFE74C
:104620002DE9F04104460D4616461F4658E0206825
:104630004069C0F38020E8B12068006840F4007051
:10464000216808606FF48060216848610020206361
:10465000202084F83D00002084F83E00206C40F0CB
:104660000400206400BF002084F83C0000BF01204B
:10467000BDE8F081701C90B3FEF7B2F9C01BB042E8
:1046800000D866BBC5F3074001280AD120684069FD
:10469000A9B20840A9B2884201D101200BE0002054
:1046A00009E020688069A9B20840A9B2884201D116
:1046B000012000E0002090B900202063202084F831
:1046C0003D00002084F83E00206C40F02000206473
:1046D00000BF002084F83C0000BF0120C8E7FFE7CE
:1046E000C5F3074001280AD120684069A9B20840F3
:1046F000A9B2884201D101200BE0002009E0206826
:104700008069A9B20840A9B2884201D1012000E025
:10471000002000288BD00020AAE770B504460D4683
:10472000164625E02046FFF769FE08B1012070BD5E
:10473000681CE8B1FEF754F9801BA84200D8BDB947
:1047400020684069C0F3C01090B900202063202089
:1047500084F83D00002084F83E00206C40F02000EA
:10476000206400BF002084F83C0000BF0120DEE789
:1047700020684069C0F3C0100028D3D00020D6E7DD
:1047800010B5002401210948FEF722F900B90124DF
:1047900002210648FEF71CF900B90224042103484F
:1047A000FEF716F900B90324204610BD00100240A0
:1047B00010B5FFF7E5FF1B490870084600781A4955
:1047C0000978484017490978084018490870154881
:1047D00000781549097848401249097888431449F6
:1047E00008701048007810490870104800780128B7
:1047F00004D110480069401C0E4908610B4800783C
:10480000022804D10B480069401C0A490861074886
:104810000078032804D107480069401C0549086155
:1048200010BD00004D0000204F0000204C00002073
:104830004E000020E808002008B500BF00200090CE
:104840001A48006840F400101849086008460068DB
:1048500000F40010009000BF00BF00BF00200090D7
:104860000846006840F4800008600846006800F4CC
:104870008000009000BF00BF002211460D20FEF70F
:1048800021FB0D20FEF70AFB002211461020FEF747
:1048900019FB1020FEF702FB002211463920FEF71B
:1048A00011FB3920FEF7FAFA08BD0000303802404B
:1048B00000B587B0142102A8FBF767FF00BF0020F6
:1048C00001902A48006840F0100028490860084616
:1048D000006800F01000019000BF00BF00BF002082
:1048E00001900846006840F004000860084600682F
:1048F00000F00400019000BF00BF00BF0020019045
:104900000846006840F0800008600846006800F033
:104910008000019000BF00BF00BF0020019008464A
:10492000006840F0010008600846006800F00100DF
:10493000019000BF00BF00BF002001900846006842
:1049400040F0020008600846006800F00200019094
:1049500000BF00BF072002900020039001200490B8
:1049600002A90348FDF73AFF07B000BD3038024006
:104970000010024010B50B480B4908600B48486016
:10498000002109488160C1604FF48041016100212C
:1049900041618161C1610162FEF728F808B1FDF74C
:1049A000BCFC10BD0058004050000020A086010053
:1049B00000B587B000200390049005900690019008
:1049C00002904FF08040144908602920486000217F
:1049D0001148816040F2E731C1600021016180210E
:1049E0008161FEF7C5FE08B1FDF797FC4FF48050DA
:1049F000039003A90848FEF765FF08B1FDF78DFC99
:104A000000200190029001A90348FEF757FE08B16B
:104A1000FDF783FC07B000BDA400002010B50B48D3
:104A20000B4908604FF4E13048600021084881607C
:104A3000C16001610C21416100218161C161FFF709
:104A40000FFB08B1FDF769FC10BD0000004C0040F1
:104A5000EC00002010B50B480B4908604FF4E13022
:104A60004860002108488160C16001610C214161FA
:104A700000218161C161FFF7F3FA08B1FDF74DFC38
:104A800010BD0000004400403401002010B50B4868
:104A90000B4908604FF4E13048600021084881600C
:104AA000C16001610C21416100218161C161FFF799
:104AB000D7FA08B1FDF731FC10BD00000014014029
:104AC0007C01002000BFFEE710B50948FEF7A6FEF6
:104AD00000BF40F2CF7006490968C8620146044829
:104AE000C16000BF002002490968486210BD000093
:104AF000A400002010B5402213491448FFF723F802
:104B000013480068006820F008001149096808602F
:104B1000402210491048FFF716F810480068006856
:104B200020F008000D490968086040220C490D4832
:104B3000FFF709F80C480068006820F008000A49EF
:104B40000968086010BD00006507002034010020DE
:104B500024020020E5070020EC000020C401002012
:104B6000650800207C0100208402002000BFFEE7D1
:104B700010B5AE2000F002F9202000F0FFF8102060
:104B800000F0FCF8B02000F0F9F8C82000F0F6F8CA
:104B9000002000F0F3F8102000F0F0F8402000F0C2
:104BA000EDF8812000F0EAF8DF2000F0E7F8A1201E
:104BB00000F0E4F8A62000F0E1F8A82000F0DEF80C
:104BC0003F2000F0DBF8A42000F0D8F8D32000F05C
:104BD000D5F8002000F0D2F8D52000F0CFF8F02072
:104BE00000F0CCF8D92000F0C9F8222000F0C6F877
:104BF000DA2000F0C3F8122000F0C0F8DB2000F04B
:104C0000BDF8202000F0BAF88D2000F0B7F814208D
:104C100000F0B4F800F006F800F0BAF9AF2000F0A8
:104C2000ADF810BD10B54FF480610248FBF78BFD65
:104C300010BD0000E40200202DE9FC430746884631
:104C400015461C46DDF824902078CDE9000920782F
:104C5000C61DF01706EB5070C010617810FB01F113
:104C6000A5F12000D4F804C000FB01C263784146DE
:104C7000384600F002F9BDE8FC832DE9FF4F85B00E
:104C8000804617461C46DDF8489000262178C81D4E
:104C9000C11700EB5171C910627811FB02F1091DB7
:104CA000C9B2049152E000200390B81900F0FEFE52
:104CB000054605B94DE04FF0000B20E0616804980F
:104CC0000BFB001AB8192A465146FBF7CBFC90B9EA
:104CD0002078CDE9000963780AF10402404606997C
:104CE00000F0CBF86078404400F0FF08701986B2FD
:104CF0000120039006E00BF1010000F0FF0B207A89
:104D00005845DBDC00BF039800BB012D0FD1CDF867
:104D10000090BA5DE36840460699FFF78DFFE068B2
:104D20004078404400F0FF08701986B20EE0CDF8DC
:104D300000902022E36840460699FFF77DFFE06877
:104D40004078404400F0FF08701986B2B85D002832
:104D5000A9D100BF09B0BDE8F08F000038B5044606
:104D60000D464FF0FF302B46224678210090024836
:104D7000FDF724FF38BD00005000002010B50446A8
:104D8000024844700221FFF7E9FF10BD0000002037
:104D90002DE9FC4380460C4616461F462046E11787
:104DA00004EB5171C1F3C7092046E11704EB5171BF
:104DB000C910A4EBC101CDB20720CDE9000706FA66
:104DC00005F0C2B22B464146484600F0A3F875B143
:104DD000681EC0B2C5F1080146FA01F209F10101ED
:104DE000CDE90007C8B20023414600F093F8BDE8C2
:104DF000FC832DE9FC4781460C4616461F46DDF82C
:104E000028802046E11704EB5171C1F3C70A204600
:104E1000E11704EB5171C910A4EBC101CDB2E8193F
:104E200008281BDD0720CDE9000806FA05F0C2B20C
:104E30002B464946504600F06DF878190938C0B243
:104E4000C5F1080146FA01F20AF10101CDE90008B5
:104E5000C8B20023494600F05DF80CE0E819401E96
:104E6000C0B2CDE9000806FA05F0C2B22B464946A9
:104E7000504600F04FF8BDE8FC872DE9FC4F814615
:104E80008A4693461D460B9C2046E11704EB517160
:104E9000C1F3C707E11704EB5171C910A4EBC101BD
:104EA000C9B201914FF0000816E000260EE006FBA3
:104EB00005831BF803200AEBC603D9B209EB0803EC
:104EC000D8B20C9BFFF764FF701CC6B2BE42EEDB8B
:104ED00008F1010000F0FF08A845E6DB0198B8B131
:104EE00005FB07F8002610E00C9808EB060300907D
:104EF0001BF803200AEBC703D9B209EB0603D8B2AB
:104F0000019BFFF776FF701CC6B2AE42ECDB00BF20
:104F1000BDE8FC8FF0B5DDE90545082801DA8029F8
:104F200000DBF0BD0DB1D643F2B2661CFF2707FAD5
:104F300006F61643C3F1080C47FA0CF73E43124F2E
:104F40003E70124E06EBC016765C3F783E400F4F27
:104F500007EBC0177E54661CFF27B74022EA0706FE
:104F6000C3F1080CFF2747FA0CF7BE43064F3E700B
:104F7000064E06EBC016765C3F783E43034F07EBC8
:104F8000C0177E5400BFCCE702000020E4020020DE
:104F900010B540200F490870002418E004F1B0015A
:104FA000C8B2FFF7EBFE0020FFF7E8FE1020FFF786
:104FB000E5FE094800EBC41180220648401CFBF7BF
:104FC0007DFB81210348FFF7C9FE601CC4B2082C99
:104FD000E4DB10BDE4060020E402002000B591B03F
:104FE0002B482CA1026901A8FBF726FA00202B4BC5
:104FF00001AA01460090FFF740FE294829A1026955
:1050000001A8FBF719FA0020244B01AA10210090F7
:10501000FFF733FE1E4825A1826801A8FBF70CFAB2
:1050200000201E4B01AA20210090FFF726FE1C48FD
:1050300020A1826801A8FBF7FFF90020174B01AA05
:10504000014600904020FFF718FE1148B0F91420E7
:105050001AA101A8FBF7F0F90020104B01AA1021BA
:1050600000904020FFF709FE0D48B0F9142015A16B
:1050700001A8FBF7E1F90020084B01AA20210090CC
:105080004020FFF7FAFDFFF783FF11B000BD0000DD
:10509000E808002065313A256400000068770008C0
:1050A0004809002065323A256400000070313A2535
:1050B0006400000070323A256400000074313A2523
:1050C0006400000074323A256400000070477047A5
:1050D000704710B5FDF76EFE10BD000000B593B02F
:1050E000302107A8FBF751FB142102A8FBF74DFB69
:1050F00000BF002001902448006840F08050224901
:1051000008600846006800F08050019000BF00BFB2
:1051100000BF002001901D48006840F480401B49FA
:1051200008600846006800F48040019000BF00BF9E
:10513000012007900004089002200D9041050E9177
:1051400004210F91A82110910221119104211291A3
:1051500007A8FEF749F808B1FDF7DFF80F20029025
:1051600002200390002004904FF4A05005904FF4CB
:1051700080500690052102A8FDF7F6FE08B1FDF764
:10518000CCF813B000BD0000403802400070004071
:105190000348006840F4700001490860704700004F
:1051A00088ED00E010B50248FEF713FC10BD0000CA
:1051B000A400002010B502682B4B98420ED0B0F12D
:1051C000804F0BD0294B984208D0294B984205D0EC
:1051D000284B984202D0284B984203D122F070020B
:1051E0004B681A43204B984220D0B0F1804F1DD01D
:1051F0001E4B98421AD01E4B984217D01D4B984216
:1052000014D01D4B984211D01C4B98420ED01C4B11
:1052100098420BD01B4B984208D01B4B984205D0AC
:105220001A4B984202D01A4B984203D122F4407292
:10523000CB681A4322F080034C6943EA04028B686E
:10524000C3620B688362084B984202D00A4B9842B3
:1052500001D10B690363036843F004030360012376
:105260004361026010BD00000000014000040040E6
:1052700000080040000C00400004014000400140D4
:10528000004401400048014000180040001C00405C
:105290000020004030B50C46816821F47F4142EA8D
:1052A000032525432943816030BD0A46816821F0EA
:1052B000700142F0070319438160704730B50B4617
:1052C0001446026A056A25F001050562816921F02C
:1052D000F00141EA041122F00A021A4381610262DC
:1052E00030BD30B50B461446026A056A25F010053C
:1052F0000562816921F4704141EA043122F0A00283
:1053000042EA03128161026230BD000010B502481A
:10531000FEF722FD10BD0000EC00002070B5044631
:10532000A56B0020E8852846FEF715FD70BD70B519
:1053300006460025B46B20684069C0F3C01594F898
:105340004100212805D125B10020E084204600F04D
:10535000C8F820684069C0F3801594F842002228FC
:1053600005D125B10020E085204600F074F8606C7E
:1053700040F0100060642046FEF7EDFC70BD70B593
:105380000546AC6B2868006800F48070002842D1A4
:10539000E08500BF00BF21680C3151E8001F21F4F7
:1053A000807021680C3141E80002002AF3D100BF6F
:1053B00000BF00BF2168143151E8001F21F0010037
:1053C0002168143141E80002002AF3D100BF00BF78
:1053D00000BF2168143151E8001F21F0400021680E
:1053E000143141E80002002AF3D100BF202084F8E4
:1053F0004200206B01280ED100BF00BF21680C3194
:1054000051E8001F21F0100021680C3141E8000232
:10541000002AF3D100BF00206063206B012804D173
:10542000A18D2046FEF7C8FB02E02046FEF782FF72
:1054300070BD70B50546AC6B01206063206B012820
:1054400005D1A08D41082046FEF7B6FB02E02046BC
:10545000FEF771FF70BD00BF00BF02680C3252E85A
:10546000002F22F4907102680C3242E80013002BE6
:10547000F3D100BF00BF00BF0268143252E8002F12
:1054800022F001010268143242E80013002BF3D12C
:1054900000BF016B01290ED100BF00BF02680C32B2
:1054A00052E8002F22F0100102680C3242E800138B
:1054B000002BF3D100BF202180F8421000210163AE
:1054C000704710B504462068C06820F0400021688D
:1054D000C860202084F841002046FEF78CFF0020A1
:1054E00010BD00BF00BF02680C3252E8002F22F04E
:1054F000C00102680C3242E80013002BF3D100BF58
:10550000202180F841107047F8B504460025002698
:1055100094F84200222873D1A068B0F5805F0BD1C7
:10552000206948B9A66A20684068C0F30800308046
:10553000A06A801CA06214E0A56AA068B0F5805F34
:1055400003D0A06828B9206918B92068406828707D
:1055500004E02068406800F07F002870A06A401CCA
:10556000A062E08D401E80B2E085002846D1206810
:10557000C06820F020002168C8602068C06820F45E
:1055800080702168C8602068406920F001002168AF
:105590004861202084F8420000206063206B0128CD
:1055A00026D10020206300BF00BF21680C3151E8E4
:1055B000001F21F0100021680C3141E80002002A90
:1055C000F3D100BF2068006800F0100010280AD155
:1055D00000BF0020009020680068009020684068AC
:1055E000009000BF00BFA18D2046FEF7E5FA02E063
:1055F0002046FEF79FFE0020F8BD01E00020FBE7FB
:105600000220F9E72DE9F84F04462068006920F4EC
:105610004050E1680843216808612169A068084397
:1056200061690843E169084300902068C06849F255
:105630000C618843009908432168C860206840696C
:1056400020F44070A16908432168486176492068C8
:10565000884203D075492068884203D1FDF75CFD7C
:10566000814602E0FDF748FD8146E069B0F5004F54
:105670006CD102206168A0FB015003461920A9FBF0
:10568000007001462A463846FAF744FE6421B0FB12
:10569000F1F04FEA001A02206168A0FB01510B46AD
:1056A0001920A9FB00712A463846FAF733FE8346D3
:1056B00002206168A0FB015003461920A9FB00717C
:1056C0002A463846FAF726FE6421B0FBF1F000EBDB
:1056D000C00101EB0010ABEB8000322101EBC000F8
:1056E0006421B0FBF1F000F0F8000AEB400A022060
:1056F0006168A0FB015003461920A9FB0070014618
:105700002A463846FAF706FE834602206168A0FB67
:10571000015003461920A9FB00712A463846FAF7C2
:10572000F9FD6421B0FBF1F000EBC00101EB0010CA
:10573000ABEB8000322101EBC0006421B0FBF1F043
:1057400000F007005044216888606AE00420616826
:10575000A0FB015003461920A9FB007001462A4610
:105760003846FAF7D7FD824604206168A0FB015055
:1057700003461920A9FB007001462A463846FAF76D
:10578000C9FD6421B0FBF1F000EBC00101EB00109A
:10579000AAEB8000322101EB00106421B0FBF1F094
:1057A00000F0F00A04206168A0FB01700346192094
:1057B000A9FB00513A462846FAF7ACFD6421B0FB3C
:1057C000F1F00AEB001A04206168A0FB01510B46BE
:1057D0001920A9FB00712A463846FAF79BFD83463B
:1057E00004206168A0FB015003461920A9FB00704A
:1057F00001462A463846FAF78DFD6421B0FBF1F0E8
:1058000000EBC00101EB0010ABEB8000322101EB9B
:1058100000106421B0FBF1F000F00F00504421684B
:105820008860BDE8F88F00000010014000140140BE
:1058300077B581B0044615460298A062A585002080
:105840006064222084F842002C48E16BC8632C4835
:10585000E16B08642B48E16BC8640020E16B0865CC
:1058600002AE32682368191D2B46E06BFCF758FF27
:1058700038B110206064202084F84200012004B078
:1058800070BD00BF00200090206800680090206874
:105890004068009000BF00BF206970B100BF00BF2A
:1058A00021680C3151E8001F41F4807021680C31EF
:1058B00041E80002002AF3D100BF00BF00BF216809
:1058C000143151E8001F41F001002168143141E812
:1058D0000002002AF3D100BF00BF00BF21681431CD
:1058E00051E8001F41F040002168143141E80002F6
:1058F000002AF3D100BF0020C1E700007F53000859
:10590000335400082F530008014691F84100212824
:1059100028D18868B0F5805F0BD1086948B90A6A58
:105920001088C0F308000B685860086A801C086281
:1059300005E00B6A581C086218780B685860C88C20
:10594000401E80B2C88458B90868C06820F0800042
:105950000B68D8600868C06840F040000B68D860E9
:10596000002070470220FCE72DE9F84304460D466D
:1059700017469846089E31E0701C70B3FDF730F86A
:10598000A0EB0800B04200D816B90320BDE8F883A8
:105990002068C06800F00400F8B1802D1ED0402DB2
:1059A0001CD020680068C0F3C000B0B100BF002068
:1059B000009020680068009020684068009000BF58
:1059C00000BF2046FFF747FD0820606400BF0020AD
:1059D00084F8400000BF0120D8E7FFE72068006896
:1059E0002840A84201D1012000E00020B842C3D0E5
:1059F0000020CBE710B50248FEF7AEF910BD00005D
:105A00003401002010B50248FEF7A6F910BD0000D1
:105A10007C01002010B51748007858B1164A402183
:105A20001648FCF704FB40211448FAF78CFE0020CE
:105A3000104908701248007858B1124A40211248A3
:105A4000FCF7F5FA40211048FAF77DFE00200C49DA
:105A500008700E48007858B10D4A0EA1114800F0A8
:105A6000B1F840210A48FAF76EFE00200749087095
:105A700010BD000014000020E8080020A507002049
:105A800015000020480900202508002016000020ED
:105A9000A5080020726563656976653A25730D0A6D
:105AA000000000007C01002000BFFEE701460878EE
:105AB00000F0800008B901207047087800F0E0008D
:105AC000C02801D10220F7E7087800F0F000E028B4
:105AD00001D10320F0E7087800F0F800F02801D1A8
